:1000000020C03AC039C038C037C02DC135C034C057
:1000100033C032C031C030C02FC02EC02DC0000050
:10002000000037000000000038000000000036002B
:100030000202020202020102040810200102000072
:10004000040011241FBECFE5D2E0DEBFCDBF10E01B
:10005000A0E6B0E0EEE8F4E002C005900D92A23612
:10006000B107D9F720E0A2E6B0E001C01D92AF369B
:10007000B207E1F742D109C2C3CF813031F48AB56A
:100080008F778ABD8AB58F7B07C0823039F48AB5F5
:100090008F7D8ABD8AB58F7E8ABD0895833039F4FD
:1000A00080B78F7D80BF80B78F7E80BF08958430FA
:1000B00031F48CB58F7D8CBD8CB58F7E8CBD089551
:1000C000CF93DF9387FF11C08F7741F0813041F0EC
:1000D000823041F0833041F08FEF07C085E005C0EA
:1000E00082E003C084E001C083E0282F30E0F90102
:1000F000E45CFF4F8491F901EA5CFF4FD491F90170
:10010000E05DFF4FC491CC2389F08111B6DFEC2F65
:10011000F0E0EE0FFF1FE65DFF4FA591B491EC916B
:10012000ED2381E090E021F480E002C080E090E0E7
:10013000DF91CF9108950F931F93CF93DF931F9279
:10014000CDB7DEB787FF11C08F7741F0813041F026
:10015000823041F0833041F08FEF07C085E005C069
:1001600082E003C084E001C083E0282F30E0F90181
:10017000E45CFF4F8491F901EA5CFF4F1491F901AF
:10018000E05DFF4F04910023D9F0882319F06983C3
:1001900074DF6981E02FF0E0EE0FFF1FEC5DFF4F91
:1001A000A591B4918FB7611106C0F8949C91E12F8D
:1001B000E095E92303C0F894EC91E12BEC938FBF19
:1001C0000F90DF91CF911F910F9108953FB7F89451
:1001D00080916B0090916C00A0916D00B0916E00C9
:1001E00022B708B601FE05C02F3F19F00196A11DE8
:1001F000B11D3FBFBA2FA92F982F8827820F911DBD
:10020000A11DB11DBC01CD0143E0660F771F881F02
:10021000991F4A95D1F70895CF92DF92EF92FF92FE
:10022000CF93DF93D3DFEB018AEFC82ED12CE12CE3
:10023000F12CCCDF6C1B7D0B683E734040F081E0FD
:10024000C81AD108E108F108C851DC4FF2CFC11437
:10025000D104E104F10469F7DF91CF91FF90EF90B1
:10026000DF90CF9008951F920F920FB60F92112436
:100270002F933F938F939F93AF93BF93809167008A
:1002800090916800A0916900B0916A003091660079
:1002900026E0230F2D3730F029E8230F0396A11D08
:1002A000B11D03C00296A11DB11D2093660080936D
:1002B000670090936800A0936900B0936A008091F2
:1002C0006B0090916C00A0916D00B0916E00019652
:1002D000A11DB11D80936B0090936C00A0936D00E5
:1002E000B0936E00BF91AF919F918F913F912F91ED
:1002F0000F900FBE0F901F90189581B781BF8AB5E0
:1003000082608ABD8AB581608ABD83B7887F836039
:1003100083BF789489B7826089BF80B7807F80BFB0
:1003200080B7806880BF8CB580648CBD8FEF8DBD39
:1003300080B7876080BF86B18877866886B9379A2C
:10034000C0E6D0E01C2F1E5FDE01888187FF11C050
:100350008F7741F0813041F0823041F0833041F0BD
:100360008FEF07C085E005C082E003C084E001C0D4
:1003700083E090E0FC01EA5CFF4F4491FC01E05D0A
:10038000FF4F84918823A1F090E0880F991FFC0112
:10039000E25EFF4F25913491FC01EC5DFF4F8591AA
:1003A00094918FB7F894F9019081942B90838FBF2B
:1003B000219660E08C91BFDE1C13C6CF2FB7F89456
:1003C0008091670090916800A0916900B0916A00E7
:1003D0002FBF8093620090936300A0936400B0935A
:1003E00065008AE090E03BD0882371F183E068DE0D
:1003F00061E0892B09F060E083E09DDE2FB7F8947F
:100400008091670090916800A0916900B0916A00A6
:100410002FBF409162005091630060916400709121
:100420006500841B950BA60BB70B81319742A10584
:10043000B10598F08AE090E012D0882371F060E076
:100440008AE090E014D009C084E03ADE61E0892BB4
:1004500009F060E084E06FDEDFDEDEDEC2CFE1992E
:10046000FECF9FBB8EBBE09A99278DB30895262FB0
:10047000E199FECF1CBA9FBB8EBB2DBB0FB6F89483
:0E048000E29AE19A0FBE01960895F894FFCF1C
:02048E00030465
:00000001FF
