:100000000C9456050C949F2D0C949D050C949D0505
:100010000C949D050C949D050C949D050C949D05D8
:100020000C949D050C949D050C94FD250C94C12504
:100030000C948B290C949D050C949D050C949D05A6
:100040000C949D050C949D050C949D050C949D05A8
:100050000C949D050C9465290C949D050C949D05AC
:100060000C949D050C949D050C949D050C949D0588
:100070000C949D050C949D050C949D050C949D0578
:100080000C94B4290C949D050C949D050C949D052D
:100090000C949D050C949D050C949D050C949D0558
:1000A0000C949D050C949D050C949D0507634236A8
:1000B000B79BD8A71A39685618AEBAAB558C1D3CF9
:1000C000B7CC5763BD6DEDFD753EF6177231BF00BD
:1000D0000000803F08000000BE922449123EABAAF7
:1000E000AA2ABECDCCCC4C3E00000080BEABAAAA52
:1000F000AA3E00000000BF000000803F000000009A
:1001000000084178D3BB4387D1133D190E3CC3BDD2
:100110004282AD2B3E68EC8276BED98FE1A93E4C7F
:1001200080EFFFBE01C4FF7F3F0000000000000021
:1001300000000000000000000101010101010101B7
:100140000102020202020202020303030303030389
:10015000040404040405050505050606060606074D
:10016000070707080808080909090A0A0A0B0B0B00
:100170000C0C0C0D0D0D0E0E0E0F0F10101011119A
:100180001212131314141515161617171818191917
:100190001A1A1B1C1C1D1D1E1F1F20212122232378
:1001A00024252526272828292A2B2C2C2D2E2F30B4
:1001B000313132333435363738393A3B3C3D3E3FC6
:1001C000404142434445464748494B4C4D4E4F50B1
:1001D000525354555758595A5C5D5E60616364656B
:1001E00067686A6B6C6E6F7172747677797A7C7DF2
:1001F0007F8182848687898B8D8E90929495979942
:100200009B9D9FA1A2A4A6A8AAACAEB0B2B4B6B959
:10021000BBBDBFC1C3C5C8CACCCED0D3D5D7DADC2D
:10022000DEE1E3E6E8EAEDEFF2F4F7F9FCFFFFAA1E
:100230007F55402223252628292A2C2D2F30323382
:100240003536383A3B3D3E4042434547494A4C4E9D
:100250005051535557595A5C5E6062646668696BC9
:100260006D6F71737577797B7D7F81838587898ACF
:100270008C8E90929496989A9C9E9FA1A3A5A7A8D5
:10028000AAACAEAFB1B3B4B6B8B9BBBCBEBFC1C205
:10029000C3C5C6C7C9CACBCCCDCED0D1D2D2D3D498
:1002A000D5D6D7D7D8D9D9DADADBDBDBDCDCDCDCB6
:1002B000DCDDDDDDDDDCDCDCDCDCDBDBDBDADAD984
:1002C000D9D8D7D7D6D5D4D3D2D2D1D0CECDCCCB06
:1002D000CAC9C7C6C5C3C2C1BFBEBCBBB9B8B6B424
:1002E000B3B1AFAEACAAA8A7A5A3A19F9E9C9A98B4
:1002F000969492908E8C8A89878583817F7D7B7985
:10030000777573716F6D6B6968666462605E5C5A65
:100310005957555351504E4C4A4947454342403E28
:100320003D3B3A3836353332302F2D2C2A292826BA
:10033000252322290014001A000800150017002B9D
:100340000004001600070009000A00E1001D001B60
:1003500000060019000500E000E300E200035D0173
:100360005D2C001C0018000C00120013002A000B6A
:10037000000D000E000F0033003400110010003695
:10038000003700380028002C00025D500051005258
:10039000004F002B0014001A00090013000A002966
:1003A0000004001500160017000700E1001D001BE7
:1003B00000060019000500035DE000E200E3000113
:1003C0005D2C000D000F0018001C0033002A000BEC
:1003D00000110008000C00120034000E001000365E
:1003E000003700380028002C00025D5000510052F8
:1003F000004F002B0034003600370013001C00298A
:100400000004001200080018000C00E10033001482
:10041000000D000E001B00035DE000E200E30001A0
:100420005D2C0009000A00060015000F002A0007D5
:10043000000B001700110016003800050010001A0C
:100440000019001D0028002C00025D5000510052D0
:10045000004F0035021E021F022002210222024C20
:10046000003A003B003C003D003E00005C40004183
:1004700000420043004400010001000100010001AE
:10048000000100230224022502260227024C003F1D
:10049000002D022E022F023002310245003202648A
:1004A0000201000100010001000100AB00AA00A947
:1004B00000AE0035001E001F002000210022004C6D
:1004C000003A003B003C003D003E0001004000417E
:1004D000004200430044000100010001000100014E
:1004E000000100230024002500260027004C003FC7
:1004F000002D002E002F0030003100450032006436
:100500000001000100005C01000100AB00AA00A98D
:1005100000AE00000000000000000000000000002D
:1005200000000000000000000000000000000000CB
:1005300000000000000000000000000000000000BB
:1005400000000000000000000000000000000000AB
:10055000000000000000000000000000000000009B
:100930000000000100005C01000100010001000155
:1009400000010001001D5C1E5C135C010001000140
:10095000000100010001000100010001000100018F
:100960000001000100010001000100005C4C000AD0
:100970005CFE5CFF5C005D01000100010001000104
:10098000000100010001000100010001000100015F
:1009900000C35C00047F3F1F643214643214783C4F
:1009A0001E1E140A0505010980A10185031A810094
:1009B0002A8300160100260300950175108100C0EE
:1009C000050C0901A10185041A01002A9C021601E7
:1009D00000269C02950175108100C005010906A141
:1009E00001050719E029E715002501950875018122
:1009F000029501750881010507190029FF150026D8
:100A0000FF0095067508810005081901290595055F
:100A100075019102950175039101C009023B000225
:100A20000100A0FA090400000103010100092111DD
:100A30000100012240000705810308000A090401A2
:100A40000001030000000921110100012236000706
:100A500005820320000A120110010000000809129B
:100A6000E5BE02000102030104033000000024037C
:100A700056006900740061006D0069006E0073002B
:100A8000200069006E0063006C0075006400650062
:100A90006400000012034400750063006B006C00EA
:100AA00065003200390000000403090411241FBE50
:100AB000CFEFDAE0DEBFCDBF04B603FE27C08091E2
:100AC000CF069091D006A091D106B091D206873082
:100AD000904BA740B04BD1F41092CF061092D006A5
:100AE0001092D1061092D20614BE84B7877F84BFBD
:100AF0000FB6F894A895809160008861809360009B
:100B0000109260000FBEE0E0F8E3099526E0A0E750
:100B1000B5E001C01D92AF3CB207E1F715E0A0E0DF
:100B2000B1E0EEEFF4E602C005900D92A037B107F8
:100B3000D9F70E94D9260C947D320C940000E8ED80
:100B4000F0E080818E7F80831092E2001092DA00C4
:100B50001092E100A0EEB0E08C9181608C938081D6
:100B60008F77808319BCA7EDB0E08C918E7F8C933A
:100B700080818F7E80831092980608952091E400F2
:100B80003091E50085E69091EC0090FF06C09091D1
:100B9000E80090FF06C080E008959091E80092FD83
:100BA000FACF9091A606992391F0953091F090910B
:100BB000EB0095FD10C04091E4005091E500241732
:100BC000350709F381509A01F1F684E0089582E037
:100BD000089583E0089581E00895EF92FF920F93C6
:100BE0001F93CF937C018B010E94BE05C82F8111FA
:100BF00017C08091E80085FD0BC08091E8008E77DA
:100C00008093E8000E94BE05882399F3C82F08C08E
:100C1000F70181917F018093F1000150110949F79B
:100C20008C2FCF911F910F91FF90EF90089580919D
:100C3000A80687FF13C08091E80082FF06C080915C
:100C4000E8008B778093E80004C08091A6068111AC
:100C5000F2CF08958091A6068823D9F38091E80009
:100C600080FFF8CF8091E8008E77ECCF982F90939B
:100C7000E900242F762F50E0891731F07091EC00B5
:100C80002091ED005091F00021FD07C09F5F97304B
:100C900071F78093E90081E008953091EB003E7F89
:100CA0003093EB003091ED003D7F3093ED003091BB
:100CB000EB0031603093EB007093EC002093ED007B
:100CC0005093F0002091EE0027FDE0CF80E00895E2
:100CD000CF92DF92EF92FF920F931F93CF93DF9308
:100CE000C8EDD0E088818F7E8883E7EDF0E08081D9
:100CF0008160808384E082BF81E080939806888150
:100D00008E7F888302EE10E0F80110821092DA00E4
:100D100081EEC82ED12CF601108288818F778883CE
:100D200088818068888388818F7D888319BC109230
:100D3000A6061092A7061092A5061092A40690EEA1
:100D4000E92EF12CF70180818B7F8083888181607F
:100D5000888342E060E080E00E943606F6018081F0
:100D60008E7F8083F80180818160808380818860AC
:100D70008083F70180818E7F808388818061888372
:100D8000DF91CF911F910F91FF90EF90DF90CF9067
:100D90000895FC018091AE069091AF0686179707E3
:100DA000A0F06115710529F49091E8009E77909369
:100DB000E80090E06115710551F4911108C080912F
:100DC000E80082FF35C080E00895BC01F2CF809139
:100DD000A6068823C9F18530C9F18091E80083FD1A
:100DE00031C08091E80082FDEACF8091E80080FF69
:100DF000E1CF2091F3008091F200322F282F61156E
:100E0000710519F02830310558F091E0283031058E
:100E100009F090E02091E8002E772093E800CACFF7
:100E200081918093F100615071092F5F3F4FE7CFAF
:100E30008091A606882341F0853041F08091E8003A
:100E400083FFBDCF81E0089582E0089583E0089597
:100E50000895089580919B060895CF92DF92EF92B6
:100E6000FF920F931F932FB7F89440916C06509107
:100E70006D0660916E0670916F062FBF6A017B014F
:100E8000EE24FF248C0130E020E0C016D106E206FB
:100E9000F30650F0481B590BCA011F910F91FF90A8
:100EA000EF90DF90CF90089541505109F3CF2FB7C5
:100EB000F89480916C0690916D06A0916E06B091A9
:100EC0006F062FBF08958091670681111092670603
:100ED00008958091990690916606892B90916506F8
:100EE000892B8093700590916706992361F0892B77
:100EF00080937005E2E7F5E097E080E0915079F4A7
:100F000081110E946307E0917606F0917706309791
:100F100059F00280F381E02D80E795E0099421915A
:100F2000222361F38F5FEACF0895E0E7F5E0928135
:100F3000891301C01282319695E0E637F907B9F7B7
:100F40000895A2E7B5E0EFEF90E02D91821751F000
:100F5000EF3F19F4211101C0E92F9F5F9630A9F7E7
:100F6000EF3F09F408950E2E000CFF0BE059FA4FE5
:100F700082830895292F220F290F220F820F982F85
:100F8000977086958695869545E0849F90011124FB
:100F900070E060E080E0F901E60FF71FEA5BF94FCF
:100FA000408150E0092E02C0569547950A94E2F719
:100FB00041705527062E01C0440F0A94EAF7842B8E
:100FC0006F5F7F4F6530710531F70895292F220F2C
:100FD000920F990F890F982F977071E001C0770FCA
:100FE0009A95EAF786958695869525E0829FC001B9
:100FF000112450E040E0A62FB0E0FC01E40FF51F03
:10100000EA5BF94F60819D01042E02C03695279559
:101010000A94E2F72170219526272723262720838B
:101020004F5F5F4F4530510541F708958091450668
:1010300090911406981301C008958F5F8770FACFBE
:10104000882341F080959091990689238093990691
:101050000C9469070895882339F090919906892B9B
:10106000809399060C94690708952091F0053091BA
:10107000F1052817390771F09093F1058093F00579
:10108000E0917606F0917706309721F00084F185A3
:10109000E02D099408952091EE053091EF05281771
:1010A000390771F09093EF058093EE05E091760695
:1010B000F0917706309721F00680F781E02D0994B2
:1010C000089510926606109265060E94690790E0E6
:1010D00080E00E944B0890E080E00C94350860931B
:1010E000C9067093CA068093CB069093CC060C94E5
:1010F00061080F931F936091C9067091CA06809191
:10110000CB069091CC068B019C01087111272227F8
:101110003327083111052105310529F481601F911C
:101120000F910C946F088E7FFACF0F931F9341E0BD
:1011300050E060E070E004C0440F551F661F771F49
:101140008A95D2F7CB01BA016095709580959095FC
:101150000091C9061091CA062091CB063091CC06A9
:1011600060237123822393231F910F910C946F08A6
:10117000909164068095892380936406282F2770B8
:1011800071F4282F082E000C330B9217130639F038
:101190008595859585950E94950810926406089519
:1011A0000F931F9341E050E060E070E004C0440FF3
:1011B000551F661F771F8A95D2F78091C9069091B7
:1011C000CA06A091CB06B091CC068A019B01082BE0
:1011D000192B2A2B3B2BC901B8011F910F910C949D
:1011E0006F08609368067093690680936A0690930F
:1011F0006B060C946108E0917606F09177063097C3
:1012000021F00190F081E02D099480E00895882379
:1012100009F452C0823871F40E94FB0881FF4CC06F
:1012200089E30E94A1070E94690789E30E9495074C
:101230000C946907833859F40E94FB0880FF3CC076
:1012400083E50E94A1070E94690783E5EFCF8438F8
:1012500059F40E94FB0882FF2FC087E40E94A10777
:101260000E94690787E4E2CF9CEF980F913AF0F271
:1012700090E2980F983088F4877021E030E0A9015F
:1012800002C0440F551F8A95E2F7CA0180959091DC
:101290009906892380939906CBCF9BE5980F9330CD
:1012A00020F490E080E00C944B08885A873120F4B9
:1012B00090E080E00C94350808958091910680FFBD
:1012C00002C08695089580E0089580919106982F38
:1012D0009E7F29F4817082608093910608958A34FC
:1012E000E8F381708864F8CFAF92BF92CF92DF921B
:1012F000EF92FF920F931F93CF93DF93E82EF62E7A
:10130000E901E42FF0E0611113C0E25DFE4F44916A
:10131000E42F942F99834883EA83DF91CF911F9123
:101320000F91FF90EF90DF90CF90BF90AF90089516
:10133000062F10E026E0829FC00111242FEF30E03D
:10134000B9010E943E2E8E2D90E0880F991F55E521
:10135000569FD001579FB00D11248A1B9B0B582F0D
:10136000550F580FC901801B910B8E9FD0018F9F85
:10137000B00D9E9FB00D11248B2FF59E700111248E
:10138000EF2CFF246901CE18DF08CE9E7001CF9E9E
:10139000F00CDE9EF00C11249F2D5901A51AB10806
:1013A000A09E6001A19ED00CB09ED00C1124CD2C2B
:1013B000DD242C193D092E9F80012F9F100D3E9F8B
:1013C000100D11246230710529F158F46115710571
:1013D00079F06130710571F0E42F4B2F8F2D9E2F26
:1013E00009C064307105E9F0C0F066307105A1F7FD
:1013F000942F412FE92FF0E0E25DFE4F9491E42F0E
:10140000F0E0E25DFE4F4491E82FF0E0E25DFE4F38
:10141000E49180CF9B2F812FEDCF842F4F2D9B2FD9
:10142000E9CF912F842F4B2FE5CF9091730692FF38
:1014300006C0282F28712830F9F4877F846093FF35
:1014400006C0282F28712831F1F4877E846120910D
:10145000740620FF06C0382F38713830D9F4877FE2
:10146000816021FF06C0282F28712831D1F4877EA2
:10147000816194FD877E0895282F24712430F9F628
:101480008B7F8860DCCF282F2471243101F78B7E7D
:101490008861DDCF382F3171313019F78E7F886048
:1014A000E0CF282F2171213121F78E7E8861E1CF95
:1014B000CF93DF93972F70E026E0929F600D711D10
:1014C0001124FB0130E3839FE00DF11D1124EE0F89
:1014D000FF1FED5CFC4FC591D491CE01C238D10500
:1014E000B1F1E0F5C133D10509F498C048F5C9322E
:1014F000D10509F48CC0CA32D10509F496C0C115D2
:1015000040E5D40708F0C3C0C11550E4D50708F082
:10151000C4C1C83ED10508F09FC0C03ED10560F5EA
:10152000C83AD10508F088C0C53AD10508F010C105
:10153000C130D10509F108F443C02497E8F440C054
:10154000C533D10509F45CC0C933D105C1F620917A
:101550007306237089F080EE90E00EC0C33ED10583
:1015600091F168F4C03ED105F9F0C23ED10539F6DB
:101570002091730622FD20C0DF91CF910895C63ED1
:10158000D10561F1C73ED10581F1C43ED10509F015
:10159000B6CF2091740621FFEFCF8091730684FDB2
:1015A0000FC087EE90E0E8CF2091730620FDC4C104
:1015B0003091740630FFE0CF83EE90E024FFDCCF63
:1015C00090E080E0D9CF2091730622FDB8C1309120
:1015D000740630FDC0CF24FDF3CFCECF209173062B
:1015E00023FFCACF24FDECCFDCCF2091730623FD6F
:1015F000A9C13091740631FFEECF84EE90E0BCCFEC
:101600002091730625FFB8CF89E290E0B5CF2091F5
:10161000730625FFB1CF85E390E0AECF209173062E
:1016200026FFAACF8AE290E0A7CF2091730626FF7B
:10163000A3CF81E390E0A0CFCF3BD10508F497C0C2
:10164000C03CD10508F4BCCFFE01EE0FFF1FE255F0
:10165000F0408591949190CFC11520E2D20760F4BB
:10166000C11531E0D30708F087CFCE019065C03FA8
:10167000D10508F081CFA4CFC11540E3D40708F409
:1016800003C1CE019927D3FF06C1986C75CFC11550
:1016900055E5D50760F5C11584E5D80708F02FC1D9
:1016A000C11592E5D90750F4C11521E5D20708F418
:1016B000F8C09C2F8827816F906A5ECF9C2F9695EB
:1016C0009695AE0143705527C115D34508F408C15E
:1016D00021E030E002C0220F331F4A95E2F750E2CA
:1016E000959FC0011124822B932B9A6845CFC11579
:1016F00049E5D407A0F4C11558E5D50708F004C1A1
:10170000C11586E5D80708F05BCF8C2F0E94150A1B
:1017100090E0982F882788279F7190622DCFC11560
:101720009AE5D90708F4F5C0CE019056811590428C
:1017300008F046CF8D2F8F710E94150A282F30E0B8
:10174000322F222722273F71CE0199279062C5C0F0
:1017500081E890E4C53AD10509F40ECF83E890E41E
:10176000C63AD10509F008CF82E890E405CF82EEB1
:1017700094E4C83AD10509F4FFCE89EE94E4C93A5D
:10178000D10509F4F9CE8AEE94E4CA3AD10509F4F8
:10179000F3CE85EB94E4CB3AD10509F4EDCE86EB9C
:1017A00094E4CC3AD10509F4E7CE83EB94E4CB3B47
:1017B000D10509F4E1CE84EB94E4CC3BD10509F4E6
:1017C000DBCE87EB94E4CD3AD10509F4D5CE8CEC91
:1017D00094E4C03BD10509F4CFCE8DEC94E4CE3A2D
:1017E000D10509F4C9CE83E895E4CF3AD10509F4CF
:1017F000C3CE8AE895E4C13BD10509F4BDCE82E9A8
:1018000095E4C23BD10509F4B7CE84E995E4C33B26
:10181000D10509F4B1CE81E296E4C43BD10509F4C7
:10182000ABCE83E296E4C53BD10509F4A5CE84E2B4
:1018300096E4C63BD10509F49FCE85E296E4C73B0A
:10184000D10509F499CE86E296E4C83BD10509F4A6
:1018500093CE87E296E4C93BD10509F48DCE8FE69D
:1018600094E4CD3BD10509F487CE80E794E4CE3BE8
:10187000D10509F481CE8AE296E4CA3BD10509F488
:101880007BCE80E094E478CEFE01FF70EE0FFF1F68
:10189000E25DFE4FDECE906C6FCECE019F70906AFF
:1018A0006BCE9E0174E0369527957A95E1F723700B
:1018B0003C2F337081E090E002C0880F991F3A9569
:1018C000E2F79C68AC01522B9A018C2F8695869585
:1018D000837050E2859FC0011124822B932B4CCE44
:1018E00021E030E002C0220F331F4A95E2F740E2C8
:1018F000949FC0011124822B932B9C683DCE9C2F7A
:101900008827846F906A38CE9C2F8827806F906AD2
:1019100033CE8C2F8F700E94150AFE0194E0F6954D
:10192000E7959A95E1F7EF70F0E0FE2FEE27F0696A
:101930009F01282BC90120CE89E390E01DCE82EEC5
:1019400090E01ACE86EE90E017CEBF92CF92DF9253
:10195000EF92FF920F931F93CF93DF938C01C09070
:10196000C906D090CA06E090CB06F090CC068091D4
:10197000680690916906A0916A06B0916B06C82A24
:10198000D92AEA2AFB2ACFE1D0E0BC2ED701C60132
:101990000C2E04C0B695A795979587950A94D2F713
:1019A00080FD0EC0219788F7B12C8B2DDF91CF9150
:1019B0001F910F91FF90EF90DF90CF90BF9008950F
:1019C000B8018C2F0E94580A019761F3EECFCF9394
:1019D000DF93EC010E94A50CBE01DF91CF910C9426
:1019E000580A0E94E70C292F2F70E92FE295EF701B
:1019F000E250EE30E0F4F0E0E050F34F0C94662E4D
:101A00000E0D0E0D170D170D190D170D170D170DC6
:101A10000E0D0E0D1E0D170D170D1E0D803F19F02A
:101A200020F4883E20F481E00895843FE1F380E0D3
:101A30000895883EC0F3813FD1F7F5CF822F869578
:101A4000869586950895CF9384E090E00E946C2E51
:101A5000C82F81E290E00E946C2E982F8C2FCF919E
:101A60000895CF93DF9300D01F92CDB7DEB79C01CE
:101A700090917006911129C08091A606843049F595
:101A800084E089833B832A8382E08093E9008FEF9F
:101A90009091E800815095FD06C095ED9A95F1F77B
:101AA00000008111F5CF8091E80085FF12C050E061
:101AB00040E063E070E0CE0101960E94ED05809168
:101AC000E8008E778093E80004C09230C9F2943029
:101AD000B9F20F900F900F90DF91CF910895CF93AF
:101AE000DF9300D01F92CDB7DEB72091A606243039
:101AF00031F523E02983805891099B838A8382E012
:101B00008093E9008FEF9091E800815095FD06C029
:101B100095ED9A95F1F700008111F5CF8091E800DD
:101B200085FF0DC050E040E063E070E0CE0101961B
:101B30000E94ED058091E8008E778093E8000F9079
:101B40000F900F90DF91CF910895CF93DF93EC0129
:101B500080917006811107C08091A606843029F01B
:101B6000DF91CF9108958230C9F781E08093E90039
:101B70008FEF9091E800815095FD06C095ED9A9504
:101B8000F1F700008111F5CF8091E80085FFE8CFE3
:101B900050E040E068E070E0CE010E94ED058091E9
:101BA000E8008E778093E80088E0FE01ACE9B6E0BB
:101BB00001900D928A95E1F7D3CF882309F402C1F1
:101BC0008238B9F40E94FB0881FDFCC089E30E94C1
:101BD000A1070E9469072FEF81EE94E02150804019
:101BE0009040E1F700C0000089E30E9495070C9443
:101BF00069078338A1F40E94FB0880FDE3C083E5F8
:101C00000E94A1070E9469072FEF81EE94E0215006
:101C100080409040E1F700C0000083E5E6CF8438C3
:101C2000A1F40E94FB0882FDCDC087E40E94A107B9
:101C30000E9469072FEF81EE94E021508040904090
:101C4000E1F700C0000087E4D0CF9CEF980F913AF5
:101C500018F40E94A107CBCF90E2980F983068F457
:101C6000877021E030E001C0220F8A95EAF7809169
:101C70009906822B80939906BACF9BE5980F9330F3
:101C800070F4853A31F0863A39F083E890E00C94AC
:101C90004B0881E890E0FBCF82E890E0F8CF98E530
:101CA000980F973108F08EC0883A09F446C0893AF7
:101CB00009F446C08A3A09F446C08B3A09F446C092
:101CC0008C3A09F446C08B3B09F446C08C3B09F4BE
:101CD00046C08D3A09F446C0803B09F446C08E3AAE
:101CE00009F446C08F3A09F446C0813B09F446C066
:101CF000823B09F446C0833B09F446C0843B09F4A7
:101D000046C0853B09F446C0863B09F446C0873B84
:101D100009F446C0883B09F446C0893B09F446C033
:101D20008D3B09F446C08E3B09F446C08A3B09F45A
:101D300046C090E080E00C94350882EE90E0FBCF46
:101D400089EE90E0F8CF8AEE90E0F5CF85EB90E059
:101D5000F2CF86EB90E0EFCF83EB90E0ECCF84EB1B
:101D600090E0E9CF87EB90E0E6CF8CEC90E0E3CF1A
:101D70008DEC90E0E0CF83E891E0DDCF8AE891E060
:101D8000DACF82E991E0D7CF84E991E0D4CF81E244
:101D900092E0D1CF83E292E0CECF84E292E0CBCF4B
:101DA00085E292E0C8CF86E292E0C5CF87E292E07A
:101DB000C2CF8FE690E0BFCF80E790E0BCCF8AE251
:101DC00092E0B9CF08950F931F93CF93DF93C62F5F
:101DD000D42F022FFC0182818823A1F060930C068E
:101DE0000E9457079093ED058093EC05C77081E042
:101DF00001C0880FCA95EAF7DF91CF911F910F912B
:101E00000C942B0810910C06161338C08091EC0529
:101E10009091ED050E942D07883C910578F5C0E270
:101E2000CD0F1D17B9F080E2810F883040F4177094
:101E300081E001C0880F1A95EAF70E942008C83097
:101E400020F581E09D2F977001C0880F9A95EAF7E1
:101E50000E942B08802F0E94DD0D802F0E94070911
:101E6000C830E8F4D77081E001C0880FDA95EAF74E
:101E7000DF91CF911F910F910C942008C77081E0E2
:101E800001C0880FCA95EAF7F3CF802F0E94DD0DBD
:101E9000802FDF91CF911F910F910C940709DF9153
:101EA000CF911F910F9108958091910680FD0AC0F6
:101EB000E8ECF5E0118210821282339635E0EC3EB8
:101EC000F307C1F7809A81B38E7F91B391602FB7EA
:101ED000F894E8ECF5E035E0EC3EF30741F42FBF71
:101EE00087EC90E00197F1F700C000000895319170
:101EF00048E091BB000000C037FF81BB330F0000FA
:101F000000C000C000C081BB00C04A9591F7E3CF7C
:101F1000EF92FF920F931F93CF93DF938C01C8EC46
:101F2000D5E0F12CE12CF801948160919306809129
:101F30009206F6E0EF16F104FCF49923F9F09E0105
:101F4000409194060E9474092FEFE21AF20A239638
:101F50008CE0E816F10439F70E94540FF8018481EF
:101F600090E00196817099278483DF91CF911F9132
:101F70000F91FF90EF900895992309F39E0140E09F
:101F8000E1CFEF92FF921F93CF93DF93EC0188ECA8
:101F9000E82E85E0F82E10E08C81970140919406A0
:101FA00060919306810F0E9474091B5E83E0E80E26
:101FB000F11C1C3F89F70E94540F9A818C8190FF7D
:101FC00008C08F5F8C83DF91CF911F91FF90EF90BE
:101FD00008958150F7CFCF92DF92EF92FF920F9347
:101FE0001F93CF93DF93FC018281DD24DA9480FD7F
:101FF00002C0DD24D39408EC15E0D0E0C0E0F80185
:1020000011821082128294E0E92EF12CC12C809171
:10201000C5058C0D87FD845F082E000C990BC81731
:10202000D90791F4809194068E9DA0018F9D500D4B
:1020300011245595479555954795980160919306BC
:10204000809192060E947409CD0CF1E0EF1AF1081C
:10205000F1F621960D5F1F4FCC30D10581F60E941D
:10206000540F8091C50591E0D91210C081110CC0A8
:102070008BE08093C505DF91CF911F910F91FF9069
:10208000EF90DF90CF9008958150F3CF90E00196CC
:10209000BE010E94522EEDCF0F931F93CF93DF937B
:1020A000C8ECD5E0FE01118210821282339685E0E1
:1020B000EC3EF807C1F710E000E08091C605082E5D
:1020C000000C990B081719078CF180918903082ED1
:1020D000000C990B801791074CF19E0140919406DA
:1020E00060919306809192060E9474090F5F1F4FC2
:1020F00023960C30110509F70E94540F8091880334
:102100009091C605980F9093C60520918903280FDA
:1021100020938903121614F49B301CF08195809350
:102120008803DF91CF911F910F9108951982188232
:102130001A82DCCFEF92FF920F931F93CF93DF931E
:10214000EC018C819D810196817099279D838C8300
:1021500088ECE82E85E0F82E10E005E5812F8695C5
:102160002C813D81820F932F911D817097014091A9
:10217000940660919306809F802D11240E9474091B
:102180001F5F83E0E80EF11C1C3041F7DF91CF9117
:102190001F910F91FF90EF900C94540F9091910626
:1021A00090FF0CC0E8ECF5E08183608342833396B6
:1021B00095E0EC3EF907C1F70C94540F08950F9386
:1021C0001F93CF93DF9300D01F92CDB7DEB78C0162
:1021D0008091C70581110AC09E012F5F3F4F4FEFCD
:1021E0006FEF0E9474098A818093C705F80184818A
:1021F000813069F038F04091C705823009F040E045
:1022000080E003C08091C70540E060E004C06091B9
:10221000C70540E080E00E94CE10F801848190E084
:10222000019663E070E00E94522E84830F900F901D
:102230000F90DF91CF911F910F910895CF93DF936E
:1022400000D01F92CDB7DEB79091910690FF0AC0E3
:102250009E012F5F3F4F0E9474094B8169818A81E3
:102260000E94CE100F900F900F90DF91CF910895A4
:10227000CF93DF93EC01EC81F0E0ED5CFD4F4491F6
:10228000E1E9F6E0628181810E941E118C818F5FFD
:102290008C83DF91CF910895CF93DF93EC01E1E937
:1022A000F6E0438162818C810E941E118C818F5FD8
:1022B0008C83DF91CF91089580918505811110C0A5
:1022C0008091D80080618093D8008AE18A95F1F7E7
:1022D00000C08091D90080FD0AC082E0809385050E
:1022E00081E090918505913009F080E0089581E0CA
:1022F000F5CF90E080E00E947A2E21E08C3E9E4F48
:1023000009F020E0822F0895CF92DF92EF92FF92A2
:102310006B017C010E946509B701A60188E090E08D
:10232000FF90EF90DF90CF900C94922E5F926F927F
:102330007F928F929F92AF92BF92CF92DF92EF9255
:10234000FF920F931F93CF93DF9300D01F92CDB7CF
:10235000DEB7182F762E042F622E9091910690FFF3
:1023600029C0E92FE695AE2FB0E0A45CBA4F8C915E
:10237000809396069E7F923081F59E012F5F3F4F9E
:10238000812F0E9474094B8169818A810E94CE103D
:10239000109392067092930600939406662051F073
:1023A00060919106709192068091930690919406A7
:1023B0000E9484110F900F900F90DF91CF911F9189
:1023C0000F91FF90EF90DF90CF90BF90AF909F90D4
:1023D0008F907F906F905F900895823019F40091F4
:1023E0009406D6CF863019F410919206D1CF893059
:1023F000D9F3893169F6E9518E2F8170582EE6950F
:10240000F0E0E25DFD4FA590B490BB2488ECE82E8F
:1024100085E0F82ED12CC12C9CE0892E912CC60190
:10242000B4010E943E2E812F511013C0860F9701D8
:10243000402F672D0E947409CA0CDB1C83E0E80E54
:10244000F11C8CEEE81685E0F80649F70E94540F5F
:102450009FCF861BECCFE1E9F6E083E08083118219
:102460008FEF828383831482608171818281938163
:102470000C9484116CEE7EEF90E080E00E949E2E22
:1024800060E082E090E00E94802E60E083E090E0D7
:102490000E94802E109268061092690610926A06B9
:1024A00010926B0660E084E090E00E94802E60E075
:1024B00081E290E00E94802E60E085E090E00E9442
:1024C000802E60E086E090E00E94802E6FEF87E033
:1024D00090E00E94802E40E050E0BA0188E090E059
:1024E0000E94922E60E08DE090E00E94802E40E0FD
:1024F00050E0BA0188E190E00E94922E60E087E10E
:1025000090E00E94802E40E050E0BA018CE190E023
:102510000E94922E60E080E290E00E94802E40E0D7
:1025200050E0BA018FE090E00E94922E40E050E02F
:10253000BA0183E190E00C94922E0E9479118111EE
:1025400002C00E943A1287E090E00E946C2E8093B5
:10255000C7068091C806811129C03E9A80917100FA
:102560008D7F8093710082E0809390008AE1809358
:10257000910081EC91E1909397008093960023EA7B
:102580003BE04EE855E46091980270919902809189
:102590009A0290919B020E947E300E94982F709325
:1025A00099006093980081E08093C8068091C706E7
:1025B00080FF06C063E070E080E892E00C941013A6
:1025C00008958091C806811102C00E949D12109248
:1025D000C4051092C305809171008D7F80937100B6
:1025E000809190008F73809390001092C506109296
:1025F000C6061092990510929A0510929B051092AA
:102600009C05EDE9F5E0A6E8B5E011921192119272
:1026100011921D921D9285E0ED3BF807B1F70895E8
:102620000F931F93CF93DF93EC018B018091C8062A
:10263000811102C00E949D128091C70680FF4FC089
:10264000809171008D7F809371008091C606811109
:102650000E94E11281E08093C506D093C406C09326
:10266000C3061093C2060093C1061092C0061092D2
:10267000BC061092BD061092BE061092BF061092C4
:10268000BB061092BA0688819981AA81BB8180938A
:10269000B6069093B706A093B806B093B90620E0AB
:1026A00030E040E85EE36C817D818E819F810E94F5
:1026B0007E306093B2067093B3068093B406909315
:1026C000B5061092B1061092B0068091710082603A
:1026D0008093710080919000806880939000DF91DA
:1026E000CF911F910F91089581E080930A0668E0D1
:1026F00070E08DE393E00C94101381E080930B065F
:1027000068E070E08DEB92E00C9410136091C706C6
:1027100061606093C70687E090E00E94802E62E0CF
:1027200070E08DE992E00C941013CF93DF93C82FE3
:1027300020E8829FC001112460E170E080509F4F2B
:102740000E94101361E070E0CB0102C0880F991F56
:10275000CA95E2F7EC01682F83E090E00E94802E9A
:10276000BE0190E080E0DF91CF910C94F108809160
:102770000B0681110C94E11208950E94B713109278
:102780000B0668E070E08DEF92E00C94101362E0AD
:1027900070E08DEA92E00E9410132FEF81EE94E03A
:1027A000215080409040E1F700C000000E94E112FB
:1027B0006091C7066E7F6093C70687E090E00C9437
:1027C000802EE2E7F5E086E0DF011D928A95E9F7C9
:1027D0000C9461081F93CF93DF93CDB7DEB7AA9710
:1027E0000FB6F894DEBF0FBECDBFE8EAF6E08091E9
:1027F000F100819326E0E03BF207C9F78091A9063A
:10280000833009F47CC008F5813009F453C082306C
:1028100009F4BFC08091E80083FFF9C08091A80649
:102820009091A9069A3008F0F2C0E92FF0E0E55E39
:10283000FB4E0C94662EDA140015071500150715CB
:102840005E15801507158A1697168A3009F490C010
:102850008B3009F471C08930E9F68091A806813285
:10286000C9F68091AC069091AD06029798F68091DA
:10287000E800877F8093E8008091E80082FF3AC0FB
:102880008091F3009091F200892798278927029779
:1028900029F48091F1008B7F813021F48091F10047
:1028A00080939B068091E8008B778093E8000E94DC
:1028B0001706B0CF8091A806813A09F0ABCF80917E
:1028C000E800877F8093E8008091AC069091AD0688
:1028D000892B61F060E090E080E070E00E94C90622
:1028E0008091E8008B778093E80094CF68E08CE9D2
:1028F00096E0F3CF8091A6068111BECF8BCF809159
:10290000A806813A09F086CF8091AC069091AD0679
:10291000892B09F07FCF8091E800877F8093E800C2
:102920008091E80080FFFCCF809118058093F10032
:102930008091E8008E77B9CF8091A806813209F0A6
:1029400069CF8091AC069091AD06892B09F062CFDA
:102950008091E800877F8093E8000E9417068091AD
:10296000AA0680931805109299060E94E11352CF8F
:102970008091A806813209F04DCF8091E800877FD1
:102980008093E8000E9417068091AB0680939A0618
:1029900041CF8091A806813A09F03CCF8091E800B0
:1029A000877F8093E8008091E80080FFFCCF8091D2
:1029B0009A06BCCF803889F0823849F58091AC0600
:1029C0008F70873020F58093E9008091EB0085FBC4
:1029D000882780F91092E90006C08091A4069091A2
:1029E000A506911182609091E800977F9093E8008E
:1029F0008093F1001092F1008091E8008E772DC055
:102A0000282F2D7F21F48823D1F0823059F1809135
:102A1000E80083FF0AC08091E800877F8093E80088
:102A20008091EB0080628093EB00AA960FB6F89439
:102A3000DEBF0FBECDBFDF91CF911F910895809172
:102A4000AA06813021F7933009F080E08093A50633
:102A50001092E9008091E800877F8093E8000E944F
:102A60001706D5CF8091AA068111F2CF8091AC06CE
:102A70008F702FEF280F263050F68093E9002091B9
:102A8000EB0020FFE5CF933031F48091EB008062C2
:102A90008093EB00DDCF9091EB0090619093EB0081
:102AA00021E030E001C0220F8A95EAF72093EA0086
:102AB0001092EA008091EB008860EACF8111A7CFE5
:102AC0001091AA061F778091E3008078812B809374
:102AD000E3008091E800877F8093E8000E9417065A
:102AE0008091E80080FFFCCF8091E30080688093B4
:102AF000E30083E0111101C082E08093A60687CF36
:102B00008058823008F083CF8091AA069091AB065E
:102B10008C3D23E09207A1F583E08A838AE28983D2
:102B20004FB7F894DE01139620E03EE051E2E32F28
:102B3000F0E050935700E49120FF03C0E295EF705E
:102B40003F5FEF708E2F90E0EA30C0F0C7968D9314
:102B50009D932F5F243159F74FBF8091E800877F05
:102B60008093E8006AE270E0CE0101960E94C906F7
:102B70008091E8008B778093E80049CFC096E7CF3B
:102B80004091AC065091AD06292F332723303105F3
:102B900009F444C078F52130310509F479C08BE39C
:102BA00090E0EBE1FAE02230310509F030CF2091DE
:102BB000E800277F2093E8002091AE063091AF0611
:102BC0008217930708F49C0140E02115310509F0B4
:102BD0006EC041116CC08091E80082FDC9CF809128
:102BE000A606882329F2853019F28091E80083FF38
:102BF000F2CFBECF2132310509F43EC02232310579
:102C000009F005CF4115510509F44CC086E390E069
:102C1000E5EAF9E04130510551F2F9CE99278130CA
:102C20009105D1F070F082309105F1F0039709F031
:102C3000EECEE8E6FAE0E4918E2F90E0E8E6FAE0E6
:102C400007C0E8EAFAE0E4918E2F90E0E8EAFAE0C3
:102C5000009709F4DCCEABCFE4E9FAE0E4918E2FE3
:102C600090E0E4E9FAE0F4CFEEE6FAE0E4918E2FAA
:102C700090E0EEE6FAE0ECCF4115510571F089E005
:102C800090E0E6E4FAE04130510509F490CFBFCE80
:102C900082E190E0E6E5FAE08ACF89E090E0EDE2BB
:102CA000FAE085CF80E490E0EBEDF9E080CF809111
:102CB000A606882309F45CCF853009F459CF8091AA
:102CC000E80083FD55CF8091E80082FD84CF80919C
:102CD000E80080FF7ACF8091F3009091F20089277D
:102CE000982789272115310519F08830910550F072
:102CF00041E0089709F040E08091E8008E778093EA
:102D0000E80063CF44914093F1003196215031099E
:102D10000196E8CF803809F07ACE8091E800877F6D
:102D20008093E8008091A7068093F10065CE811121
:102D30006ECE1091AA06123008F069CE8091E8009C
:102D4000877F8093E8001093A7060E94170611233F
:102D500071F084E08093A60642E061EC81E00E947D
:102D6000360642E261EC82E00E94360650CE809147
:102D7000E30087FDEECF81E0EDCF9091910690FFCB
:102D80003DC09170811129C0926090939106662395
:102D900051F0609191067091920680919306909106
:102DA00094060E94841160919106669570E04BE054
:102DB00050E08DE793E00E947032892BA9F01092C9
:102DC000970681E080938E0620E040919406609102
:102DD0009306809192060C949611853210F09864B7
:102DE000D4CF880F982BD1CF81E0809397060E9493
:102DF000570790938C0680938B06E3CF089561E08C
:102E00000C94BD16809191068695815009F484E258
:102E100061E00C94BD168091910686958F5F853296
:102E200008F081E061E00C94BD16CF92DF92EF9242
:102E3000FF928554990BBC01990F880B990B0E9446
:102E4000C92F20E030E040E451E40E94262F9B018E
:102E5000AC0160E070E080E090E40E94EB306B0138
:102E60007C018091C806811102C00E949D12809150
:102E7000C70680FF52C08091C3059091C405089792
:102E80000CF04BC0809171008D7F80937100809118
:102E9000C50681110E94E11220E030E04CED53E4C0
:102EA000C701B6010E947E306B017C0181E08093F6
:102EB000C606109298051092970520E030E0A9010F
:102EC000C701B6010E9479301816ECF48091C30551
:102ED0009091C405FC01EE0FFF1FEE0FFF1FE3569C
:102EE000FA4FC082D182E282F382FC01EE0FFF1F13
:102EF000EA57FA4F2FE030E0318320830196909318
:102F0000C4058093C3058091710082608093710035
:102F100080919000806880939000FF90EF90DF9008
:102F2000CF900895CF92DF92EF92FF920F931F936D
:102F3000CF93DF938554990BBC01990F880B990BA4
:102F40000E94C92F20E030E040E451E40E94262F87
:102F50009B01AC0160E070E080E090E40E94EB3007
:102F60006B017C018091C606882309F464C08091BE
:102F7000C806811102C00E949D1220E030E04CED95
:102F800053E4C701B6010E947E306B017C010DE95C
:102F900015E0C7E0D0E0A7019601F801648D758DBA
:102FA000868D978D0E94212F81115FC0FE01EE0F4B
:102FB000FF1FEE0FFF1FE356FA4F1082118212829D
:102FC0001382CC0FDD1FCA57DA4F1982188285E0B1
:102FD000E93BF807C9F58091C3059091C4050197B5
:102FE00097FD4BC09093C4058093C3058091C305A2
:102FF0009091C4052091BD053091BE052817390771
:1030000024F01092BE051092BD05892BA1F4809189
:1030100071008D7F80937100809190008F738093F9
:1030200090001092990510929A0510929B051092AB
:103030009C051092C606DF91CF911F910F91FF90D2
:10304000EF90DF90CF90089584819581A681B7811C
:1030500081939193A193B193108211821282138272
:103060008A819B8189939993B0CF2197045011094C
:10307000CF3FDC0709F08FCFAECF1092C40510927E
:10308000C305B4CF8F929F92AF92BF92CF92DF923F
:10309000EF92FF920F931F93CF93DF93CDB7DEB7DD
:1030A000A8970FB6F894DEBF0FBECDBF7C01DC0140
:1030B0001C911196DC90119713968D919C91892B00
:1030C00041F0BFEFDB1203C081E01F3F19F080E049
:1030D00001C081E0E82FE170CE2E80FD6DC285E059
:1030E000F701DE01949601900D928A95E1F7D701E0
:1030F00012962C918CA19DA1222309F449C00E9413
:10310000A50C082F682F8CA19DA10E94E607E12F36
:10311000F0E0B6E0DB9EE00DF11D112420E3029FFC
:10312000E00DF11D1124EE0FFF1FED5CFC4F05912A
:10313000149101154DE5140709F475C068F50E3FAB
:103140009CE5190709F44DC00F3FACE51A0709F4D7
:1031500063C00D312CE5120709F0AAC0D701129601
:103160008C91882309F49DC1A8960FB6F894DEBF10
:103170000FBECDBFDF91CF911F910F91FF90EF90C8
:10318000DF90CF90BF90AF909F908F900C9486135C
:103190000E94BA07082FBBCF0230BDE51B0709F418
:1031A00069C008F448C00330FDE51F0791F6F70138
:1031B0008281882309F467C080E1A8960FB6F8944D
:1031C000DEBF0FBECDBFDF91CF911F910F91FF905A
:1031D000EF90DF90CF90BF90AF909F908F900C9426
:1031E000D008D70112968C91882309F4E5C180E0BC
:1031F000A8960FB6F894DEBF0FBECDBFDF91CF917A
:103200001F910F91FF90EF90DF90CF90BF90AF9004
:103210009F908F900C949513F7018281882309F475
:10322000CBC181E0E5CFD70112968C91882309F4B8
:10323000C3C182E0DDCFF7018281882321F083E0E2
:103240000E94D00803C083E00E949508A8960FB69C
:10325000F894DEBF0FBECDBFDF91CF911F910F91CC
:10326000FF90EF90DF90CF90BF90AF909F908F90A6
:103270000C947908D70112968C91882311F084E080
:10328000DFCF84E0E1CF80E1A8960FB6F894DEBFEF
:103290000FBECDBFDF91CF911F910F91FF90EF90A7
:1032A000DF90CF90BF90AF909F908F900C94950837
:1032B0000E31BCE51B07C9F4F7018281882309F4AC
:1032C000F0C0A8960FB6F894DEBF0FBECDBFDF9159
:1032D000CF911F910F91FF90EF90DF90CF90BF9013
:1032E000AF909F908F900C94C7130F31FCE51F0790
:1032F00059F4D70112968C91882309F4D2C0809199
:10330000C70680FDDECF30CF0A32BCE51B07F9F4DB
:10331000F7018281882309F4C4C01092F20564E0A9
:1033200070E08AE893E0A8960FB6F894DEBF0FBE6F
:10333000CDBFDF91CF911F910F91FF90EF90DF9064
:10334000CF90BF90AF909F908F900C9410130B3242
:10335000FCE51F0721F4D70112968C91DBCF0632D2
:10336000BCE51B07C9F4F7018281882309F499C0E1
:10337000A8960FB6F894DEBF0FBECDBFDF91CF91F8
:103380001F910F91FF90EF90DF90CF90BF90AF9083
:103390009F908F900C947D130732FCE51F07D1F4AA
:1033A000D70112968C91882309F47BC0A8960FB69A
:1033B000F894DEBF0FBECDBFDF91CF911F910F916B
:1033C000FF90EF90DF90CF90BF90AF909F908F9045
:1033D0000C94BD130832BCE51B0751F4F701828140
:1033E000882309F45EC080910B068111DFCFC0CF26
:1033F0000C32FCE51F07D1F4D70112968C9188237B
:1034000009F44FC0A8960FB6F894DEBF0FBECDBF2B
:10341000DF91CF911F910F91FF90EF90DF90CF90B0
:10342000BF90AF909F908F900C9474130D32BCE5B9
:103430001B0759F4F7018281882399F110920A063B
:1034400068E070E08AEA93E06ECF0E32FCE51F0779
:1034500051F4D70112968C91882319F180910A06B4
:103460008111ECCFCFCF0932BCE51B07D1F4F701B6
:1034700082818823B1F00E94B71320918A0430E042
:103480002F5F3F4F2370332720938A0448E2429FE7
:10349000C001439F900D112465E070E086519C4F60
:1034A00042CF20910B06211173C080910A06811131
:1034B0006FC0003FFCE51F0709F441C130F5083D2E
:1034C0004CE5140709F437C1093D8CE5180709F4E8
:1034D00042C1073D9CE5190731F526E241EE61EE58
:1034E000C701A8960FB6F894DEBF0FBECDBFDF911F
:1034F000CF911F910F91FF90EF90DF90CF90BF90F1
:10350000AF909F908F900C94E30E023FACE51A07AA
:1035100009F41DC108F417C127E245EE66EE033F2A
:10352000ECE51E07E9F2D70112968C91882309F485
:1035300070C610920C060B3CBCE51B0709F4A6C232
:1035400008F03DC1033CFCE51F0709F44DC208F03B
:103550000FC106314CE5140708F000C102309CE5AC
:10356000190708F077C10115ACE51A0709F4C5C1C0
:1035700001301C4509F403C2D7010D911C91C8010B
:103580000E94A50CD82E682FC8010E94E60768C6C5
:10359000D70112963C91332309F45CC0003E11051B
:1035A000F1F40E94B71381E0809309061092080697
:1035B0001092070610920606A8960FB6F894DEBF82
:1035C0000FBECDBFDF91CF911F910F91FF90EF9074
:1035D000DF90CF90BF90AF909F908F900895023E64
:1035E000110571F40E94B71380910906882319F020
:1035F00081E0809308061092090610920706DCCF3E
:10360000033E110591F480910806882319F10E9468
:10361000B7131092090681E0809307061092050601
:103620001092040610920306C7CF80918B049091EC
:103630008C040A970235110541F00135110551F44A
:1036400080918B0490918C040A9690938C048093C3
:103650008B04B2CF80918A0481110EC0F7014181A1
:1036600088E090E0841B9109D080F0E1DF0E4CE00F
:10367000849FD00C112411C0813051F5D7011196CF
:103680004C91119788E090E0841B9109D82EDD0CB5
:10369000DD0CD80E8C918D5CD80E332309F445C017
:1036A000222319F08D2D0E94151780910906882379
:1036B00051F080910606E82FF0E0ED50FA4FD082ED
:1036C0008F5F809306060F3F110508F0F2CE74CF8E
:1036D000823059F4F701418188E090E0841B910920
:1036E000D080F3E3DF0E47E0C3CF4CE0D42E83302D
:1036F000A1F683E2E9E1F5E0DE01119601900D9279
:103700008A95E1F7D701EC91EC0FFD2FF11D119691
:103710004C9188E090E0841B9109D084BCE08B9FA1
:10372000D00C1124E9E0DE0EB8CF222361F28D2DFA
:103730000E949217C8CF27E245EE65EED1CE26E271
:1037400041EE60EECDCE27E245EE64EEC9CE26E234
:1037500041EE62EEC5CE28E241E0EFCF0631ECE566
:103760001E0709F4DEC2023C1C4509F425CF04CF34
:10377000073C2CE5120709F41FCF08F01DCF053CCC
:103780008CE5180709F418CF08F016CF8091990638
:10379000827209F42EC1A8960FB6F894DEBF0FBE50
:1037A000CDBFDF91CF911F910F91FF90EF90DF90F0
:1037B000CF90BF90AF909F908F900C940B17033DCC
:1037C000ACE51A0709F4A7C110F50F3CECE51E079C
:1037D00009F489C170F40D3C2CE5120709F479C194
:1037E00008F079C180919506882309F456C181506B
:1037F00052C1013D8CE5180709F47DC108F083C171
:103800000E945D098950853030F289E0D9C00D3DB4
:10381000ACE51A0709F48BC188F4053DECE51E07F9
:1038200009F483C108F479C10C3D1C4509F0A4CE0C
:10383000882309F4C1CE10927006BECE0E3D4CE531
:10384000140709F4A5C09801275F3C4527303105CE
:1038500008F092CE882309F4FCC40E9479118111EA
:1038600002C00E943A120E94230D90937406809326
:1038700073060F302CE5120709F42AC208F09BC129
:1038800008308CE5180709F408C208F067C1043055
:10389000ACE51A0709F4F5C108F04DC10230ECE5BA
:1038A0001E0709F4EAC180917306826003301C454B
:1038B00009F499C1609173061091740684E090E058
:1038C0000E94802E612F81E290E00E94802E109253
:1038D0009906A8960FB6F894DEBF0FBECDBFDF9154
:1038E000CF911F910F91FF90EF90DF90CF90BF90FD
:1038F000AF909F908F900C94E113109299060E94C4
:10390000E1130E94B7130E9457078C0163E070E037
:103910008DE894E00E941013C8010E942D078A3F91
:10392000910530F10E94E11281E08093E00080E295
:103930008093D8001092C900AFE1BEE41197F1F76F
:1039400000C0000087E090EBDC018093CF069093ED
:10395000D006A093D106B093D20688E19CE00FB6C2
:10396000F894A895809360000FBE90936000FFCFFD
:103970008FE99FE00197F1F700C00000CDCF909153
:103980008206892F8E7F90FF81608093820614CEFD
:10399000A8960FB6F894DEBF0FBECDBFDF91CF91D2
:1039A0001F910F91FF90EF90DF90CF90BF90AF905D
:1039B0009F908F900C943A12816080939106869527
:1039C000A8960FB6F894DEBF0FBECDBFDF91CF91A2
:1039D0001F910F91FF90EF90DF90CF90BF90AF902D
:1039E0009F908F900C94FF1680919906827209F433
:1039F000D2CEA8960FB6F894DEBF0FBECDBFDF9132
:103A0000CF911F910F91FF90EF90DF90CF90BF90DB
:103A1000AF909F908F900C9402178091920621E0B6
:103A20004091940660919306885FA8960FB6F8942B
:103A3000DEBF0FBECDBFDF91CF911F910F91FF90E1
:103A4000EF90DF90CF90BF90AF909F908F900C94AD
:103A500096116091930621E1620F08F46FEF21E067
:103A60004091940680919206E0CF4091940621E126
:103A7000420F08F44FEF21E060919306F3CF40919D
:103A8000940621E1421B08F440E0F5CF80919506B1
:103A9000833018F48F5F8093950660919106709142
:103AA00092068091930690919406A8960FB6F8948A
:103AB000DEBF0FBECDBFDF91CF911F910F91FF9061
:103AC000EF90DF90CF90BF90AF909F908F900C942D
:103AD000841181E075CF0E945D098250833008F423
:103AE0005ACE82E06DCF0E945D098650823008F484
:103AF00052CE86E065CF0E945D098F50853008F474
:103B00004ACE8FE05DCF0E945D098551823008F476
:103B100042CE85E155CF88E153CF0E945D0989519E
:103B2000893008F438CE89E14BCF83E249CF82E077
:103B30008093700641CD80917306806106302CE53C
:103B4000120709F450C080917306886007301C4545
:103B500008F449C080917306806245C00B308CE543
:103B6000180709F4ADC0B0F40930ACE51A0709F440
:103B700098C00A301C4509F09DCE8091730688607C
:103B800084608093730664E070E085EE94E00E94A8
:103B9000101390CE809173068B7F0D30ECE51E07DD
:103BA00011F1809173068D7F0E301C45E0F08091FD
:103BB0007306877F18C0073F2CE5120709F465C01C
:103BC00080F502318CE5180709F48AC078F40031D9
:103BD000ACE51A0709F480C0809173068F7B013130
:103BE0001C4509F067CE8093730664CE0431ECE582
:103BF0001E0709F48FC008F477C005311C4509F091
:103C000059CE8091730682FB992790F921E0922783
:103C100090FB82F990FB83F98093730683FF6AC05F
:103C2000B2CF0A3F4CE5140709F44EC070F4083FC8
:103C30009CE5190771F1809174068E7F093F1C4540
:103C400009F038CE8093740635CE0C3FBCE51B07D7
:103C500009F455C050F10D3F1C4509F02BCE809161
:103C60007406982F909591708E7F892B90FB81F927
:103C70008093740681FF49C01EC0809173068160E5
:103C8000B2CF809173068460AECF8091740681605C
:103C9000D9CF809174068260D5CF809173068064FD
:103CA000A2CF8091730680689ECF80917406826057
:103CB00081608093740664E070E085EC94E067CFE7
:103CC000809173068E7F8FCF809174068D7FBACFDF
:103CD000809173068F7E87CF809173068F7D83CF0F
:103CE000809173068F777FCF80917306877F8B7F5C
:103CF0008093730662E070E085EB94E048CF80919A
:103D000074068D7F8E7F8093740662E070E085EA92
:103D100094E03DCF90917306892F97FB87F98058E7
:103D200062CF809199068A7A91E009F490E09093AD
:103D30000D068823B9F085E30E94A107A8960FB667
:103D4000F894DEBF0FBECDBFDF91CF911F910F91D1
:103D5000FF90EF90DF90CF90BF90AF909F908F90AB
:103D60000C94690789E2E8CF80910D06882321F041
:103D700085E30E949507E2CF89E2FBCF212F2F70C8
:103D8000B22E107F19F0B29490EFB922802FDD206F
:103D9000C9F0BB2069F090E2900F983010F001114B
:103DA0000BC080919906B82AB09299060E946907C3
:103DB000802F0E94DD0D17C080916606B82AB09250
:103DC0006606F4CF0E940709BB2069F0B094005E3C
:103DD000083010F091101EC080919906B822B09260
:103DE00099060E946907CC2009F4E6CB809164060D
:103DF00080FDE2CBF70112828595859585950E941D
:103E0000D008C7010E944218809164068595859567
:103E100085953ACA80916606B822B0926606E1CFCF
:103E2000412F4F70A42E107F103219F0A29480EF12
:103E3000A822992089F091E0991679F1DD20D1F13D
:103E4000BB2089F1D70115968C91159780FFB0CFD3
:103E50008F7015968C9327C0DD2091F090916706A6
:103E60008A2D892BB11003C00E942B08BCCFA1E082
:103E7000BA12FACF981709F4B6CF80936706B3CF7A
:103E8000B11006C00E9463078A2D0E942008ABCFA4
:103E9000B1E0BB1609F4A7CFF5CFDD2031F0E5E0A6
:103EA000EB1508F4A0CF8A2DDFCFF4E0FB1508F462
:103EB0009ACFEACFBB2041F3093349F4BFEFE7EED5
:103EC000F3E0B150E040F040E1F700C00000802F87
:103ED0000E94070988CF812F86958695837041F0CF
:103EE000813079F088EF8A0D843008F07CCF5DC096
:103EF000C8019370D11002C090E080E00E944B088E
:103F000072CFC8019370D11002C090E080E00E948F
:103F1000350869CF812F837009F068C0D11045C082
:103F2000802F829586958770880F880F602F6F701D
:103F3000862E912CB12CA12C082E04C0880C991C23
:103F4000AA1CBB1C0A94D2F740E050E0BA0104FF5F
:103F50000FC04FE050E060E070E004C0440F551F18
:103F6000661F771F8A95D2F740955095609570959A
:103F7000812F869586958370823029F1E8F400912F
:103F800068061091690620916A0630916B068130AF
:103F900079F0482959296A297B29CB01BA01602384
:103FA0007123822393230E94F1080E94FB081BCFF8
:103FB000802A912AA22AB32ACB01BA016829792939
:103FC0008A299B29F0CF482959296A297B29009100
:103FD00068061091690620916A0630916B06CB0144
:103FE000BA016027712782279327DDCF8695DD20D0
:103FF00011F0812F81708823C1F2802F82958695E0
:104000008770880F880F602F6F70862E912CB12CCF
:10401000A12C082E04C0880C991CAA1CBB1C0A9455
:10402000D2F740E050E0BA0104FF0FC04FE050E08B
:1040300060E070E004C0440F551F661F771F8A952B
:10404000D2F74095509560957095812F869586950D
:104050008370823019F1D8F40091C9061091CA0614
:104060002091CB063091CC06813069F0482959293E
:104070006A297B29CB01BA01602371238223932310
:104080000E946F0892CF802A912AA22AB32ACB01DC
:10409000BA01682979298A299B29F2CF4829592907
:1040A0006A297B290091C9061091CA062091CB0686
:1040B0003091CC06CB01BA01602771278227932764
:1040C000DFCF1F70DD2039F0812F0E94D008802FB4
:1040D0000E942B086ACF802F0E942008812F0E9407
:1040E000950863CF802F22EF921609F457C0291547
:1040F00088F040EF941629F191EF991609F447C022
:10410000DD2009F472C0BB2009F46CC0802F0E942E
:10411000DD0DE8CEA3EF9A1609F447C0B4EF9B1269
:10412000EFCFDD2009F453C01F71812F0E94D0080A
:1041300028E0129FC0011124836080936406812FC0
:104140002AC0DD20F9F0E4E0EB1508F4CBCE1F71B6
:1041500061E070E080E090E004C0660F771F881F88
:10416000991F1A95D2F70091C9061091CA0620919D
:10417000CB063091CC0660277127822793270E94B7
:104180006F08B0CEF5E0FB1508F4ACCEE0CF812F80
:104190008F71DD2039F00E94D008A4CE812F8F715D
:1041A000DD20C9F30E9495089DCE60E070E0CB0150
:1041B000DD2029F31F7161E070E080E090E004C031
:1041C000660F771F881F991F1A95D2F7D8CF81E005
:1041D0000E94B80841E04B1508F084CE82E00E94AE
:1041E000B80880CE812F8F71D6CFBB2079F089336C
:1041F00049F48FEF97EEA3E081509040A040E1F7A3
:1042000000C00000802F0E9407096CCE812F8F71A3
:10421000C9CF0B3CFCE51F0709F4CEC908F0BAC0B2
:10422000033C4CE5140709F4C7C908F08FC00631F8
:104230009CE5190708F051C00230ACE51A0748F4B4
:104240000115BCE51B0709F4B7C901301C4509F489
:10425000B3C9D7010D911C91C8010E94BA07D82E8D
:10426000B8018D2D0E94580A8C01982EF701B58057
:10427000B2943FE0B322D280D110109266068091B2
:104280006406877081F0DD2069F080E2800F88305D
:1042900050F082E00E94B808809164068770CC24B8
:1042A000C3948111C12CA12EA2942FE0A222FBE085
:1042B000FA1508F498CDEA2DF0E0EF59FE4D0C9474
:1042C000662EBE1EBE1E101F101F6B1FF31EF31E98
:1042D000F31E8A1F6120722072200631FCE51F0741
:1042E00009F442CD023C1C4509F0B3CF8091910600
:1042F00080FF62CB8E7F80939106609191067091D2
:10430000920680919306909194060E9484111092D7
:104310009706BFEFE0E7F2E0B150E040F040E1F790
:1043200000C00000A8960FB6F894DEBF0FBECDBF48
:10433000DF91CF911F910F91FF90EF90DF90CF9081
:10434000BF90AF909F908F900C94540F073C4CE51A
:10435000140709F47ECB80F4053C9CE5190709F4A9
:104360005CCB08F429C98091920621E04091940623
:1043700060919306885059CB093CBCE51B0709F4B2
:1043800074CB08F07CCB6091930621E1621B08F4AA
:1043900060E065CB033DFCE51F0709F40DC908F497
:1043A0000BC90D3D4CE5140709F406C960F4053D41
:1043B0009CE5190709F400C908F4FEC80C3D1C452A
:1043C00009F4FAC846CF0E3D1C4509F4F5C841CFA3
:1043D0001F93CF93DF9380911306807FD1F4809158
:1043E00010068823B1F080914506D0911406B09153
:1043F0000E06C0910F064091110650911206A1E0E1
:10440000BF3F09F0A0E0BA016095709516E0D8139F
:1044100004C0DF91CF911F91089521E0411551050E
:1044200021F02A2FCF3F09F020E090E020FD38C096
:10443000189FF001199FF00D1124EB5EF94F2181B7
:104440002C132EC020812B132BC02281211128C0B8
:10445000238134812417350700F1241B350B283CB8
:104460003105F0F4209113062F702061209313067C
:1044700026E0289FF001299FF00D1124E65EF94FF8
:1044800080818F70806180838EE096E00E94421868
:10449000DF91CF911F910C941608260F371FDFCFA5
:1044A00001968770B4CFAF92BF92CF92DF92EF9216
:1044B000FF920F931F93CF93DF93CDB7DEB7619732
:1044C0000FB6F894DEBF0FBECDBF8C0185E0F801BA
:1044D000DE011D9601900D928A95E1F7D8013C917D
:1044E00011962C9111971296EC9050910E066091B6
:1044F0000F06809111069091120641E0009731F06D
:104500006F3F19F441E05F3F09F040E0B42FB17014
:10451000BB2E40FD5EC1F801C380D480A090100680
:10452000AA2009F40EC1C816D906C0F1D601A81BED
:10453000B90BCD01FF24F394883C910508F0F12CD0
:1045400080911306982F907FFF2009F4BCC0911131
:1045500085C0FE2C621327C0531325C0E11023C071
:104560008F708061809313068EE096E00E9442185F
:1045700080911306F80185838F2D61960FB6F8940C
:10458000DEBF0FBECDBFDF91CF911F910F91FF9086
:10459000EF90DF90CF90BF90AF9008958095909569
:1045A0008C0D9D1DC7CF81E0CD2831F02F3F19F430
:1045B00081E03F3F09F080E080FD24C081E08E254E
:1045C000F82FF170DF2E80FF3FC0809145064091AB
:1045D000140656E0841318C03D872E878D859E856E
:1045E0000E94E70C292F22952F70223008F12430E9
:1045F00030F59F7009F1D80115969C91907FE1F4F8
:10460000FB2CBACF80E0DCCF90E0589FF001599F9F
:10461000F00D1124EB5EF94F6181261306C0608115
:10462000361303C06281E6120FC001968770D2CFA5
:104630009F7011F0882321F3805E883008F3C80151
:104640000E944218BD2CDCCFEE2009F495CF80915A
:104650001306816080931306F12C8ECF621306C07F
:10466000531304C0F801EE2009F495C03D872E874E
:104670008D859E850E94F10C882309F1EE20F9F0CA
:1046800080911306803270F020910E0630910F0653
:1046900038872F831986DB86CA868C87CE010796DA
:1046A0000E94421886E0F801AEE0B6E001900D925B
:1046B0008A95E1F70E94E821FF24F3945DCFC801B9
:1046C0000E944218F9CF91110CC08EE096E00E9432
:1046D000421886E0EEE0F6E0DF011D928A95E9F7E8
:1046E0004BCF621312C0531310C0E1100EC0F8017B
:1046F0008583C8010E944218EEE0F6E086E0DF0103
:104700001D928A95E9F7FA2C37CF3D872E878D8544
:104710009E850E94F10C882391F2EE2081F2809117
:104720001306803208F4BECF20910E0630910F069A
:104730003A8329831B82DD82CC828E83CE0101964F
:10474000AFCFC816D90640F0C81AD90AB8ECCB16B4
:10475000D10448F0F12CBDCF809590958C0D9D1D16
:10476000883C9105B8F7FE2CEE2009F4A8CF62131F
:104770001FC053131DC08091130680FD10C0982FD9
:10478000907F69F0F8018583903F31F0982F907FFA
:10479000905F8F70892B8583C8010E94421886E044
:1047A000F801AEE0B6E001900D928A95E1F7E4CE13
:1047B0003D872E878D859E850E94F10C811172CFD9
:1047C00080911306816080931306C8010E944218ED
:1047D000D3CEEE2009F473CF3D872E878D859E853D
:1047E0000E94F10CF82E882309F469CF86E0F801C5
:1047F000AEE0B6E001900D928A95E1F780910E0649
:1048000090910F060E94E70C0E94E821B5CE1F93FD
:10481000CF93DF93CDB7DEB767970FB6F894DEBFBF
:104820000FBECDBF4B8B5C8B6D8B7E8B8F8B1A8AB3
:10483000198A85E0FE017396DE011D9601900D92A6
:104840008A95E1F786E0FE013D96DE01179601901C
:104850000D928A95E1F7CE0107960E9453228111AD
:1048600037C086E0FE013796DE01119601900D9269
:104870008A95E1F79F8188852A853B85232B39F02E
:104880008F3F19F481E09F3F19F080E001C081E083
:1048900080FD1EC02091140630E0C901019687708A
:1048A0009927409145064817190659F196E0929FBD
:1048B000D001939FB00D1124AB5EB94FFE0131962C
:1048C00001900D929A95E1F7809314060E941608C4
:1048D00016E08091450690911406891709F1819F91
:1048E000C00111248B5E994F0E9453228823C1F08E
:1048F0008091450690E00196877099278093450640
:10490000E8CF109299060E94E113109214061092BB
:10491000450686E0EEE0F6E0DF011D928A95E9F7B4
:1049200067960FB6F894DEBF0FBECDBFDF91CF9173
:104930001F9108956F927F928F929F92AF92BF9234
:10494000CF92DF92EF92FF920F931F93CF93DF935B
:104950000CE715E061E675E0D801712CCC24C39416
:10496000D12C5C911C92EB018991BE01E82FE2955C
:10497000EF70F0E091A18F70760101C0EE0C8A9586
:10498000EAF7892F8E2981A382A16E2C609486215B
:1049900082A3D0EADA95F1F799E6A92E95E0B92E2F
:1049A00030E020E0E50149915E01842E82948FE0A1
:1049B0008822912CE40188A190E04F7002C0959567
:1049C00087954A95E2F7812C80FD06C04601022EAC
:1049D00001C0880C0A94EAF78C91882A8C922F5F88
:1049E0003F4F26303105F1F681A1862181A382A1B6
:1049F000E82AE2A281E09C91951301C080E0782A28
:104A00001196D5E065367D0709F0ABCFD0917206DF
:104A1000772049F081E080937B050E9457079093AF
:104A20007A058093790580917B058823B1F0809188
:104A3000790590917A050E942D07069770F0ED2F69
:104A4000F0E0E758F94FD8018D918D018193B5E0E1
:104A500000381B07C1F710927B050E945C11882368
:104A600009F47EC0D09171060E94F12D009701F1EA
:104A7000809184058F5F80938405863048F580910E
:104A800007068823C1F180910306909104060097E0
:104A900049F50E945707909304068093030680917E
:104AA0000506282F30E08823B1F1C901019737C0EE
:104AB000ED2FF0E0E758F94FDC01A058BA4F2C91E8
:104AC0002193019684309105B9F710928405D7CFD0
:104AD000E0917106F0E0E758F94F108211821282DE
:104AE0001382CDCF0E942D0720918B0430918C042E
:104AF0002817390770F2872DDF91CF911F910F9101
:104B0000FF90EF90DF90CF90BF90AF909F908F90ED
:104B10007F906F900895809106068150990B2D50DB
:104B20003A4FF901D08120910B06222331F08D50AC
:104B30009A4FDC018C910E94921780910B0688237A
:104B400019F08D2F0E9415178091050690E00196AF
:104B50006091060670E00E94522E80930506CBCF2E
:104B6000E0917206F0E0E758F94F90E080E0219183
:104B7000DC01A058BA4F2C93019684309105B9F707
:104B8000BACF1F920F920FB60F9211242F933F931B
:104B90004F935F936F937F938F939F93AF93BF9345
:104BA000CF93EF93FF93C091E900CF708091EC0019
:104BB0001092E9008091F000877F8093F000789454
:104BC0000E94EA131092E9008091F00088608093BF
:104BD000F000C093E900FF91EF91CF91BF91AF91A9
:104BE0009F918F917F916F915F914F913F912F9105
:104BF0000F900FBE0F901F9018951F920F920FB637
:104C00000F9211242F933F934F935F936F937F9352
:104C10008F939F93AF93BF93EF93FF938091E100A6
:104C200082FF09C08091E20082FF05C08091E1000F
:104C30008B7F8093E1008091DA0080FF24C0809117
:104C4000D80080FF20C08091DA008E7F8093DA0048
:104C50008091D90080FF9FC080E189BD82E189BD3C
:104C600009B400FEFDCF81E08093A60680919806EE
:104C7000811109C00E949F050E9468068091E20090
:104C800084608093E2008091E10080FF17C08091F2
:104C9000E20080FF13C08091E2008E7F8093E200EB
:104CA0008091E20080618093E2008091D800806270
:104CB0008093D80019BC85E08093A6068091E1001E
:104CC00084FF2DC08091E20084FF29C080E189BD6E
:104CD00082E189BD09B400FEFDCF8091D8008F7DAF
:104CE0008093D8008091E1008F7E8093E1008091D5
:104CF000E2008F7E8093E2008091E20081608093E9
:104D0000E2008091A706882309F44BC084E08093D9
:104D1000A606109299060E94E1130E94FB0880915A
:104D2000E10083FF27C08091E20083FF23C08091D0
:104D3000E100877F8093E10082E08093A6061092D5
:104D4000A7068091E1008E7F8093E1008091E200D0
:104D50008E7F8093E2008091E20080618093E20088
:104D600042E060E080E00E9436068091F0008860BA
:104D70008093F000FF91EF91BF91AF919F918F9140
:104D80007F916F915F914F913F912F910F900FBE47
:104D90000F901F90189519BC1092A60610929806B5
:104DA00072CF8091E30087FD02C081E0B0CF83E045
:104DB000AECFCF93DF93CDB7DEB72A970FB6F89477
:104DC000DEBF0FBECDBF84B7877F84BF0FB6F89418
:104DD000A8958091600088618093600010926000C7
:104DE0000FBE80E8809361001092610085B78068F3
:104DF00085BF85B7806885BF24982C9A83B182953A
:104E0000817091E08927249880930D050E945C11A0
:104E100061E070E0882309F48BC185E095E00E9491
:104E2000502D0E949F050E9468068091E2008460D8
:104E30008093E20078948091A606882399F01091DF
:104E4000E9001F708091EC0080FD77C180E0182B95
:104E50001092E9008091E80083FD0E94EA131F7020
:104E60001093E90082E084BD93E095BD9AEF97BD71
:104E700080936E00809182068360886080938206B2
:104E800080910D0580910D0594E0811190E0909343
:104E9000720684E0891B80937106A1E6B5E061E0AB
:104EA00070E08D91E82FE295EF70F0E041A18F70F6
:104EB0009B0101C0220F8A95EAF7922F90959423C7
:104EC00091A382A1822B82A385E0A536B80749F77A
:104ED000A9E6B5E061E070E08D91E82FE295EF7012
:104EE000F0E041A18F709B0101C0220F8A95EAF783
:104EF000922F9095942391A382A1822B82A3E5E027
:104F0000AF36BE0749F71092790610927A061092D2
:104F10007B0610927C0610927D0610927E061092FF
:104F20007F06109280060E947911811102C00E94B2
:104F30003A120E949D120E947911811102C00E94B2
:104F40003A1282E090E00E946C2E809382060E94CA
:104F5000230D909374068093730683E090E00E9483
:104F60006C2E682F70E090E080E00E94F108809144
:104F70007506811138C08091820681608093820617
:104F80000E947911811104C00E943A120E942B12D2
:104F900088E090E00E94742E6093910670939206D0
:104FA00080939306909394066E7F71F40E942B1267
:104FB00088E090E00E94742E6093910670939206B0
:104FC00080939306909394060E9465091092970629
:104FD0008091910680FF04C060E086950E94BD1616
:104FE00081E0809375068EE095E09093770680933C
:104FF0007606F3E9EF2EF9E0FF2E8091A6068530C4
:1050000009F49DC00E949A240E945C11882309F42F
:10501000DCC0E9E7F6E0A3E8B6E010E000E0902F9E
:1050200081914D91481709F4CAC030E020E048272B
:1050300050E0622F6A01022E02C0D594C7940A94F0
:10504000E2F7C0FEB6C029839A8321E030E069010F
:1050500002C0CC0CDD1C6A95E2F790E08C219D210A
:10506000892B09F420E02B830E9457078160782F59
:105070009D838C8349815A816B818D810E94072495
:10508000F801ED57F94F8081C826C0820E94FB08C5
:1050900090918106891721F00E94FB088093810678
:1050A00080919706882309F4A8CF80919606E09115
:1050B0009106E695E81BE0938D06823009F096C0D4
:1050C000F0E0EF55F64FE4910E2F10E0E8E3CE2E1E
:1050D000E1E1DE2E80918E06882389F010928E0603
:1050E0000E945707980120953095820F931F909347
:1050F0008C0680938B061092900610928F068091FA
:105100008B0690918C060E942D078017910708F45A
:1051100074CFE0918B06F0918C060E0F1F1F109339
:105120008C0600938B068BE896E0F601099565CF17
:1051300085E095E00E94572D74CE80E888CE80915E
:10514000A606843021F11092780688E190E020E4F0
:105150000FB6F894A895809360000FBE209360006E
:1051600083B7817F846083BF83B7816083BF789476
:10517000889583B78E7F83BF0FB6F894A8958091EA
:105180006000886180936000109260000FBE809183
:10519000A506882309F431CF0E949A24E9E7F6E0B6
:1051A00081E896E0219121117AC08E179F07D1F7EF
:1051B00024CF2F5F3F4F2630310509F03ACF0F5FE4
:1051C0001F4F0830110509F02ACF8FEF8E838F8390
:1051D00018860E9457078160782F9A8789874E81A9
:1051E0005F8168858A850E94072450CF863059F4F4
:1051F000F0E0E256F64FE4910E2F10E07CE4C72E6B
:1052000071E1D72E67CF893061F4E695F0E0E5567D
:10521000F64FE4910E2F10E061ECC62E6FE0D62E13
:1052200059CF8F3061F4E695F0E0E856F64FE491FF
:105230000E2F10E05BEEC52E5FE0D52E4BCF8531F3
:1052400059F4F0E0EB56F64FE4910E2F10E04CE4E9
:10525000C42E40E1D42E3ECF08EE13E09AE9C92EC9
:1052600090E1D92E883109F435CF833241F4F7012A
:10527000059114913FEDC32E30E1D32E2BCF04EFD7
:1052800011E028E8C22E2FE0D22E843209F422CF7A
:1052900000ED17E088E2C82E87E0D82E1BCF80E112
:1052A00089BD82E189BD09B400FEFDCF8091D8009F
:1052B0008F7D8093D8008091E00082608093E00031
:1052C0008091E00081FDFCCF98CE78941F920F92E0
:1052D0000FB60F9211248F939F93AF93BF9380913A
:1052E0006C0690916D06A0916E06B0916F060196C6
:1052F000A11DB11D80936C0690936D06A0936E0660
:10530000B0936F06BF91AF919F918F910F900FBE99
:105310000F901F9018951F920F920FB60F921124A5
:105320008F939F93AF93BF9380917806811113C0A1
:1053300080916C0690916D06A0916E06B0916F06FB
:105340004196A11DB11D80936C0690936D06A093AC
:105350006E06B0936F06BF91AF919F918F910F90A2
:105360000FBE0F901F9018951F920F920FB60F92BD
:1053700011244F925F926F927F928F929F92AF9281
:10538000BF92CF92DF92EF92FF922F933F934F9372
:105390005F936F937F938F939F93AF93BF93EF939D
:1053A000FF938091C606882309F4E1C0E090C3050D
:1053B000F090C4051E141F040CF0D9C04090BF0526
:1053C0005090C0056090C1057090C20520E030E0AB
:1053D000A901C301B2010E94793018160CF0CFC1A7
:1053E00021E0E216F10409F452C08091BD059091CC
:1053F000BE05B7010E94522E6C019093BE058093AA
:10540000BD058090BC069090BD06A090BE06B090F1
:10541000BF0620E030E040E85FE3C501B4010E9430
:10542000B52E6093BC067093BD068093BE06909324
:10543000BF06F601EE0FFF1FEE0FFF1FE356FA4FF8
:10544000A301920160817181828193810E94262F44
:1054500020E030E040E05EE30E947E309B01AC0142
:10546000C501B4010E94793018168CF4C60101966A
:10547000B7010E94522E9093BE058093BD051092F5
:10548000BC061092BD061092BE061092BF06E091B7
:10549000BD05F091BE05EE0FFF1FEE0FFF1FE35697
:1054A000FA4FC080D180E280F3808091970590917F
:1054B00098058F3F980729F001969093980580935F
:1054C00097058091F205811116C010929C0280E030
:1054D00090E0A0E0BFE38093980290939902A0939C
:1054E0009A02B0939B021092BF051092C0051092D1
:1054F000C1051092C20520E034E244EF51E4C70137
:10550000B6010E94212F87FF08C056EFC52E58E232
:10551000D52E54EFE52E51E4F52E20E030E040E0AA
:1055200051E4C701B6010E947E309B01AC0160E0EE
:1055300074E284E79BE40E94262F6B017C010E94A9
:10554000982F709397006093960020919802309165
:10555000990240919A0250919B02C701B6010E94A4
:105560007E300E94982F70939900609398008091EC
:10557000C506882309F4D9C1C090B606D090B706F5
:10558000E090B806F090B90620E030E0A901C7012C
:10559000B6010E94793018160CF0B6C180919705BB
:1055A000909198058F3F980729F001969093980560
:1055B000809397058091F205811116C010929C028C
:1055C00080E090E0A0E0BFE380939802909399027E
:1055D000A0939A02B0939B021092BF051092C0054F
:1055E0001092C1051092C20520E030E040E051E485
:1055F000C701B6010E947E309B01AC0160E074E2FD
:1056000084E79BE40E94262F6B017C010E94982F67
:1056100070939700609396002091980230919902C0
:1056200040919A0250919B02C701B6010E947E30C0
:105630000E94982F70939900609398006091B00633
:105640007091B1066F5F7F4F7093B1066093B006A3
:10565000E0909600F090970090E080E00E94C72FC5
:105660004B015C014090B2065090B3066090B406C6
:105670007090B506EF2809F450C18091960581110C
:105680004CC1609196007091970090E080E00E947C
:10569000C72F9B01AC01C301B2010E94262F20E05D
:1056A0003FEF4FE757E40E947E3020E030E040E8D3
:1056B0005FE30E94B42EA50194010E94212F1816C9
:1056C0000CF433C18091BA069091BB060196909379
:1056D000BB068093BA062091C1063091C20682179C
:1056E000930748F08091C006882309F427C11092DF
:1056F000BB061092BA06E091C306F091C4068091F1
:10570000BA069091BB069C0143E0220F331F4A95D5
:10571000E1F7E20FF31F20813181428153816091D3
:10572000960561113DC161E06093960501979093E4
:10573000BB068093BA063897C080D180E280F380A0
:10574000C701B6010E94212F811121C11092B60616
:105750001092B7061092B8061092B90680E090E059
:10576000A0E8BFE38093B2069093B306A093B4067B
:10577000B093B5061092B1061092B006D6C0F701EC
:10578000EE0FFF1FEE0FFF1FE756FA4F808091804C
:10579000A280B38080919C02882309F4ACC0C090A1
:1057A0009905D0909A05E0909B05F0909C0520E02B
:1057B00030E0A901C701B6010E94212F882309F416
:1057C0009AC0A5019401C701B6010E94212F87FF4D
:1057D0005BC0A501940160E070E08CED93EC0E9449
:1057E000262F20E030E040E451E40E94262F20E004
:1057F00030E040E05FE30E947E309B01AC0160E05E
:1058000070E080E090E40E94EB30A50194010E94DA
:105810007E309B01AC01C701B6010E94212F87FF9A
:1058200033C0A701960160E070E08CED93E40E9424
:10583000262F20E030E040E451E40E94262F20E0B3
:1058400030E040E05FE30E947E309B01AC0160E00D
:1058500070E080E090E40E94EB309B01AC01C70156
:10586000B6010E947E306093990570939A058093EB
:105870009B0590939C05C0909905D0909A05E09067
:105880009B05F0909C0511CEA5019401C701B601BE
:105890000E94793018167CF5A501940160E070E053
:1058A0008CED93E40E94262F20E030E040E451E4A8
:1058B0000E94262F20E030E040E05FE30E947E302F
:1058C0009B01AC0160E070E080E090E40E94EB306E
:1058D000A50194010E947E309B01AC01C701B60175
:1058E0000E94793018163CF4A701960160E070E040
:1058F0008CED93EC9CCF8092990590929A05A092A2
:105900009B05B0929C05B7CF10929700109296001D
:10591000109299001092980091CEA3019201C501B6
:10592000B4010E94793087FFCDCE8091C70680FDFB
:1059300011C01092C5061092C6060CC0809171006D
:105940008D7F80937100809190008F738093900081
:105950001092C506FF91EF91BF91AF919F918F91EA
:105960007F916F915F914F913F912F91FF90EF90B9
:10597000DF90CF90BF90AF909F908F907F906F906F
:105980005F904F900F900FBE0F901F901895C09290
:10599000B606D092B706E092B806F092B906DECE0F
:1059A0001092960510929805109297052093B606CE
:1059B0003093B7064093B8065093B90620E030E024
:1059C00040E85EE364817581868197810E947E3024
:1059D0006093B2067093B3068093B4069093B506B5
:1059E000C9CE8EE1489B02C08150E1F7489BFECFB3
:1059F0000895589880E28A95F1F7589A0895FC0125
:105A00003BE03A95F1F798E020E080E031E040E1BA
:105A10004A95F1F7880F489B02C08160232742E036
:105A20004A95F1F7000040E14A95F1F7915079F776
:105A300090E19A95F1F799B132E03A95F1F70000CB
:105A400040E14A95F1F7917092272081920F90835F
:105A50000895EF92FF920F931F93CF93DF931F92BE
:105A6000CDB7DEB719828C017C01E60EF11C0E1554
:105A70001F0561F481E09981911180E00F90DF9121
:105A8000CF911F910F91FF90EF9008950E94F12CFC
:105A9000CE0101960E94FF2CF80181938F01E7CF80
:105AA0009093CE068093CD06509A589A089590937D
:105AB000CE068093CD065098589AE89AE9E6F0E031
:105AC00080818C7F808308956150770B91E001C0C5
:105AD000990F6A95EAF720E031E0911108C022237E
:105AE00091F0589A80E28A95F1F758980895492FD5
:105AF000482339F0589A232740E24A95F1F79695C2
:105B0000ECCF5898F9CF5898EDCFFF920F931F9391
:105B1000CF93DF93EC018C01060F111DC017D10745
:105B200031F4DF91CF911F910F91FF900895F9907B
:105B30000E94F92C68E08F2D0E94642DEFCF1F92F8
:105B40000F920FB60F9211242F933F934F935F93B1
:105B50006F937F938F939F93AF93BF93CF93DF9375
:105B6000EF93FF935898509AC091CD06D091CE06EE
:105B70006D81662321F08E819F810E94852D0E9478
:105B8000F92C80E18A95F1F758985098589A80E15D
:105B90008A95F1F76A81662309F18B819C810E94C5
:105BA000292DE881F981882311F088E001C082E085
:105BB00080830E94F12CFF91EF91DF91CF91BF91F3
:105BC000AF919F918F917F916F915F914F913F9195
:105BD0002F910F900FBE0F901F901895E881F981BB
:105BE000E4CFCF93DF93C091CD06D091CE06F89449
:105BF000509A589885E08A95F1F700005098589A85
:105C000080E28A95F1F7489B0CC0509A589AE88137
:105C1000F98181E08083789481E090E0DF91CF91F9
:105C200008956D81662381F08E819F810E94292DC8
:105C300081110AC0509A589AE881F98182E08083E4
:105C4000789482E090E0EACF0E94F12C80E28A957D
:105C5000F1F75898509A80E18A95F1F76A816623A6
:105C600021F08B819C810E94852D0E94F92CE88176
:105C7000F9811082789490E080E0D0CFAA1BBB1B02
:105C800051E107C0AA1FBB1FA617B70710F0A61B3C
:105C9000B70B881F991F5A95A9F780959095BC015D
:105CA000CD01089597FB072E16F4009407D077FDD9
:105CB00009D00E943E2E07FC05D03EF490958195B8
:105CC0009F4F0895709561957F4F0895EE0FFF1FC8
:105CD0000590F491E02D0994F999FECF92BD81BD14
:105CE000F89A992780B50895A6E1B0E044E050E025
:105CF0000C94A62EA8E1B0E042E050E00C94A62E51
:105D0000262FF999FECF92BD81BDF89A019700B474
:105D1000021639F01FBA20BD0FB6F894FA9AF99A14
:105D20000FBE08950396272F0E94812E0E94802E79
:105D3000252F0E94812E242F0C94812E0196272F2F
:105D40000E94812E0C94802EDC01CB01FC01F9997C
:105D5000FECF06C0F2BDE1BDF89A319600B40D92B7
:105D600041505040B8F708955058BB27AA270E94C9
:105D7000CC2E0C943F300E94313038F00E943830E5
:105D800020F039F49F3F19F426F40C942E300EF4D1
:105D9000E095E7FB0C942830E92F0E94503058F32F
:105DA000BA17620773078407950720F079F4A6F500
:105DB0000C9472300EF4E0950B2EBA2FA02D0B012F
:105DC000B90190010C01CA01A0011124FF27591B40
:105DD00099F0593F50F4503E68F11A16F040A22F46
:105DE000232F342F4427585FF3CF469537952795B7
:105DF000A795F0405395C9F77EF41F16BA0B620BB6
:105E0000730B840BBAF09150A1F0FF0FBB1F661FFC
:105E1000771F881FC2F70EC0BA0F621F731F841F3F
:105E200048F4879577956795B795F7959E3F08F065
:105E3000B0CF9395880F08F09927EE0F9795879527
:105E400008950E94043008F481E008950E943A2FDA
:105E50000C943F300E94383058F00E94313040F0AE
:105E600029F45F3F29F00C94283051110C947330C1
:105E70000C942E300E94503068F39923B1F35523CF
:105E800091F3951B550BBB27AA276217730784074D
:105E900038F09F5F5F4F220F331F441FAA1FA9F3E3
:105EA00035D00E2E3AF0E0E832D091505040E695D1
