:100000000C9456050C94A72D0C949D050C949D05FD
:100010000C949D050C949D050C949D050C949D05D8
:100020000C949D050C949D050C940C260C94C825ED
:100030000C9495290C949D050C949D050C949D059C
:100040000C949D050C949D050C949D050C949D05A8
:100050000C949D050C9471290C949D050C949D05A0
:100060000C949D050C949D050C949D050C949D0588
:100070000C949D050C949D050C949D050C949D0578
:100080000C94BC290C949D050C949D050C949D0525
:100090000C949D050C949D050C949D050C949D0558
:1000A0000C949D050C949D050C949D0507634236A8
:1000B000B79BD8A71A39685618AEBAAB558C1D3CF9
:1000C000B7CC5763BD6DEDFD753EF6177231BF00BD
:1000D0000000803F08000000BE922449123EABAAF7
:1000E000AA2ABECDCCCC4C3E00000080BEABAAAA52
:1000F000AA3E00000000BF000000803F000000009A
:1001000000084178D3BB4387D1133D190E3CC3BDD2
:100110004282AD2B3E68EC8276BED98FE1A93E4C7F
:1001200080EFFFBE01C4FF7F3F0000000000000021
:1001300000000000000000000101010101010101B7
:100140000102020202020202020303030303030389
:10015000040404040405050505050606060606074D
:10016000070707080808080909090A0A0A0B0B0B00
:100170000C0C0C0D0D0D0E0E0E0F0F10101011119A
:100180001212131314141515161617171818191917
:100190001A1A1B1C1C1D1D1E1F1F20212122232378
:1001A00024252526272828292A2B2C2C2D2E2F30B4
:1001B000313132333435363738393A3B3C3D3E3FC6
:1001C000404142434445464748494B4C4D4E4F50B1
:1001D000525354555758595A5C5D5E60616364656B
:1001E00067686A6B6C6E6F7172747677797A7C7DF2
:1001F0007F8182848687898B8D8E90929495979942
:100200009B9D9FA1A2A4A6A8AAACAEB0B2B4B6B959
:10021000BBBDBFC1C3C5C8CACCCED0D3D5D7DADC2D
:10022000DEE1E3E6E8EAEDEFF2F4F7F9FCFFFFAA1E
:100230007F55402223252628292A2C2D2F30323382
:100240003536383A3B3D3E4042434547494A4C4E9D
:100250005051535557595A5C5E6062646668696BC9
:100260006D6F71737577797B7D7F81838587898ACF
:100270008C8E90929496989A9C9E9FA1A3A5A7A8D5
:10028000AAACAEAFB1B3B4B6B8B9BBBCBEBFC1C205
:10029000C3C5C6C7C9CACBCCCDCED0D1D2D2D3D498
:1002A000D5D6D7D7D8D9D9DADADBDBDBDCDCDCDCB6
:1002B000DCDDDDDDDDDCDCDCDCDCDBDBDBDADAD984
:1002C000D9D8D7D7D6D5D4D3D2D2D1D0CECDCCCB06
:1002D000CAC9C7C6C5C3C2C1BFBEBCBBB9B8B6B424
:1002E000B3B1AFAEACAAA8A7A5A3A19F9E9C9A98B4
:1002F000969492908E8C8A89878583817F7D7B7985
:10030000777573716F6D6B6968666462605E5C5A65
:100310005957555351504E4C4A4947454342403E28
:100320003D3B3A3836353332302F2D2C2A292826BA
:10033000252322290014001A000800150017002B9D
:100340000004001600070009000A00E1001D001B60
:1003500000060019000500E000E300E200035D0173
:100360005D2C001C0018000C00120013002A000B6A
:10037000000D000E000F0033003400110010003695
:10038000003700380028002C00025D500051005258
:10039000004F002B0014001A00090013000A002966
:1003A0000004001500160017000700E1001D001BE7
:1003B00000060019000500035DE000E200E3000113
:1003C0005D2C000D000F0018001C0033002A000BEC
:1003D00000110008000C00120034000E001000365E
:1003E000003700380028002C00025D5000510052F8
:1003F000004F002B0034003600370013001C00298A
:100400000004001200080018000C00E10033001482
:10041000000D000E001B00035DE000E200E30001A0
:100420005D2C0009000A00060015000F002A0007D5
:10043000000B001700110016003800050010001A0C
:100440000019001D0028002C00025D5000510052D0
:10045000004F0035021E021F022002210222024C20
:10046000003A003B003C003D003E00005C40004183
:1004700000420043004400010001000100010001AE
:10048000000100230224022502260227024C003F1D
:10049000002D022E022F023002310245003202648A
:1004A0000201000100010001000100AB00AA00A947
:1004B00000AE0035001E001F002000210022004C6D
:1004C000003A003B003C003D003E0001004000417E
:1004D000004200430044000100010001000100014E
:1004E000000100230024002500260027004C003FC7
:1004F000002D002E002F0030003100450032006436
:100500000001000100005C01000100AB00AA00A98D
:1005100000AE00000000000000000000000000002D
:1005200000000000000000000000000000000000CB
:1005300000000000000000000000000000000000BB
:1005400000000000000000000000000000000000AB
:10055000000000000000000000000000000000009B
:100930000000000100005C01000100010001000155
:1009400000010001001D5C1E5C135C010001000140
:10095000000100010001000100010001000100018F
:100960000001000100010001000100005C4C000AD0
:100970005CFE5CFF5C005D01000100010001000104
:10098000000100010001000100010001000100015F
:1009900000C35C00047F3F1F643214643214783C4F
:1009A0001E1E140A0505010980A10185031A810094
:1009B0002A8300160100260300950175108100C0EE
:1009C000050C0901A10185041A01002A9C021601E7
:1009D00000269C02950175108100C005010906A141
:1009E00001050719E029E715002501950875018122
:1009F000029501750881010507190029FF150026D8
:100A0000FF0095067508810005081901290595055F
:100A100075019102950175039101C009023B000225
:100A20000100A0FA090400000103010100092111DD
:100A30000100012240000705810308000A090401A2
:100A40000001030000000921110100012236000706
:100A500005820320000A120110010000000809129B
:100A6000E5BE02000102030104033000000024037C
:100A700056006900740061006D0069006E0073002B
:100A8000200069006E0063006C0075006400650062
:100A90006400000012034400750063006B006C00EA
:100AA00065003200390000000403090411241FBE50
:100AB000CFEFDAE0DEBFCDBF04B603FE27C08091E2
:100AC000CF069091D006A091D106B091D206873082
:100AD000904BA740B04BD1F41092CF061092D006A5
:100AE0001092D1061092D20614BE84B7877F84BFBD
:100AF0000FB6F894A895809160008861809360009B
:100B0000109260000FBEE0E0F8E3099526E0A0E750
:100B1000B5E001C01D92AF3CB207E1F715E0A0E0DF
:100B2000B1E0E6E5F5E602C005900D92A037B10709
:100B3000D9F70E94E9260C9485320C940000E8ED68
:100B4000F0E080818E7F80831092E2001092DA00C4
:100B50001092E100A0EEB0E08C9181608C938081D6
:100B60008F77808319BCA7EDB0E08C918E7F8C933A
:100B700080818F7E80831092980608952091E400F2
:100B80003091E50095E6A9012091EC00822F81705B
:100B900020FF06C08091E80080FF06C080E0089535
:100BA0002091E80022FD1AC08091A606882389F0D2
:100BB000853089F08091EB0085FD0FC02091E40025
:100BC0003091E50042175307F9F29150E1F684E0C5
:100BD000089582E0089583E0089581E00895EF92FA
:100BE000FF920F931F93CF937C018B010E94BE0550
:100BF000C82F811117C08091E80085FD0BC080913E
:100C0000E8008E778093E8000E94BE05882399F360
:100C1000C82F08C0F70181917F018093F100015036
:100C2000110949F78C2FCF911F910F91FF90EF90F1
:100C300008958091A80687FF13C08091E80082FF85
:100C400006C08091E8008B778093E80004C0809113
:100C5000A6068111F2CF08958091A6068823D9F3C4
:100C60008091E80080FFF8CF8091E8008E77ECCF8C
:100C7000982F9093E900242F762F50E0891731F0B8
:100C80007091EC002091ED005091F00021FD07C023
:100C90009F5F973071F78093E90081E0089530916C
:100CA000EB003E7F3093EB003091ED003D7F3093C1
:100CB000ED003091EB0031603093EB007093EC006D
:100CC0002093ED005093F0002091EE0027FDE0CF3F
:100CD00080E00895CF92DF92EF92FF920F931F93DF
:100CE000CF93DF93C8EDD0E088818F7E8883E7EDD6
:100CF000F0E080818160808384E082BF81E0809326
:100D0000980688818E7F888302EE10E0F8011082B9
:100D10001092DA0081EEC82ED12CF6011082888163
:100D20008F77888388818068888388818F7D888396
:100D300019BC1092A6061092A7061092A506109252
:100D4000A40690EEE92EF12CF70180818B7F808341
:100D500088818160888342E060E080E00E943806FC
:100D6000F60180818E7F8083F8018081816080839D
:100D7000808188608083F70180818E7F8083888175
:100D800080618883DF91CF911F910F91FF90EF9049
:100D9000DF90CF900895FC018091AE069091AF0650
:100DA00086179707A0F06115710529F49091E80066
:100DB0009E779093E80090E06115710551F49111D0
:100DC00008C08091E80082FF34C080E00895BC0133
:100DD000F2CF8091A6068823C1F18530C1F18091C0
:100DE000E80083FD30C08091E80082FDEACF809169
:100DF000E80080FFE1CF8091F3002091F200382FCE
:100E00006115710519F02830310558F091E028304E
:100E1000310509F090E02091E8002E772093E8005A
:100E2000CBCF81918093F100615071092F5F3F4FCB
:100E3000E7CF8091A606882341F0853041F080916C
:100E4000E80083FFBECF81E0089582E0089583E04B
:100E500008950895089580919B060895CF92DF929A
:100E6000EF92FF920F931F932FB7F89440916C0667
:100E700050916D0660916E0670916F062FBF6A01EA
:100E80007B01EE24FF248C0130E020E0C016D10667
:100E9000E206F30650F0481B590BCA011F910F914F
:100EA000FF90EF90DF90CF90089541505109F3CF1C
:100EB0002FB7F89480916C0690916D06A0916E0604
:100EC000B0916F062FBF089580916706811110922F
:100ED000670608958091990690916606892B9091F6
:100EE0006506892B8093700590916706992391F090
:100EF000892B8093700520E082E795E0FC01319119
:100F0000CF0131112F5FF5E088379F07B9F7211125
:100F10000E946407E0917606F0917706309731F0F1
:100F20000280F381E02D80E795E009940895E2E7DF
:100F3000F5E09191891303C0DF0111971C9295E0B0
:100F4000E837F907B1F70895A2E7B5E0EFEF90E0D1
:100F50002D91821751F0EF3F19F4211101C0E92FB3
:100F60009F5F9630A9F7EF3F09F408950E2E000C0D
:100F7000FF0BE059FA4F82830895E92FEE0FE90F36
:100F8000EE0F8E0F982F977086958695869525E0A3
:100F9000829FF0011124EA5BF94F50E040E080E0CD
:100FA000219130E0092E02C0369527950A94E2F788
:100FB00021703327042E01C0220F0A94EAF7822BF6
:100FC0004F5F5F4F4530510559F70895E92FEE0FF8
:100FD000E90FEE0F8E0F982F977041E001C0440F7C
:100FE0009A95EAF786958695869595E0899FF00112
:100FF0001124EA5BF94F30E020E070E05191DF010D
:101000001197CB01022E02C0969587950A94E2F7BC
:10101000817081958527842385278C932F5F3F4F8F
:101020002530310559F708958091450690911406B1
:10103000981301C008958F5F8770FACF882341F01D
:101040008095909199068923809399060C946A075C
:101050000895882339F090919906982B90939906DA
:101060000C946A0708952091F0053091F105281736
:10107000390771F09093F1058093F005E0917606C1
:10108000F0917706309721F00084F185E02D0994E6
:1010900008952091EE053091EF052817390771F07A
:1010A0009093EF058093EE05E0917606F091770638
:1010B000309721F00680F781E02D09940895109271
:1010C0006606109265060E946A0790E080E00E9422
:1010D000490890E080E00C9433086093C90670934F
:1010E000CA068093CB069093CC060C945F080F93AE
:1010F0001F936091C9067091CA068091CB069091AA
:10110000CC068B019C010871112722273327083157
:1011100011052105310529F481601F910F910C946F
:101120006D088E7FFACF0F931F9341E050E060E08F
:1011300070E004C0440F551F661F771F8A95D2F7D1
:10114000CB01BA0160957095809590950091C90684
:101150001091CA062091CB063091CC0660237123F2
:10116000822393231F910F910C946D089091640634
:101170008095892380936406282F277071F4282F87
:10118000082E000C330B9217130639F085958595C0
:1011900085950E9493081092640608950F931F93FB
:1011A00041E050E060E070E004C0440F551F661F4E
:1011B000771F8A95D2F78091C9069091CA06A091AF
:1011C000CB06B091CC068A019B01082B192B2A2B48
:1011D0003B2BC901B8011F910F910C946D086093CE
:1011E00068067093690680936A0690936B060C9468
:1011F0005F08E0917606F0917706309721F0019034
:10120000F081E02D099480E00895882309F452C00C
:10121000823871F40E94F90881FF4CC089E30E9472
:10122000A4070E946A0789E30E9497070C946A0743
:10123000833859F40E94F90880FF3CC083E50E947E
:10124000A4070E946A0783E5EFCF843859F40E940F
:10125000F90882FF2FC087E40E94A4070E946A0752
:1012600087E4E2CF9CEF980F913AF0F290E2980F6A
:10127000983088F4877021E030E0A90102C0440F63
:10128000551F8A95E2F7CA018095909199068923A6
:1012900080939906CBCF9BE5980F933020F490E094
:1012A00080E00C944908885A873120F490E080E06F
:1012B0000C94330808958091910680FF02C08695B2
:1012C000089580E0089580919106982F9E7F29F4DB
:1012D000817082608093910608958A34E8F381706A
:1012E0008864F8CFAF92BF92CF92DF92EF92FF92D5
:1012F0000F931F93CF93DF93F82EE62EE901E42F8F
:10130000F0E0611113C0E25DFE4F8491E82F482F99
:1013100049838883EA83DF91CF911F910F91FF90DA
:10132000EF90DF90CF90BF90AF900895062F10E020
:1013300026E0829FC00111242FEF30E0B9010E9406
:10134000462E8F2D90E0880F991F55E5569FD001AE
:10135000579FB00D11248A1B9B0B982F990F890F53
:101360006901C01AD10ACE9ED001CF9EB00DDE9E7B
:10137000B00D11249B2FE89E70011124EF2CFF2447
:101380006901CE18DF08CE9E7001CF9EF00CDE9E64
:10139000F00C11245901A81AB108A09E6001A19E69
:1013A000D00CB09ED00C1124CD2CDD242C193D097D
:1013B0002E9F80012F9F100D3E9F100D1124812F15
:1013C0006230710509F148F46115710569F0613009
:1013D0007105F1F08B2F9F2D07C064307105D9F096
:1013E000F0F066307105B1F7E42FF0E0E25DFE4FFA
:1013F0004491E82FF0E0E25DFE4F8491E92FF0E0A8
:10140000E25DFE4FE49184CF842F4B2F912FECCFE0
:10141000842F4F2DE9CF8B2F942F412FE5CF4B2FCA
:101420009E2F8F2DE1CF9091730692FF06C0282F3B
:1014300028712830F9F4877F846093FF06C0282F35
:1014400028712831F1F4877E84612091740620FF91
:1014500006C0382F38713830D9F4877F816021FF7A
:1014600006C0282F28712831D1F4877E816194FD30
:10147000877E0895282F24712430F9F68B7F8860A9
:10148000DCCF282F2471243101F78B7E8861DDCFDA
:10149000382F3171313019F78E7F8860E0CF282FD7
:1014A0002171213121F78E7E8861E1CFCF93DF93C7
:1014B000972F70E026E0929F600D711D1124FB01B3
:1014C00030E3839FE00DF11D1124EE0FFF1FED5C53
:1014D000FC4FC591D491CE01C238D105B9F1E8F5E0
:1014E000C133D10509F499C050F5C932D10509F4C9
:1014F0008DC0CA32D10509F497C0C11540E5D407A3
:1015000008F0C5C0C11520E4D20708F0BFC1C83E2D
:10151000D10508F0A0C0C03ED10568F5C83AD10594
:1015200008F089C0C53AD10508F00CC1C130D10519
:1015300011F1209709F443C02497E8F440C0C53363
:10154000D10509F45CC0C933D105B9F62091730601
:10155000237089F080EE90E00EC0C33ED10591F17A
:1015600068F4C03ED105F9F0C23ED10531F62091B4
:10157000730622FD20C0DF91CF910895C63ED105AC
:1015800061F1C73ED10581F1C43ED10509F0B5CF67
:101590002091740621FFEFCF8091730684FD0FC068
:1015A00087EE90E0E8CF2091730620FDB5C1309121
:1015B000740630FFE0CF83EE90E024FFDCCF90E0B4
:1015C00080E0D9CF2091730622FDA9C13091740625
:1015D00030FDC0CF24FFCFCFF2CF2091730623FF81
:1015E000CACF24FDECCFDCCF2091730623FD9AC136
:1015F0003091740631FFEECF84EE90E0BCCF2091A5
:10160000730625FFB8CF89E290E0B5CF209173062D
:1016100025FFB1CF85E390E0AECF2091730626FF82
:10162000AACF8AE290E0A7CF2091730626FFA3CF2E
:1016300081E390E0A0CFCF3BD10508F492C0C03C3D
:10164000D10508F4BCCFFE01EE0FFF1FE255F040BC
:101650008591949190CFC11530E2D30760F4C11504
:1016600041E0D40708F087CFCE019065C03FD10597
:1016700008F081CFA4CFC11580E3D80708F0FEC0E1
:10168000FE01FF70EE0FFF1FE25DFE4FE1CFC115BF
:1016900095E5D90748F5C11524E5D20708F025C11D
:1016A000C11532E5D30750F4C11541E5D40708F45C
:1016B000F1C09C2F8827816F906A5DCF9C2F9695F3
:1016C0009695AE0143705527C115D34508F0FEC06D
:1016D00021E030E002C0220F331F4A95E2F740E2DA
:1016E000949FC0011124EEC0C11599E5D907A0F45B
:1016F000C11528E5D20708F0FDC0C11536E5D307AE
:1017000008F05DCF8C2F0E94130A90E0982F882755
:1017100088279F7190622FCFC1154AE5D40708F43E
:10172000EEC0CE0190568115904208F048CF8D2F23
:101730008F710E94130A90E0982F882788279F7145
:101740008C2BE8CF81E890E4C53AD10509F413CF9A
:1017500082E890E4C63AD10509F40DCF83E890E41D
:101760000ACF82EE94E4C83AD10509F404CF89EE99
:1017700094E4C93AD10509F4FECE8AEE94E4CA3A5B
:10178000D10509F4F8CE85EB94E4CB3AD10509F400
:10179000F2CE86EB94E4CC3AD10509F4ECCE83EB9F
:1017A00094E4CB3BD10509F4E6CE84EB94E4CC3B46
:1017B000D10509F4E0CE87EB94E4CD3AD10509F4E4
:1017C000DACE8CEC94E4C03BD10509F4D4CE8DEC98
:1017D00094E4CE3AD10509F4CECE83E895E4CF3A2D
:1017E000D10509F4C8CE8AE895E4C13BD10509F4D6
:1017F000C2CE82E995E4C23BD10509F4BCCE84E9AE
:1018000095E4C33BD10509F4B6CE81E296E4C43B2E
:10181000D10509F4B0CE83E296E4C53BD10509F4C5
:10182000AACE84E296E4C63BD10509F4A4CE85E2B3
:1018300096E4C73BD10509F49ECE86E296E4C83B08
:10184000D10509F498CE87E296E4C93BD10509F4A5
:1018500092CE8FE694E4CD3BD10509F48CCE80E79F
:1018600094E4CE3BD10509F486CE80E094E4CA3BF3
:10187000D10509F080CE8AE296E47DCECE0199278B
:10188000D3FF02C0986C77CE906C75CECE019F705E
:10189000906A71CE9E01E4E036952795EA95E1F7CE
:1018A00023708C2F86958695837030E2839FC001CC
:1018B0001124922BC37021E030E002C0220F331FAD
:1018C000CA95E2F7822B932B9C6855CE21E030E03D
:1018D00002C0220F331F4A95E2F740E2949FC001F5
:1018E0001124822B932B9A6846CE9C2F8827846FD5
:1018F000906A41CE9C2F8827806F906A3CCE8C2FB7
:101900008F700E94130A34E0D695C7953A95E1F797
:10191000CF709C2F90692FCE89E390E02CCE82EE81
:1019200090E029CE86EE90E026CEBF92CF92DF9255
:10193000EF92FF920F931F93CF93DF938C01C09090
:10194000C906D090CA06E090CB06F090CC068091F4
:10195000680690916906A0916A06B0916B06C82A44
:10196000D92AEA2AFB2ACFE1D0E0BC2ED701C60152
:101970000C2E04C0B695A795979587950A94D2F733
:1019800080FD0EC0219788F7B12C8B2DDF91CF9170
:101990001F910F91FF90EF90DF90CF90BF9008952F
:1019A000B8018C2F0E94560A019761F3EECFCF93B6
:1019B000DF93EC010E94950CBE01DF91CF910C9456
:1019C000560A0E94D70C292F2F7092959F70925023
:1019D0009E3078F4E92FF0E0E957FD4C0C946E2E20
:1019E000803F19F020F4883E20F481E00895843F80
:1019F000E1F380E00895883EC0F3813FD1F7F5CF51
:101A0000822F8695869586950895CF9384E090E001
:101A10000E94742EC82F81E290E00E94742E982FAD
:101A20008C2FCF910895CF93DF9300D00F92CDB735
:101A3000DEB79C0190917006911129C08091A60695
:101A4000843049F584E089833B832A8382E0809354
:101A5000E9008FEF9091E800815095FD06C095ED6B
:101A60009A95F1F700008111F5CF8091E80085FF8C
:101A700012C050E040E063E070E0CE0101960E94A9
:101A8000EF058091E8008E778093E80004C09230E3
:101A9000C9F29430B9F20F900F900F90DF91CF916F
:101AA0000895CF93DF9300D00F92CDB7DEB720918A
:101AB000A606243031F523E02983805891099B83C1
:101AC0008A8382E08093E9008FEF9091E800815053
:101AD00095FD06C095ED9A95F1F700008111F5CFBF
:101AE0008091E80085FF0DC050E040E063E070E0C9
:101AF000CE0101960E94EF058091E8008E778093D9
:101B0000E8000F900F900F90DF91CF910895CF9341
:101B1000DF93EC0180917006811107C08091A606C9
:101B2000843029F0DF91CF9108958230C9F781E0A8
:101B30008093E9008FEF9091E800815095FD06C0F9
:101B400095ED9A95F1F700008111F5CF8091E800AD
:101B500085FFE8CF50E040E068E070E0CE010E94F1
:101B6000EF058091E8008E778093E80088E0FE0121
:101B7000ACE9B6E001900D928A95E1F7D3CF8823C6
:101B800009F402C18238B9F40E94F90881FDFCC051
:101B900089E30E94A4070E946A072FEF81EE94E078
:101BA000215080409040E1F700C0000089E30E948E
:101BB00097070C946A078338A1F40E94F90880FD06
:101BC000E3C083E50E94A4070E946A072FEF81EE1D
:101BD00094E0215080409040E1F700C0000083E590
:101BE000E6CF8438A1F40E94F90882FDCDC087E4D5
:101BF0000E94A4070E946A072FEF81EE94E0215013
:101C000080409040E1F700C0000087E4D0CF9CEF17
:101C1000980F913A18F40E94A407CBCF90E2980F46
:101C2000983068F4877021E030E001C0220F8A9577
:101C3000EAF780919906822B80939906BACF9BE5AB
:101C4000980F933070F4853A31F0863A39F083E892
:101C500090E00C94490881E890E0FBCF82E890E0A6
:101C6000F8CF98E5980F973108F08EC0883A09F4BC
:101C700046C0893A09F446C08A3A09F446C08B3A0C
:101C800009F446C08C3A09F446C08B3B09F446C0BF
:101C90008C3B09F446C08D3A09F446C0803B09F4F8
:101CA00046C08E3A09F446C08F3A09F446C0813BDB
:101CB00009F446C0823B09F446C0833B09F446C0A0
:101CC000843B09F446C0853B09F446C0863B09F4D1
:101CD00046C0873B09F446C0883B09F446C0893BAF
:101CE00009F446C08D3B09F446C08E3B09F446C05A
:101CF0008A3B09F446C090E080E00C94330882EE01
:101D000090E0FBCF89EE90E0F8CF8AEE90E0F5CF3F
:101D100085EB90E0F2CF86EB90E0EFCF83EB90E0A5
:101D2000ECCF84EB90E0E9CF87EB90E0E6CF8CEC52
:101D300090E0E3CF8DEC90E0E0CF83E891E0DDCF61
:101D40008AE891E0DACF82E991E0D7CF84E991E0A7
:101D5000D4CF81E292E0D1CF83E292E0CECF84E291
:101D600092E0CBCF85E292E0C8CF86E292E0C5CF89
:101D700087E292E0C2CF8FE690E0BFCF80E790E0AD
:101D8000BCCF8AE292E0B9CF08950F931F93CF930F
:101D9000DF93C62FD42F022FFC0182818823A1F06C
:101DA00060930C060E9458079093ED058093EC0514
:101DB000C77081E001C0880FCA95EAF7DF91CF9123
:101DC0001F910F910C94290810910C06161338C01E
:101DD0008091EC059091ED050E942E07883C9105BD
:101DE00078F5C0E2CD0F1D17B9F080E2810F883081
:101DF00040F4177081E001C0880F1A95EAF70E943D
:101E00001E08C83048F481E09D2F977001C0880FEC
:101E10009A95EAF70E942908802F0E94BF0D802F13
:101E20000E940509C83098F4D77081E001C0880F7E
:101E3000DA95EAF7DF91CF911F910F910C941E086C
:101E4000C77081E001C0880FCA95EAF7F3CFDF9130
:101E5000CF911F910F9108958091910680FD0AC046
:101E6000E8ECF5E0118210821282339655E0EC3EE8
:101E7000F507C1F7809A31B33E7F21B321604FB798
:101E8000F89488EC95E0FC015191CF0168E021BB0A
:101E9000000000C057FF31BB550F000000C000C05C
:101EA00000C031BB00C06A9591F7F5E08C3E9F07FA
:101EB00051F74FBF87EC90E00197F1F700C00000A9
:101EC0000895EF92FF920F931F93CF93DF938C01AE
:101ED000C8ECD5E0F12CE12CF801948160919306D7
:101EE00080919206F6E0EF16F104FCF49923F9F0E4
:101EF0009E01409194060E9472092FEFE21AF20AA5
:101F000023968CE0E816F10439F70E942C0FF801B3
:101F1000848190E00196817099278483DF91CF912D
:101F20001F910F91FF90EF900895992309F39E015F
:101F300040E0E1CFEF92FF921F93CF93DF93EC014C
:101F400088ECE82E85E0F82E10E08C819701409116
:101F5000940660919306810F0E9472091B5E83E0D4
:101F6000E80EF11C1C3F89F70E942C0F9A818C818E
:101F700090FF08C08F5F8C83DF91CF911F91FF90FE
:101F8000EF9008958150F7CFCF92DF92EF92FF92BA
:101F90000F931F93CF93DF93FC018281DD24DA94AA
:101FA00080FD02C0DD24D39408EC15E0D0E0C0E051
:101FB000F80111821082128294E0E92EF12CC12CDA
:101FC0008091C5058C0D87FD845F082E000C990B50
:101FD0008C179D0791F4809194068E9DA0018F9D92
:101FE000500D112455954795559547959801609149
:101FF0009306809192060E947209CD0CF1E0EF1ACF
:10200000F108F1F621960D5F1F4FCC30D10581F616
:102010000E942C0F8091C50591E0D91210C081114A
:102020000CC08BE08093C505DF91CF911F910F917C
:10203000FF90EF90DF90CF9008958150F3CF90E024
:102040000196BE010E945A2EEDCF0F931F93CF939E
:10205000DF93C8ECD5E0FE01118210821282339624
:1020600085E0EC3EF807C1F710E000E08091C6057E
:10207000082E000C990B081719078CF18091890321
:10208000082E000C990B801791074CF19E0140918E
:10209000940660919306809192060E9472090F5FE8
:1020A0001F4F23960C30110509F70E942C0F8091C9
:1020B00088039091C605980F9093C60520918903D7
:1020C000280F20938903121614F49B301CF081957D
:1020D00080938803DF91CF911F910F91089519820A
:1020E00018821A82DCCFEF92FF920F931F93CF9347
:1020F000DF93EC018C819D810196817099279D83EE
:102100008C8388ECE82E85E0F82E10E005E5812F21
:1021100086952C813D81820F932F911D81709701AF
:102120004091940660919306809F802D11240E9417
:1021300072091F5F83E0E80EF11C1C3041F7DF914C
:10214000CF911F910F91FF90EF900C942C0F9091D5
:10215000910690FF0CC0E8ECF5E081836083428338
:10216000339695E0EC3EF907C1F70C942C0F0895D7
:102170000F931F93CF93DF9300D00F92CDB7DEB7AD
:102180008C018091C70581110AC09E012F5F3F4FCE
:102190004FEF6FEF0E9472098A818093C705F801A3
:1021A0006481613069F08091C70540E0662361F089
:1021B00040E0623011F44091C70580E060E004C067
:1021C0006091C70540E080E00E94A710F80184817B
:1021D00090E0019663E070E00E945A2E84830F9095
:1021E0000F900F90DF91CF911F910F910895CF9392
:1021F000DF9300D00F92CDB7DEB79091910690FF9C
:102200000AC09E012F5F3F4F0E9472094B81698176
:102210008A810E94A7100F900F900F90DF91CF91AD
:102220000895CF93DF93EC01EC81F0E0ED5CFD4F7E
:102230004491E1E9F6E0628181810E94F7108C818E
:102240008F5F8C83DF91CF910895CF93DF93EC0163
:10225000E1E9F6E0438162818C810E94F7108C8174
:102260008F5F8C83DF91CF910895809185058111D7
:1022700011C08091D80080618093D8008AE18A954E
:10228000F1F700C09091D900892F817090FF82E012
:102290008093850581E090918505913009F080E07B
:1022A000089590E080E00E94822E21E08C3E9E4FB7
:1022B00009F020E0822F0895CF92DF92EF92FF92F3
:1022C0006B017C010E946309B701A60188E090E0E0
:1022D000FF90EF90DF90CF900C949A2E5F926F92C8
:1022E0007F928F929F92AF92BF92CF92DF92EF92A6
:1022F000FF920F931F93CF93DF9300D00F92CDB730
:10230000DEB7182F762E042F622E9091910690FF43
:1023100029C0E92FE695AE2FB0E0A45CBA4F8C91AE
:10232000809396069E7F923081F59E012F5F3F4FEE
:10233000812F0E9472094B8169818A810E94A710B6
:10234000109392067092930600939406662051F0C3
:1023500060919106709192068091930690919406F7
:102360000E945C110F900F900F90DF91CF911F9101
:102370000F91FF90EF90DF90CF90BF90AF909F9024
:102380008F907F906F905F900895823019F4009144
:102390009406D6CF863019F410919206D1CF8930A9
:1023A000D9F3893169F6E9518E2F8170582EE6955F
:1023B000F0E0E25DFD4FA590B490BB2488ECE82EE0
:1023C00085E0F82ED12CC12C9CE0892E912CC601E1
:1023D000B4010E94462E812F511013C0860F970121
:1023E000402F672D0E947209CA0CDB1C83E0E80EA7
:1023F000F11C8CEEE81685E0F80649F70E942C0FD8
:102400009FCF861BECCFE1E9F6E083E08083118269
:102410008FEF8283838314826081718182819381B3
:102420000C945C116CEE7EEF90E080E00E94A62E92
:1024300060E082E090E00E94882E60E083E090E01F
:102440000E94882E109268061092690610926A0601
:1024500010926B0660E084E090E00E94882E60E0BD
:1024600081E290E00E94882E60E085E090E00E948A
:10247000882E60E086E090E00E94882E6FEF87E073
:1024800090E00E94882E40E050E0BA0188E090E0A1
:102490000E949A2E60E08DE090E00E94882E40E03D
:1024A00050E0BA0188E190E00E949A2E60E087E156
:1024B00090E00E94882E40E050E0BA018CE190E06C
:1024C0000E949A2E60E080E290E00E94882E40E018
:1024D00050E0BA018FE090E00E949A2E40E050E078
:1024E000BA0183E190E00C949A2E0E94511181115F
:1024F00002C00E94121287E090E00E94742E809326
:10250000C7068091C806811129C03E9A809171004A
:102510008D7F8093710082E0809390008AE18093A8
:10252000910081EC91E1909397008093960023EACB
:102530003BE04EE855E460919802709199028091D9
:102540009A0290919B020E9486300E94A02F709365
:1025500099006093980081E08093C8068091C70637
:1025600080FF06C063E070E080E892E00C94E8121F
:1025700008958091C806811102C00E9475121092C0
:10258000C4051092C305809171008D7F8093710006
:10259000809190008F73809390001092C5061092E6
:1025A000C6061092990510929A0510929B051092FA
:1025B0009C05EDE9F5E0A6E8B5E0119211921192C3
:1025C00011921D921D9285E0ED3BF807B1F7089539
:1025D0000F931F93CF93DF93EC018B018091C8067B
:1025E000811102C00E9475128091C70680FF4FC002
:1025F000809171008D7F809371008091C60681115A
:102600000E94B91281E08093C506D093C406C0939E
:10261000C3061093C2060093C1061092C006109222
:10262000BC061092BD061092BE061092BF06109214
:10263000BB061092BA0688819981AA81BB818093DA
:10264000B6069093B706A093B806B093B90620E0FB
:1026500030E040E85EE36C817D818E819F810E9445
:1026600086306093B2067093B3068093B40690935D
:10267000B5061092B1061092B0068091710082608A
:102680008093710080919000806880939000DF912A
:10269000CF911F910F91089581E080930A0668E021
:1026A00070E08DE393E00C94E81281E080930B06D8
:1026B00068E070E08DEB92E00C94E8126091C70640
:1026C00061606093C70687E090E00E94882E62E018
:1026D00070E08DE992E00C94E812CF93DF93C82F5D
:1026E00020E8829FC001112460E170E080509F4F7C
:1026F0000E94E81261E070E0CB0102C0880F991FD0
:10270000CA95E2F7EC01682F83E090E00E94882EE2
:10271000BE0190E080E0DF91CF910C94EF088091B2
:102720000B0681110C94B91208950E948F13109218
:102730000B0668E070E08DEF92E00C94E81262E026
:1027400070E08DEA92E00E94E8122FEF81EE94E0B3
:10275000215080409040E1F700C000000E94B91273
:102760006091C7066E7F6093C70687E090E00C9487
:10277000882EE2E7F5E086E0DF011D928A95E9F711
:102780000C945F081F93CF93DF93CDB7DEB7AA9762
:102790000FB6F894DEBF0FBECDBF88EA96E0209159
:1027A000F100FC012193CF01F6E0803B9F07B9F7D0
:1027B0008091A906833009F46FC0B8F4813009F420
:1027C00046C0823009F4B2C08091E80083FF89C21C
:1027D0008091A8069091A9069A3008F082C2E92F4C
:1027E000F0E0EB56FD4C0C946E2E8A3009F48DC04F
:1027F0008B3009F46EC0893039F78091A806813298
:1028000019F78091AC069091AD060297E8F6809199
:10281000E800877F8093E8008091E80082FF37C05E
:102820009091F3008091F200029729F48091F100D9
:102830008B7F813021F48091F10080939B06809101
:10284000E8008B778093E8000E941906BDCF809145
:10285000A806813A09F0B8CF8091E800877F80937D
:10286000E8008091AC069091AD06892B61F468E098
:102870008CE996E070E00E94CB068091E8008B77AF
:102880008093E800A1CF60E090E080E0F3CF8091FA
:10289000A6068111C1CF98CF8091A806813A09F090
:1028A00093CF8091AC069091AD06892B09F08CCF27
:1028B0008091E800877F8093E8008091E80080FFA6
:1028C000FCCF809118058093F1008091E8008E770D
:1028D000B9CF8091A806813209F076CF8091AC06FD
:1028E0009091AD06892B09F06FCF8091E800877F2A
:1028F0008093E8000E9419068091AA06809318052B
:10290000109299060E94B9135FCF8091A806813278
:1029100009F05ACF8091E800877F8093E8000E94F9
:1029200019068091AB0680939A064ECF8091A80637
:10293000813A09F049CF8091E800877F8093E800D1
:102940008091E80080FFFCCF80919A06BCCF803850
:1029500099F0823809F0C5C18091AC068F7087303C
:1029600008F0BFC18093E9008091EB0085FB8827C8
:1029700080F91092E90006C08091A4069091A50606
:10298000911182609091E800977F9093E800809386
:10299000F1001092F1008091E8008E779EC18823AB
:1029A00009F48CC1823009F09CC18091AA06811182
:1029B0008FC18091AC068F702FEF280F263008F062
:1029C00090C18093E9002091EB0020FF81C19330FA
:1029D00031F48091EB0080628093EB0079C190919B
:1029E000EB0090619093EB0021E030E001C0220FFA
:1029F0008A95EAF72093EA001092EA008091EB00B2
:102A00008860EACF81116DC11091AA061F7780916D
:102A1000E3008078812B8093E3008091E800877F3A
:102A20008093E8000E9419068091E80080FFFCCFA7
:102A30008091E30080688093E30082E0111183E0DD
:102A40008093A6064EC18058823008F04AC180911A
:102A5000AA069091AB068C3D23E09207A1F583E096
:102A60008A838AE289834FB7F894DE01139620E0C7
:102A70003EE051E2E32FF0E050935700E49120FF55
:102A800003C0E295EF703F5FEF708E2F90E0EA3069
:102A9000C0F0C7968D939D932F5F243159F74FBF98
:102AA0008091E800877F8093E8006AE270E0CE01C1
:102AB00001960E94CB068091E8008B778093E80016
:102AC00010C1C096E7CF4091AC065091AD06292FBA
:102AD00033272330310509F445C078F5213031051D
:102AE00009F47BC08BE390E0EBE1FAE022303105A2
:102AF00009F0F7C02091E800277F2093E80020919B
:102B0000AE063091AF068217930708F49C0140E0AF
:102B10002115310509F070C041116EC08091E800A7
:102B200082FDC9CF8091A606882329F2853019F24B
:102B30008091E80083FFF2CFBECF2132310509F446
:102B400040C02232310509F0CCC04115510509F4CD
:102B50004EC04130510509F0C4C086E390E0E5EA7B
:102B6000F9E0C8CF992781309105D9F0009771F02D
:102B700082309105F1F0039709F0B3C0E8E6FAE07E
:102B8000E4918E2F90E0E8E6FAE007C0E8EAFAE088
:102B9000E4918E2F90E0E8EAFAE0009709F4A1C0F2
:102BA000A9CFE4E9FAE0E4918E2F90E0E4E9FAE0BD
:102BB000F4CFEEE6FAE0E4918E2F90E0EEE6FAE054
:102BC000ECCF4115510571F04130510509F089C034
:102BD00089E090E0E6E4FAE08DCF82E190E0E6E57E
:102BE000FAE088CF89E090E0EDE2FAE083CF80E47C
:102BF00090E0EBEDF9E07ECF8091A606882309F402
:102C00005ACF853009F457CF8091E80083FD53CF28
:102C10008091E80082FD82CF8091E80080FF78CF2C
:102C20009091F3008091F2002115310519F0883060
:102C3000910550F041E0089709F040E08091E800EC
:102C40008E778093E80064CF44914093F1003196F1
:102C5000215031090196E8CF803809F042C08091B7
:102C6000E800877F8093E8008091A7068093F100B9
:102C700092CE811136C01091AA06123090F5809143
:102C8000E800877F8093E8001093A7060E9419064A
:102C9000112311F084E005C08091E30087FDFACF95
:102CA00081E08093A60642E061EC81E00E94380654
:102CB00042E261EC82E00E94380613C08091AA06CD
:102CC000813079F481E0933009F080E08093A506AB
:102CD0001092E9008091E800877F8093E8000E94CD
:102CE00019068091E80083FF0AC08091E800877F81
:102CF0008093E8008091EB0080628093EB00AA96BD
:102D00000FB6F894DEBF0FBECDBFDF91CF911F91FC
:102D100008959091910690FF3DC09170811129C056
:102D2000926090939106662351F0609191067091A4
:102D3000920680919306909194060E945C11609196
:102D40009106669570E04BE050E08DE793E00E94BD
:102D50007832892BA9F01092970681E080938E0635
:102D600020E04091940660919306809192060C9425
:102D70006E11853210F09864D4CF880F982BD1CF84
:102D800081E0809397060E94580790938C06809369
:102D90008B06E3CF089561E00C948916809191062B
:102DA0008695815009F484E261E00C948916809143
:102DB000910686958F5F853208F081E061E00C9482
:102DC0008916CF92DF92EF92FF92CF93C82F809116
:102DD000C806811102C00E9475128091C70680FF4B
:102DE00068C08091C3059091C40508970CF061C03C
:102DF000809171008D7F809371008091C506811153
:102E00000E94B9128C2F8554990BBC01072E000C1F
:102E1000880B990B0E94D12F20E030E040E451E470
:102E20000E942E2F9B01AC0160E070E080E090E4F6
:102E30000E94F33020E030E04CED53E40E948630F5
:102E40006B017C0181E08093C60610929805109278
:102E5000970520E030E0A901C701B6010E9481304A
:102E60001816ECF48091C3059091C405FC01EE0F97
:102E7000FF1FEE0FFF1FE356FA4FC082D182E2829E
:102E8000F382FC01EE0FFF1FEA57FA4F2FE030E00C
:102E90003183208301969093C4058093C30580916C
:102EA00071008260809371008091900080688093AF
:102EB0009000CF91FF90EF90DF90CF900895CF9248
:102EC000DF92EF92FF920F931F93CF93DF93C82F60
:102ED0008091C606882309F47AC08091C8068111C2
:102EE00002C00E9475128C2F8554990BBC01072ECD
:102EF000000C880B990B0E94D12F20E030E040E4B9
:102F000051E40E942E2F9B01AC0160E070E080E054
:102F100090E40E94F33020E030E04CED53E40E9456
:102F200086306B017C010DE915E0C7E0D0E0A70118
:102F30009601F801648D758D868D978D0E94292FDD
:102F400081115FC0FE01EE0FFF1FEE0FFF1FE35662
:102F5000FA4F1082118212821382CC0FDD1FCA57E2
:102F6000DA4F1982188285E0E93BF807C9F58091AC
:102F7000C3059091C405019797FD4BC09093C4057C
:102F80008093C3058091C3059091C4052091BD0530
:102F90003091BE052817390724F01092BE05109213
:102FA000BD05892BA1F4809171008D7F8093710004
:102FB000809190008F7380939000109299051092E9
:102FC0009A0510929B0510929C051092C606DF91FF
:102FD000CF911F910F91FF90EF90DF90CF900895C8
:102FE00084819581A681B78181939193A193B193B7
:102FF00010821182128213828A819B818993999314
:10300000B0CF219704501109CF3FDC0709F08FCFD3
:10301000AECF1092C4051092C305B4CF4F925F9209
:103020006F927F928F929F92AF92BF92CF92DF92D8
:10303000EF92FF920F931F93CF93DF93CDB7DEB73D
:10304000A3970FB6F894DEBF0FBECDBF7C01DC01A5
:1030500013968D919C911497892B49F01C91119690
:10306000DC90812F8D218F3F11F00C943821A39695
:103070000FB6F894DEBF0FBECDBFDF91CF911F9189
:103080000F91FF90EF90DF90CF90BF90AF909F9007
:103090008F907F906F905F904F9008950E94950C55
:1030A000082F682F89819A810E94E607E12FF0E0BE
:1030B000B6E0DB9EE00DF11D112420E3029FE00D40
:1030C000F11D1124EE0FFF1FED5CFC4F05911491D3
:1030D00001153DE5130709F47DC068F50E3F8CE549
:1030E000180709F451C00F3F9CE5190709F46BC09C
:1030F0000D31FCE51F0709F0BAC0D70112968C917B
:10310000882309F4C1C1A3960FB6F894DEBF0FBEA1
:10311000CDBFDF91CF911F910F91FF90EF90DF9086
:10312000CF90BF90AF909F908F907F906F905F9067
:103130004F900C945E130230ADE51A0709F475C088
:1031400008F450C00330EDE51E0791F6F7018281C7
:10315000882309F473C080E1A3960FB6F894DEBF0C
:103160000FBECDBFDF91CF911F910F91FF90EF90D8
:10317000DF90CF90BF90AF909F908F907F906F9097
:103180005F904F900C94CE08D70112968C918823B3
:1031900009F46DCF80E0A3960FB6F894DEBF0FBEA2
:1031A000CDBFDF91CF911F910F91FF90EF90DF90F6
:1031B000CF90BF90AF909F908F907F906F905F90D7
:1031C0004F900C946D13F7018281882309F44FCF3F
:1031D00081E0E1CFD70112968C91882309F447CF83
:1031E00082E0D9CFF7018281882321F083E00E9419
:1031F000CE0803C083E00E949308A3960FB6F8940C
:10320000DEBF0FBECDBFDF91CF911F910F91FF9019
:10321000EF90DF90CF90BF90AF909F908F907F9076
:103220006F905F904F900C947708D70112968C9115
:10323000882311F084E0DBCF84E0DDCF80E1A3962A
:103240000FB6F894DEBF0FBECDBFDF91CF911F91B7
:103250000F91FF90EF90DF90CF90BF90AF909F9035
:103260008F907F906F905F904F900C9493080E31E9
:10327000BCE51B07E9F4F7018281882309F404C146
:10328000A3960FB6F894DEBF0FBECDBFDF91CF91EE
:103290001F910F91FF90EF90DF90CF90BF90AF9074
:1032A0009F908F907F906F905F904F900C949F13A2
:1032B0000F31FCE51F0759F4D70112968C91882332
:1032C00009F4E2C08091C70680FDDACF1CCF0A3234
:1032D000BCE51B0719F5F7018281882309F4D4C0E6
:1032E0001092F20564E070E08AE893E0A3960FB6CE
:1032F000F894DEBF0FBECDBFDF91CF911F910F912C
:10330000FF90EF90DF90CF90BF90AF909F908F9005
:103310007F906F905F904F900C94E8120B32FCE519
:103320001F0721F4D70112968C91D7CF0632BCE546
:103330001B07E9F4F7018281882309F4A5C0A3964D
:103340000FB6F894DEBF0FBECDBFDF91CF911F91B6
:103350000F91FF90EF90DF90CF90BF90AF909F9034
:103360008F907F906F905F904F900C945513073221
:10337000FCE51F07F1F4D70112968C91882309F41C
:1033800083C0A3960FB6F894DEBF0FBECDBFDF910A
:10339000CF911F910F91FF90EF90DF90CF90BF9052
:1033A000AF909F908F907F906F905F904F900C9414
:1033B00095130832BCE51B0751F4F701828188237D
:1033C00009F462C080910B068111DBCFB8CF0C32BB
:1033D000FCE51F07F1F4D70112968C91882309F4BC
:1033E00053C0A3960FB6F894DEBF0FBECDBFDF91DA
:1033F000CF911F910F91FF90EF90DF90CF90BF90F2
:10340000AF909F908F907F906F905F904F900C94B3
:103410004C130D32BCE51B0759F4F7018281882358
:1034200099F110920A0668E070E08AEA93E05ECFB4
:103430000E32FCE51F0751F4D70112968C918823B8
:1034400019F180910A068111ECCFCBCF0932BCE58E
:103450001B07D1F4F70182818823B1F00E948F13FA
:1034600020918A0430E02F5F3F4F23703327209351
:103470008A0448E2429FC001439F900D112465E0F9
:1034800070E086519C4F32CF20910B062111AAC0CB
:1034900080910A068111A6C0003FFCE51F0709F4D0
:1034A0006CC150F5083D3CE5130709F462C1093DC4
:1034B0004CE5140709F46DC1073D8CE5180751F57B
:1034C00026E241EE61EEC701A3960FB6F894DEBF87
:1034D0000FBECDBFDF91CF911F910F91FF90EF9065
:1034E000DF90CF90BF90AF909F908F907F906F9024
:1034F0005F904F900C94C50E023F9CE5190709F4AC
:1035000044C108F43EC127E245EE66EE033FBCE548
:103510001B07C9F2D70112968C91882309F4BDC606
:1035200010920C060B3CBCE51B0709F4E5C208F041
:1035300068C1033CFCE51F0709F484C208F036C1EA
:1035400006313CE5130708F027C102304CE51407AB
:1035500008F0A2C101159CE5190709F4F4C1013076
:103560001C4509F432C2D7010D911C91882309F43E
:103570003FC4C8010E94950CD82E682FC8010E9434
:10358000E607B8018D2D0E94560A8C01882EF7019E
:10359000A580A2943FE0A322D280D11010926606AB
:1035A00080916406877079F0DD2069F080E2800FF9
:1035B000883048F082E00E94B608809164068770E7
:1035C000CC24C3948111C12CB12EB2942FE0B2222D
:1035D000FBE0FB1508F446C4EB2DF0E0E156FD4C92
:1035E0000C946E2EF7013281332309F44AC0003E59
:1035F000110561F40E948F1381E0809309061092F7
:103600000806109207061092060631CD023E1105FB
:1036100071F40E948F1380910906882319F081E0CC
:1036200080930806109209061092070620CD033EEB
:10363000110591F480910806882319F10E948F13D7
:103640001092090681E080930706109205061092F9
:103650000406109203060BCD80918B0490918C048C
:103660000A970235110541F00135110551F4809199
:103670008B0490918C040A9690938C0480938B0415
:10368000F6CC80918A0481112AC0D70111964C9101
:10369000119788E090E0841B9109DC90B0E1DB0E8B
:1036A000ECE08E9FD00C1124332309F45BC022235D
:1036B00019F08D2D0E94E11680910906882351F0A2
:1036C00080910606E82FF0E0ED50FA4FD0828F5F30
:1036D000809306060F3F110508F0DECEC8CC81307E
:1036E00081F4D70111964C91119788E090E0841BEA
:1036F0009109D82EDD0CDD0CD80E8C918D5CD80E86
:10370000D3CF823071F4F701418188E090E0841BCF
:103710009109D080F3E3DF0E47E0849FD00C1124A1
:10372000C3CF4CE0D42E833009F0BECF83E2E9E171
:10373000F5E0DE01119601900D928A95E1F7D7012F
:10374000EC91EC0FFD2FF11D11964C9188E090E06B
:10375000841B9109D084BCE08B9FD00C1124E9E03C
:10376000DE0EA2CF222309F4B5CF8D2D0E945F1764
:10377000B1CF27E245EE65EEA6CE26E241EE60EE41
:10378000A2CE27E245EE64EE9ECE26E241EE62EE48
:103790009ACE28E241E0EFCF0631BCE51B0709F4E1
:1037A000F6C2023C1C4509F462CCDDCE073CFCE5C8
:1037B0001F0709F45CCC08F05ACC053C3CE5130724
:1037C00009F455CC08F053CC80919906827209F423
:1037D0003EC1A3960FB6F894DEBF0FBECDBFDF91FA
:1037E000CF911F910F91FF90EF90DF90CF90BF90FE
:1037F000AF909F908F907F906F905F904F900C94C0
:10380000D716033D9CE5190709F4BDC110F50F3C1F
:10381000BCE51B0709F49FC170F40D3CFCE51F07D4
:1038200009F497C108F48FC10E945B09825083306C
:1038300080F282E0EFC0013D3CE5130709F49BC133
:1038400008F491C10E945B098551823010F285E134
:10385000E1C00D3D9CE5190709F4A1C188F4053DBF
:10386000BCE51B0709F499C108F48FC10C3D1C4548
:1038700009F079CE882309F4FACB10927006F7CBC1
:103880000E3D2CE5120709F4A9C09801275F3C45BD
:103890002730310508F067CE882309F464CE0E94F2
:1038A0005111811102C00E9412120E94050D9093C5
:1038B0007406809373060F302CE5120709F440C29A
:1038C00008F0B2C108304CE5140709F41FC208F033
:1038D0007DC104309CE5190709F40CC208F063C1EE
:1038E0000230BCE51B0709F4FFC1809173068260BA
:1038F00003301C4509F4FBC16091730610917406F6
:1039000084E090E00E94882E612F81E290E00E9486
:10391000882E10929906A3960FB6F894DEBF0FBEBC
:10392000CDBFDF91CF911F910F91FF90EF90DF906E
:10393000CF90BF90AF909F908F907F906F905F904F
:103940004F900C94B913109299060E94B9130E94DB
:103950008F130E9458078C0163E070E08DE894E0BB
:103960000E94E812C8010E942E078A3F910530F19B
:103970000E94B91281E08093E00080E28093D80039
:103980001092C900AFE1BEE41197F1F700C000004A
:1039900087E090EBDC018093CF069093D006A09354
:1039A000D106B093D20688E19CE00FB6F894A895B2
:1039B000809360000FBE90936000FFCF8FE99FE07F
:1039C0000197F1F700C00000CDCF90918206892FBA
:1039D0008E7F90FF81608093820649CBA3960FB6BD
:1039E000F894DEBF0FBECDBFDF91CF911F910F9135
:1039F000FF90EF90DF90CF90BF90AF909F908F900F
:103A00007F906F905F904F900C9412128160809322
:103A100091068695A3960FB6F894DEBF0FBECDBF74
:103A2000DF91CF911F910F91FF90EF90DF90CF909A
:103A3000BF90AF909F908F907F906F905F904F90CE
:103A40000C94CB1680919906827209F4C2CEA3968B
:103A50000FB6F894DEBF0FBECDBFDF91CF911F919F
:103A60000F91FF90EF90DF90CF90BF90AF909F901D
:103A70008F907F906F905F904F900C94CE168091B6
:103A8000920621E04091940660919306885FA39688
:103A90000FB6F894DEBF0FBECDBFDF91CF911F915F
:103AA0000F91FF90EF90DF90CF90BF90AF909F90DD
:103AB0008F907F906F905F904F900C946E116091FB
:103AC000930621E1620F08F46FEF21E04091940624
:103AD00080919206DCCF6091930621E1621B08F48D
:103AE00060E0F3CF4091940621E1420F08F44FEFDC
:103AF00021E060919306ECCF80919506833018F415
:103B00008F5F8093950660919106709192068091E7
:103B1000930690919406A3960FB6F894DEBF0FBE5D
:103B2000CDBFDF91CF911F910F91FF90EF90DF906C
:103B3000CF90BF90AF909F908F907F906F905F904D
:103B40004F900C945C11809195068823E1F281508E
:103B5000D8CF81E05FCF0E945B098650823008F4A5
:103B600038CE86E057CF0E945B098950853008F433
:103B700030CE89E04FCF0E945B098F50853008F42A
:103B800028CE8FE047CF88E145CF0E945B0989515D
:103B9000893008F41ECE89E13DCF83E23BCF82E03D
:103BA0008093700664CA8091730680610630FCE5DC
:103BB0001F0709F49CC080917306886007301C457C
:103BC00008F495C080917306806291C00B303CE58B
:103BD000130709F4ADC0A8F409308CE5180709F4FF
:103BE00099C00A301C4509F087CE809173068C601D
:103BF0008093730664E070E085EE94E00E94E81222
:103C00007BCE809173068B7F0D30ACE51A0709F4EB
:103C10006EC0809173068D7F0E301C4508F467C01E
:103C200080917306877F63C0073FECE51E0709F4A8
:103C300065C070F502312CE5120709F489C068F4FB
:103C400000314CE5140709F47FC001311C4509F02F
:103C500053CE809173068F7B4AC004319CE51907CF
:103C600009F48EC008F478C005311C4509F044CE33
:103C70008091730682FB992790F921E0922790FBAF
:103C800082F990FB83F98093730683FF6AC0B2CFF9
:103C90000A3FECE51E0709F44FC070F4083F2CE51D
:103CA000120781F1809174068E7F093F1C4509F04F
:103CB00023CE8093740620CE0C3F4CE5140709F404
:103CC00055C060F10D3F1C4509F016CE8091740679
:103CD000982F909591708E7F892B90FB81F980931E
:103CE000740681FF48C01FC0809173068160809375
:103CF000730602CE809173068460F9CF80917406BA
:103D00008160D7CF809174068260D3CF8091730693
:103D10008064EDCF809173068068E9CF809174064E
:103D200083608093740664E070E085EC94E066CF75
:103D3000809173068E7FDBCF809174068D7FB9CF23
:103D4000809173068F7ED3CF809173068F7DCFCF06
:103D5000809173068F77CBCF80917306837F80939A
:103D6000730662E070E085EB94E048CF80917406C2
:103D70008C7F8093740662E070E085EA94E03ECF29
:103D800090917306892F97FB87F98058B0CF809167
:103D900099068A7A91E009F490E090930D068111DA
:103DA0001BC089E20E94A407A3960FB6F894DEBF59
:103DB0000FBECDBFDF91CF911F910F91FF90EF907C
:103DC000DF90CF90BF90AF909F908F907F906F903B
:103DD0005F904F900C946A0785E3E4CF80910D06C5
:103DE000811104C089E20E949707DECF85E3FBCFF3
:103DF000C8010E94BD07D82EC4CB212F2F70A22E40
:103E0000107F19F0A29490EFA922DD20C9F0AA201A
:103E100069F080E2800F883010F081100BC0809133
:103E20009906A82AA09299060E946A07802F0E94EC
:103E3000BF0D18C080916606A82AA0926606F4CF2E
:103E4000802F0E940509AA2069F0A094005E083026
:103E500010F0811025C080919906A822A0929906A1
:103E60000E946A07AB2DA850BB0B149710F40E9458
:103E7000F908CC2009F4FBC88091640680FDF7C8DE
:103E8000F70112828595859585950E94CE08C70118
:103E90000E940E1880916406859585958595CFC9F9
:103EA00080916606A822A0926606DACF312F3F7075
:103EB000932E107F103219F0929480EF9822882070
:103EC00089F041E0841679F1DD20D1F1AA2089F151
:103ED000D70115968C91159780FFA8CF8F701596F6
:103EE0008C9327C0DD2091F090916706892F892956
:103EF000A11003C00E942908B5CFA1E0AA12FACFF1
:103F0000981709F4AFCF80936706ACCFA11006C015
:103F10000E946407892D0E941E08A4CFB1E0AB1651
:103F200009F4A0CFF5CFDD2031F0E5E0EA1508F483
:103F300099CF892DDFCFF4E0FA1508F493CFEACFBB
:103F4000AA2041F3093349F4BFEFE7EEF3E0B150A3
:103F5000E040F040E1F700C00000802F0E9405091A
:103F600081CF812F86958695837061F0813009F02D
:103F700079CFC8019370D11002C090E080E00E9418
:103F8000330870CFC8019370D11002C090E080E078
:103F90000E94490867CF812F837009F066C0D11055
:103FA00061CF802F829586958770880F880F602F4C
:103FB0006F70462E512C712C612C082E04C0440CBD
:103FC000551C661C771C0A94D2F740E050E0BA01F9
:103FD00004FF0FC04FE050E060E070E004C0440F09
:103FE000551F661F771F8A95D2F7409550956095AB
:103FF0007095812F869586958370823019F1D8F45B
:10400000009168061091690620916A0630916B064E
:10401000813069F04429552966297729CB01BA01F5
:1040200060237123822393230E94EF081BCF402A31
:10403000512A622A732ACB01BA016429752986297B
:104040009729F2CF442955296629772900916806D6
:104050001091690620916A0630916B06CB01BA0176
:104060006027712782279327DFCF8695DD2011F007
:10407000812F8170882309F4F5CE802F8295869553
:104080008770880F880F602F6F70462E512C712C0F
:10409000612C082E04C0440C551C661C771C0A9425
:1040A000D2F740E050E0BA0104FF0FC04FE050E00B
:1040B00060E070E004C0440F551F661F771F8A95AB
:1040C000D2F74095509560957095812F869586958D
:1040D0008370823019F1D8F40091C9061091CA0694
:1040E0002091CB063091CC06813069F044295529C6
:1040F00066297729CB01BA01602371238223932398
:104100000E946D08AFCE402A512A622A732ACB0141
:10411000BA016429752986299729F2CF442955299E
:10412000662977290091C9061091CA062091CB060D
:104130003091CC06CB01BA016027712782279327E3
:10414000DFCF1F70DD2029F0812F0E94CE08802F45
:10415000D1CE802F0E941E08812F0E94930882CE0C
:10416000802F22EF821609F450C0281578F030EF26
:10417000831619F141EF841609F43FC0DD2009F4DC
:1041800067C0A11053CE812F8F713CC093EF891669
:1041900009F440C0A4EF8A12F1CFDD2009F44DC02C
:1041A0001F71812F0E94CE08F8E01F9FC0011124CB
:1041B000836080936406812F25C0DD20C9F0B4E0C0
:1041C000BA1508F44FCE1F7161E070E080E090E016
:1041D00004C0660F771F881F991F1A95D2F70091A8
:1041E000C9061091CA062091CB063091CC06A4CF07
:1041F000E5E0EA1508F436CEE6CF812F8F71DD2099
:1042000009F4ABCF0E94CE082DCE812F8F71DD2017
:10421000C9F3A3CF60E070E0CB01DD2009F470CFDB
:104220001F7161E070E080E090E004C0660F771FCE
:10423000881F991F1A95D2F763CF81E00E94B608B4
:1042400021E02A1508F00ECE82E00E94B6080ACEC0
:10425000AA2059F0893309F080CE3FEF47EE83E082
:10426000315040408040E1F776CE812F8F7175CF7D
:1042700085E0F701DE01119601900D928A95E1F734
:10428000D70112962C9189819A8121110C944E1894
:104290000E94BD07082F0C9456180B3CBCE51B0769
:1042A00011F40C94371808F07FC0033CFCE51F079D
:1042B00011F40C94371808F052C006313CE513078E
:1042C00088F402304CE5140708F04DC901159CE54F
:1042D000190711F40C94371801301C4511F40C9493
:1042E000371841C90631BCE51B0709F477CD023CFC
:1042F0001C4509F038C98091910680FF87CB8E7FDD
:104300008093910660919106709192068091930638
:10431000909194060E945C1110929706BFEFE0E71F
:10432000F2E0B150E040F040E1F700C00000A39699
:104330000FB6F894DEBF0FBECDBFDF91CF911F91B6
:104340000F91FF90EF90DF90CF90BF90AF909F9034
:104350008F907F906F905F904F900C942C0F073C44
:10436000FCE51F0709F4ABCB88F4053C3CE51307DB
:1043700009F485CB10F40C9437188091920621E053
:104380004091940660919306885081CB093C8CE55E
:10439000180709F4A7CB08F49ECB4091940621E1BD
:1043A000421B08F440E0A4CB033DACE51A0711F42E
:1043B0000C94371810F40C9437180D3DECE51E07DB
:1043C00011F40C94371878F4053D2CE5120711F41C
:1043D0000C94371810F40C9437180C3D1C4511F44C
:1043E0000C943718C0C80E3D1C4511F40C943718B6
:1043F000BAC81F93CF93DF9380911306807FC1F4D7
:10440000809110068823A1F080914506C091140682
:1044100060910E0670910F064091110650911206A0
:10442000D62FD723DA01A095B09516E0C81304C0A3
:10443000DF91CF911F91089590E04115510511F042
:10444000DF3F31F401968770F1CF2A0F3B1F17C071
:10445000189FF001199FF00D1124EB5EF94F218197
:104460002713F0CF20812613EDCF22812111EACF2F
:10447000238134812417350740F3241B350B283C56
:10448000310500F7209113062F7020612093130649
:1044900026E0289FF001299FF00D1124E65EF94FD8
:1044A00080818F70806180838EE096E00E940E187C
:1044B000DF91CF911F910C941408BF92CF92DF929D
:1044C000EF92FF920F931F93CF93DF93CDB7DEB799
:1044D00061970FB6F894DEBF0FBECDBF8C0185E0AB
:1044E000F801DE011D9601900D928A95E1F7D80141
:1044F0002C9111963C9111971296EC901297809105
:10450000110690911206009709F463C140910E06BE
:1045100050910F06642F65236F3F09F45AC113961B
:10452000CD90DC90B0901006BB2009F413C1C816E2
:10453000D906C0F1F601E81BF90BCF01FF24F39473
:10454000883C910508F0F12C80911306982F907FFC
:10455000FF2009F4C1C091117DC0FE2C531327C068
:10456000421325C0E11023C08F7080618093130631
:104570008EE096E00E940E1880911306D8011596E1
:104580008C938F2D61960FB6F894DEBF0FBECDBF12
:10459000DF91CF911F910F91FF90EF90DF90CF901F
:1045A000BF900895809590958C0D9D1DC7CFCD2807
:1045B00029F0822F83238F3F09F029C180E0B82F93
:1045C000B170DB2E80FF3CC08091450640911406FF
:1045D00056E0841315C02D873E878D859E850E94E9
:1045E000D70C292F22952F702230F0F0243018F5A7
:1045F0009F70F1F0F8019581907FD1F4D12C1EC00D
:1046000090E0589FF001599FF00D1124EB5EF94F97
:104610006181361306C06081261303C06281E612F1
:104620000FC001968770D5CF9F7011F0882331F3AA
:10463000805E883018F3C8010E940E18FD2CA1CFAF
:10464000EE2009F49ECF80911306816080931306BB
:10465000F12C97CF531313C0421311C0E1100FC0B8
:10466000D80115968C93C8010E940E1886E0F801B7
:10467000AEE0B6E001900D928A95E1F782CF2D87EA
:104680003E878D859E850E94E10C882309F1EE20EE
:10469000F9F080911306803270F020910E0630916F
:1046A0000F0638872F831986DB86CA868C87CE0152
:1046B00007960E940E1886E0F801AEE0B6E0019081
:1046C0000D928A95E1F70E94F921FF24F39459CFC6
:1046D000C8010E940E18F9CF91110CC08EE096E02F
:1046E0000E940E1886E0EEE0F6E0DF011D928A954A
:1046F000E9F747CF531312C0421310C0E1100EC0A8
:10470000F8018583C8010E940E18EEE0F6E086E00D
:10471000DF011D928A95E9F7FB2C33CF2D873E8769
:104720008D859E850E94E10C882391F2EE2081F216
:1047300080911306803208F4BECF20910E0630918E
:104740000F063A8329831B82DD82CC828E83CE01C1
:104750000196AFCFC816D90640F0C81AD90AB8ECEE
:10476000CB16D10448F0F12CBDCF809590958C0DDF
:104770009D1D883C9105B8F7FE2CEE2009F4A8CFCA
:10478000531316C0421314C08091130680FD6ECFE0
:10479000982F907F09F46ACFF8018583903F09F440
:1047A00062CF982F907F905F8F70892B85835BCF2E
:1047B0002D873E878D859E850E94E10C81117BCFE0
:1047C00080911306816080931306C8010E940E1821
:1047D000D8CEEE2009F47CCF2D873E878D859E852F
:1047E0000E94E10CF82E882309F472CF86E0F801CC
:1047F000AEE0B6E001900D928A95E1F780910E0649
:1048000090910F060E94D70C0E94F921BACE81E048
:104810008E25D5CE1F93CF93DF93CDB7DEB76797A5
:104820000FB6F894DEBF0FBECDBF4B8B5C8B6D8B8C
:104830007E8B8F8B1A8A198A85E0FE017396DE01C2
:104840001D9601900D928A95E1F786E0FE013D9656
:10485000DE01179601900D928A95E1F7CE01079639
:104860000E945D22811112C086E0FE013796DE01B2
:10487000119601900D928A95E1F78A859B85892B87
:1048800029F08F81988589238F3FB1F516E08091BB
:1048900045069091140689131DC067960FB6F894CB
:1048A000DEBF0FBECDBFDF91CF911F91089596E07F
:1048B000929FD001939FB00D1124AB5EB94FFE01C2
:1048C000319601900D929A95E1F7809314060E941B
:1048D0001408DCCF819FC00111248B5E994F0E9488
:1048E0005D228823D1F28091450690E00196877081
:1048F000992780934506CBCF2091140630E0C9015B
:10490000019687709927409145064817190679F650
:10491000109299060E94B91310921406109245063F
:1049200086E0EEE0F6E0DF011D928A95E9F7AECF72
:104930006F927F928F929F92AF92BF92CF92DF92AF
:10494000EF92FF920F931F93CF93DF93ACE7B5E005
:1049500021E6E22E25E0F22E612CCC24C394D12C4A
:104960005C911D92E70189917E01E82FE295EF703D
:10497000F0E091A18F70860101C0000F8A95EAF7DF
:10498000892F802B81A382A1702E7094872182A30E
:10499000D0EADA95F1F799E6A92E95E0B92E30E044
:1049A00020E0BD0161507109E50149915E01842E4D
:1049B00082948FE08822912CE40188A190E04F70CE
:1049C00002C0959587954A95E2F7812C80FD06C037
:1049D0004601022E01C0880C0A94EAF7EB01888197
:1049E000882A88822F5F3F4F26303105E9F681A162
:1049F000872181A382A1082B02A381E098819513CE
:104A000001C080E0682AD5E0A038BD0709F0A8CF32
:104A1000C0917206662021F181E080937B050E949F
:104A2000580790937A058093790580917905909144
:104A30007A050E942E070697B8F0EC2FF0E0E758B1
:104A4000F94F80917C05808380917D0581838091E1
:104A50007E05828380917F05838310927B0504C04D
:104A600080917B058111E1CF0E943511882309F4E3
:104A70007EC0C09171060E94F92D009701F18091CE
:104A800084058F5F80938405863048F58091070602
:104A90008823C1F18091030690910406009749F59F
:104AA0000E945807909304068093030680910506A0
:104AB000282F30E08823B1F1C901019737C0EC2FCE
:104AC000F0E0E758F94FDC01A058BA4F2C91219340
:104AD000019684309105B9F710928405D7CFE09103
:104AE0007106F0E0E758F94F1082118212821382AA
:104AF000CDCF0E942E0720918B0430918C04281773
:104B0000390770F2862DDF91CF911F910F91FF90A1
:104B1000EF90DF90CF90BF90AF909F908F907F905D
:104B20006F900895809106068150990B40910B0675
:104B3000442389F02D503A4FF901C0818D509A4F8E
:104B4000FC0180810E945F1780910B06882319F079
:104B50008C2F0E94E1168091050690E001966091ED
:104B6000060670E00E945A2E80930506CBCFE09196
:104B70007206F0E0E758F94F90E080E02191DC0107
:104B8000A058BA4F2C93019684309105B9F7BACF4B
:104B90001F920F920FB60F9211242F933F934F93B2
:104BA0005F936F937F938F939F93AF93BF93CF93B5
:104BB000DF93EF93FF93D091E900DF708091EC00D9
:104BC000C82FC17080FDC0E81092E9008091F0000C
:104BD000877F8093F00078940E94C2131092E900BE
:104BE0008091F00088608093F000CD2BCF70C0934F
:104BF000E900FF91EF91DF91CF91BF91AF919F912C
:104C00008F917F916F915F914F913F912F910F9075
:104C10000FBE0F901F9018951F920F920FB60F9214
:104C200011242F933F934F935F936F937F938F93B1
:104C30009F93AF93BF93EF93FF938091E10082FF27
:104C400009C08091E20082FF05C08091E1008B7F66
:104C50008093E1008091DA0080FF24C08091D80029
:104C600080FF20C08091DA008E7F8093DA008091EF
:104C7000D90080FFA1C080E189BD82E189BD09B46E
:104C800000FEFDCF81E08093A606809198068111F9
:104C900009C00E949F050E946A068091E20084601C
:104CA0008093E2008091E10080FF17C08091E200D4
:104CB00080FF13C08091E2008E7F8093E20080919C
:104CC000E20080618093E2008091D800806280934E
:104CD000D80019BC85E08093A6068091E10084FF8E
:104CE0002FC08091E20084FF2BC080E189BD82E16A
:104CF00089BD89B5982F917080FFFBCF8091D80036
:104D00008F7D8093D8008091E1008F7E8093E100B9
:104D10008091E2008F7E8093E2008091E2008160CA
:104D20008093E2008091A706882309F44BC084E0B9
:104D30008093A606109299060E94B9130E94F90862
:104D40008091E10083FF27C08091E20083FF23C0B0
:104D50008091E100877F8093E10082E08093A60646
:104D60001092A7068091E1008E7F8093E1008091F0
:104D7000E2008E7F8093E2008091E2008061809368
:104D8000E20042E060E080E00E9438068091F0009E
:104D900088608093F000FF91EF91BF91AF919F9158
:104DA0008F917F916F915F914F913F912F910F90D4
:104DB0000FBE0F901F90189519BC1092A606109266
:104DC000980670CF8091E30087FD93E09093A6064C
:104DD000B1CFCDB7DEB72A970FB6F894DEBF0FBEBE
:104DE000CDBF84B7877F84BF0FB6F894A895809114
:104DF0006000886180936000109260000FBE80E8C0
:104E0000809361001092610085B7806885BF85B787
:104E1000806885BF24982C9A83B18295817091E037
:104E20008927249880930D050E94351161E070E078
:104E3000882309F48BC185E095E00E94582D0E94DB
:104E40009F050E946A068091E20084608093E200E0
:104E500078948091A6068823A1F01091E9001F7034
:104E60009091EC00892F817090FD80E8182B1092B2
:104E7000E9008091E80083FD0E94C2131F70109327
:104E8000E90082E084BD93E095BD9AEF97BD8093E1
:104E90006E00809182068B608093820680910D0562
:104EA00080910D0594E0811190E09093720684E06A
:104EB000891B80937106A1E6B5E061E070E08D91F9
:104EC000E82FE295EF70F0E041A18F709B0101C0E7
:104ED000220F8A95EAF7922F9095942391A382A1AD
:104EE000822B82A385E0A536B80749F7A9E6B5E08D
:104EF00061E070E08D91E82FE295EF70F0E041A164
:104F00008F709B0101C0220F8A95EAF7922F90952E
:104F1000942391A382A1822B82A3E5E0AF36BE0742
:104F200049F71092790610927A0610927B06109239
:104F30007C0610927D0610927E0610927F061092DB
:104F400080060E945111811102C00E9412120E941B
:104F500075120E945111811102C00E94121282E04A
:104F600090E00E94742E809382060E94050D90931B
:104F700074068093730683E090E00E94742E682F7D
:104F800070E090E080E00E94EF088091750681114A
:104F900038C0809182068160809382060E94511100
:104FA000811104C00E9412120E94031288E090E056
:104FB0000E947C2E609391067093920680939306D4
:104FC000909394066E7F71F40E94031288E090E043
:104FD0000E947C2E609391067093920680939306B4
:104FE000909394060E94630910929706809191060F
:104FF00080FF04C060E086950E94891681E080935E
:1050000075068EE095E09093770680937606F3E937
:10501000EF2EF9E0FF2E8091A606853009F49BC0A3
:105020000E9498240E943511882309F4DAC0E9E728
:10503000F6E0A3E8B6E010E000E0902F81914D91FA
:10504000481709F4C8C030E020E0482750E0622F3C
:105050006A01022E02C0D594C7940A94E2F7C0FEFA
:10506000B4C029839A8321E030E0690102C0CC0CEE
:10507000DD1C6A95E2F790E08C219D21892B09F4D3
:1050800020E02B830E9458078160782F9D838C83BA
:1050900049815A816B818D810E940A24F801ED5764
:1050A000F94F8081C826C0820E94F908909181063C
:1050B000891721F00E94F908809381068091970654
:1050C000882309F4A8CF80919606E0919106E69591
:1050D000E81BE0938D06823009F094C0F0E0EF55B4
:1050E000F64FE4910E2F10E0E1E1CE2EE1E1DE2E4D
:1050F00080918E06882389F010928E060E945807B0
:10510000980120953095820F931F90938C06809381
:105110008B061092900610928F0680918B069091CC
:105120008C060E942E078017910708F474CFE09137
:105130008B06F0918C060E0F1F1F10938C060093A8
:105140008B068BE896E0F601099565CF85E095E042
:105150000E945F2D74CE8091A606843021F11092BA
:10516000780688E190E020E40FB6F894A895809343
:1051700060000FBE2093600083B7817F846083BF8F
:1051800083B7816083BF7894889583B78E7F83BF10
:105190000FB6F894A89580916000886180936000B4
:1051A000109260000FBE8091A506882309F433CFCA
:1051B0000E949824E9E7F6E081E896E02191211128
:1051C0007AC08E179F07D1F726CF2F5F3F4F26302B
:1051D000310509F03CCF0F5F1F4F0830110509F072
:1051E0002CCF8FEF8E838F8318860E9458078160A3
:1051F000782F9A8789874E815F8168858A850E948A
:105200000A2452CF863059F4F0E0E256F64FE4918A
:105210000E2F10E075E2C72E71E1D72E69CF8930CD
:1052200061F4E695F0E0E556F64FE4910E2F10E0BC
:105230006AE9C62E6FE0D62E5BCF8F3061F4E6951B
:10524000F0E0E856F64FE4910E2F10E054ECC52E36
:105250005FE0D52E4DCF853159F4F0E0EB56F64F97
:10526000E4910E2F10E045E2C42E40E1D42E40CF51
:1052700008EE13E093E7C92E90E1D92E883109F4A6
:1052800037CF833241F4F7010591149138EBC32EE7
:1052900030E1D32E2DCF04EF11E021E6C22E2FE016
:1052A000D22E843209F424CF00ED17E089E2C82E13
:1052B00087E0D82E1DCF80E189BD82E189BD09B488
:1052C00000FEFDCF8091D8008F7D8093D800809123
:1052D000E00082608093E0008091E00081FDFCCFDF
:1052E0009ACE78941F921FB61F9211248F939F938A
:1052F000AF93BF9380916C0690916D06A0916E065E
:10530000B0916F060196A11DB11D80936C0690931C
:105310006D06A0936E06B0936F06BF91AF919F91FB
:105320008F911F901FBE1F9018951F921FB61F923E
:1053300011248F939F93AF93BF938091780681112F
:1053400013C080916C0690916D06A0916E06B0918D
:105350006F064196A11DB11D80936C0690936D065A
:10536000A0936E06B0936F06BF91AF919F918F91FE
:105370001F901FBE1F9018951F920F920FB60F928D
:1053800011244F925F926F927F928F929F92AF9271
:10539000BF92CF92DF92EF92FF922F933F934F9362
:1053A0005F936F937F938F939F93AF93BF93EF938D
:1053B000FF938091C606882309F4E1C0E090C305FD
:1053C000F090C4051E141F040CF0D9C04090BF0516
:1053D0005090C0056090C1057090C20520E030E09B
:1053E000A901C301B2010E94813018160CF0CFC18F
:1053F00021E0E216F10409F452C08091BD059091BC
:10540000BE05B7010E945A2E6C019093BE05809391
:10541000BD058090BC069090BD06A090BE06B090E1
:10542000BF0620E030E040E85FE3C501B4010E9420
:10543000BD2E6093BC067093BD068093BE0690930C
:10544000BF06F601EE0FFF1FEE0FFF1FE356FA4FE8
:10545000A301920160817181828193810E942E2F2C
:1054600020E030E040E05EE30E9486309B01AC012A
:10547000C501B4010E94813018168CF4C601019652
:10548000B7010E945A2E9093BE058093BD051092DD
:10549000BC061092BD061092BE061092BF06E091A7
:1054A000BD05F091BE05EE0FFF1FEE0FFF1FE35687
:1054B000FA4FC080D180E280F3808091970590916F
:1054C00098058F3F980729F001969093980580934F
:1054D00097058091F205811116C010929C0280E020
:1054E00090E0A0E0BFE38093980290939902A0938C
:1054F0009A02B0939B021092BF051092C0051092C1
:10550000C1051092C20520E034E244EF51E4C70126
:10551000B6010E94292F87FF08C056EFC52E58E21A
:10552000D52E54EFE52E51E4F52E20E030E040E09A
:1055300051E4C701B6010E9486309B01AC0160E0D6
:1055400074E284E79BE40E942E2F6B017C010E9491
:10555000A02F70939700609396002091980230914D
:10556000990240919A0250919B02C701B6010E9494
:1055700086300E94A02F70939900609398008091CC
:10558000C506882309F4D9C1C090B606D090B706E5
:10559000E090B806F090B90620E030E0A901C7011C
:1055A000B6010E94813018160CF0B6C180919705A3
:1055B000909198058F3F980729F001969093980550
:1055C000809397058091F205811116C010929C027C
:1055D00080E090E0A0E0BFE380939802909399026E
:1055E000A0939A02B0939B021092BF051092C0053F
:1055F0001092C1051092C20520E030E040E051E475
:10560000C701B6010E9486309B01AC0160E074E2E4
:1056100084E79BE40E942E2F6B017C010E94A02F47
:1056200070939700609396002091980230919902B0
:1056300040919A0250919B02C701B6010E948630A8
:105640000E94A02F70939900609398006091B0061B
:105650007091B1066F5F7F4F7093B1066093B00693
:10566000E0909600F090970090E080E00E94CF2FAD
:105670004B015C014090B2065090B3066090B406B6
:105680007090B506EF2809F450C1809196058111FC
:105690004CC1609196007091970090E080E00E946C
:1056A000CF2F9B01AC01C301B2010E942E2F20E03D
:1056B0003FEF4FE757E40E94863020E030E040E8BB
:1056C0005FE30E94BC2EA50194010E94292F1816A9
:1056D0000CF433C18091BA069091BB060196909369
:1056E000BB068093BA062091C1063091C20682178C
:1056F000930748F08091C006882309F427C11092CF
:10570000BB061092BA06E091C306F091C4068091E0
:10571000BA069091BB069C0143E0220F331F4A95C5
:10572000E1F7E20FF31F20813181428153816091C3
:10573000960561113DC161E06093960501979093D4
:10574000BB068093BA063897C080D180E280F38090
:10575000C701B6010E94292F811121C11092B606FE
:105760001092B7061092B8061092B90680E090E049
:10577000A0E8BFE38093B2069093B306A093B4066B
:10578000B093B5061092B1061092B006D6C0F701DC
:10579000EE0FFF1FEE0FFF1FE756FA4F808091803C
:1057A000A280B38080919C02882309F4ACC0C09091
:1057B0009905D0909A05E0909B05F0909C0520E01B
:1057C00030E0A901C701B6010E94292F882309F4FE
:1057D0009AC0A5019401C701B6010E94292F87FF35
:1057E0005BC0A501940160E070E08CED93EC0E9439
:1057F0002E2F20E030E040E451E40E942E2F20E0E4
:1058000030E040E05FE30E9486309B01AC0160E045
:1058100070E080E090E40E94F330A50194010E94C2
:1058200086309B01AC01C701B6010E94292F87FF7A
:1058300033C0A701960160E070E08CED93E40E9414
:105840002E2F20E030E040E451E40E942E2F20E093
:1058500030E040E05FE30E9486309B01AC0160E0F5
:1058600070E080E090E40E94F3309B01AC01C7013E
:10587000B6010E9486306093990570939A058093D3
:105880009B0590939C05C0909905D0909A05E09057
:105890009B05F0909C0511CEA5019401C701B601AE
:1058A0000E94813018167CF5A501940160E070E03B
:1058B0008CED93E40E942E2F20E030E040E451E490
:1058C0000E942E2F20E030E040E05FE30E9486300F
:1058D0009B01AC0160E070E080E090E40E94F33056
:1058E000A50194010E9486309B01AC01C701B6015D
:1058F0000E94813018163CF4A701960160E070E028
:105900008CED93EC9CCF8092990590929A05A09291
:105910009B05B0929C05B7CF10929700109296000D
:10592000109299001092980091CEA3019201C501A6
:10593000B4010E94813087FFCDCE8091C70680FDE3
:1059400011C01092C5061092C6060CC0809171005D
:105950008D7F80937100809190008F738093900071
:105960001092C506FF91EF91BF91AF919F918F91DA
:105970007F916F915F914F913F912F91FF90EF90A9
:10598000DF90CF90BF90AF909F908F907F906F905F
:105990005F904F900F900FBE0F901F901895C09280
:1059A000B606D092B706E092B806F092B906DECEFF
:1059B0001092960510929805109297052093B606BE
:1059C0003093B7064093B8065093B90620E030E014
:1059D00040E85EE364817581868197810E9486300C
:1059E0006093B2067093B3068093B4069093B506A5
:1059F000C9CE8EE1489B02C08150E1F7489BFECFA3
:105A00000895589880E28A95F1F7589A0895FC0114
:105A10003BE03A95F1F798E020E080E031E040E1AA
:105A20004A95F1F7880F489B02C08160232742E026
:105A30004A95F1F7000040E14A95F1F7915079F766
:105A400090E19A95F1F799B132E03A95F1F70000BB
:105A500040E14A95F1F7917092272081920F90834F
:105A60000895EF92FF920F931F93CF93DF930F92BE
:105A7000CDB7DEB719828C017C01E60EF11C0E1544
:105A80001F0561F481E09981911180E00F90DF9111
:105A9000CF911F910F91FF90EF9008950E94F92CE4
:105AA000CE0101960E94072DF80181938F01E7CF67
:105AB0009093CE068093CD06509A589A089590936D
:105AC000CE068093CD065098589AE89AE9E6F0E021
:105AD00080818C7F808308956150770B91E001C0B5
:105AE000990F6A95EAF720E031E0911108C022236E
:105AF00091F0589A80E28A95F1F758980895492FC5
:105B0000482339F0589A232740E24A95F1F79695B1
:105B1000ECCF5898F9CF5898EDCFFF920F931F9381
:105B2000CF93DF93EC018C01060F111DC017D10735
:105B300031F4DF91CF911F910F91FF900895F9906B
:105B40000E94012D68E08F2D0E946C2DEFCF1F92D7
:105B50000F920FB60F9211242F933F934F935F93A1
:105B60006F937F938F939F93AF93BF93CF93DF9365
:105B7000EF93FF935898509AC091CD06D091CE06DE
:105B80006D81662321F08E819F810E948D2D0E9460
:105B9000012D80E18A95F1F758985098589A80E144
:105BA0008A95F1F76A81662309F18B819C810E94B5
:105BB000312DE881F981882311F088E001C082E06D
:105BC00080830E94F92CFF91EF91DF91CF91BF91DB
:105BD000AF919F918F917F916F915F914F913F9185
:105BE0002F910F900FBE0F901F901895E881F981AB
:105BF000E4CFCF93DF93C091CD06D091CE06F89439
:105C0000509A589885E08A95F1F700005098589A74
:105C100080E28A95F1F7489B0CC0509A589AE88127
:105C2000F98181E08083789481E090E0DF91CF91E9
:105C300008956D81662381F08E819F810E94312DB0
:105C400081110AC0509A589AE881F98182E08083D4
:105C5000789482E090E0EACF0E94F92C80E28A9565
:105C6000F1F75898509A80E18A95F1F76A81662396
:105C700021F08B819C810E948D2D0E94012DE88155
:105C8000F9811082789490E080E0D0CFAA1BBB1BF2
:105C900051E107C0AA1FBB1FA617B70710F0A61B2C
:105CA000B70B881F991F5A95A9F780959095BC014D
:105CB000CD01089597FB072E16F4009407D077FDC9
:105CC00009D00E94462E07FC05D03EF490958195A0
:105CD0009F4F0895709561957F4F0895EE0FFF1FB8
:105CE0000590F491E02D0994F999FECF92BD81BD04
:105CF000F89A992780B50895A6E1B0E044E050E015
:105D00000C94AE2EA8E1B0E042E050E00C94AE2E30
:105D1000262FF999FECF92BD81BDF89A019700B464
:105D2000021639F01FBA20BD0FB6F894FA9AF99A04
:105D30000FBE08950396272F0E94892E0E94882E59
:105D4000252F0E94892E242F0C94892E0196272F0F
:105D50000E94892E0C94882EDC01CB01FC01F9995C
:105D6000FECF06C0F2BDE1BDF89A319600B40D92A7
:105D700041505040B8F708955058BB27AA270E94B9
:105D8000D42E0C9447300E94393038F00E944030B5
:105D900020F039F49F3F19F426F40C9436300EF4B9
:105DA000E095E7FB0C943030E92F0E94583058F30F
:105DB000BA17620773078407950720F079F4A6F5F0
:105DC0000C947A300EF4E0950B2EBA2FA02D0B0117
:105DD000B90190010C01CA01A0011124FF27591B30
:105DE00099F0593F50F4503E68F11A16F040A22F36
:105DF000232F342F4427585FF3CF469537952795A7
:105E0000A795F0405395C9F77EF41F16BA0B620BA5
:105E1000730B840BBAF09150A1F0FF0FBB1F661FEC
:105E2000771F881FC2F70EC0BA0F621F731F841F2F
:105E300048F4879577956795B795F7959E3F08F055
:105E4000B0CF9395880F08F09927EE0F9795879517
:105E500008950E940C3008F481E008950E94422FBA
:105E60000C9447300E94403058F00E94393040F086
:105E700029F45F3F29F00C94303051110C947B30A1
:105E80000C9436300E94583068F39923B1F35523AF
:105E900091F3951B550BBB27AA276217730784073D
:105EA00038F09F5F5F4F220F331F441FAA1FA9F3D3
