:100000000C9479050C943A180C94C0050C94C00516
:100010000C94C0050C94C0050C94C0050C94C0054C
:100020000C94C0050C94C0050C94CC1A0C94C32BF2
:100030000C94F1250C94C0050C94C0050C94C005DB
:100040000C94C0050C94C0050C94C0050C94C0051C
:100050000C94C0050C9482250C94C0050C94C0052A
:100060000C94C0050C94C0050C94C0050C94C005FC
:100070000C94C0050C94C0050C94C0050C94C005EC
:100080000C9455100C94C0050C94C0050C94C0053C
:100090000C94C0050C94C0050C94C0050C94C005CC
:1000A0000C94C0050C94C0050C94C0058A088C08FB
:1000B0008E0890089208940896089808A108A3084A
:1000C000A508A708A908AB08AD08AF08B108BC0887
:1000D000130913094E094E099409B209510C510C28
:1000E000C30A510CB00BB00BBE0BBE0BBE0BBE0B4C
:1000F000BE0BBE0BBE0BBE0BBE0BBE0BBE0BBE0BB8
:10010000BE0BBE0BBE0BBE0BCF0BF90BFE0B050CD3
:100110001C0C4C1F4C1F5E1F5E1F551F5E1F5E1F79
:100120005E1F4C1F4C1F5A1F5E1F5E1F5A1FD32994
:10013000FA29A52BFA29A52B462A692AA52B6B2B70
:100140007A2B07634236B79BD8A71A39685618AE80
:10015000BAAB558C1D3CB7CC5763BD6DEDFD753EFC
:10016000F6177231BF000000803F05A84CCDB2D415
:100170004EB93836A9020C50B9918688083CA6AA17
:10018000AA2ABE000000803F08000000BE92244959
:10019000123EABAAAA2ABECDCCCC4C3E00000080B9
:1001A000BEABAAAAAA3E00000000BF000000803F2C
:1001B0000000000000084178D3BB4387D1133D19EC
:1001C0000E3CC3BD4282AD2B3E68EC8276BED98F19
:1001D000E1A93E4C80EFFFBE01C4FF7F3F0000005D
:1001E0000000290014001A000800150017002B0059
:1001F00004001600070009000A00E1001D001B00B2
:10020000060019000500E000E300E200DF5CDD5CB1
:100210002C001C0018000C00120013002A000B0018
:100220000D000E000F0033003400110010003600E6
:100230003700380028002C00DE5C500051005200CE
:100240004F002B0014001A00090013000A002900B7
:1002500004001500160017000700E1001D001B0038
:10026000060019000500DF5CE000E200E300DD5C51
:100270002C000D000F0018001C0033002A000B009A
:10028000110008000C00120034000E0010003600AF
:100290003700380028002C00DE5C5000510052006E
:1002A0004F002B0034003600370013001C002900DB
:1002B00004001200080018000C00E10033001400D4
:1002C0000D000E001B00DF5CE000E200E300DD5CDF
:1002D0002C0009000A00060015000F002A00070084
:1002E0000B001700110016003800050010001A005E
:1002F00019001D0028002C00DE5C50005100520047
:100300004F0035021E021F022002210222024C0071
:100310003A003B003C003D003E00005C40004100D4
:1003200042004300440001000100010001000100FF
:100330000100230224022502260227024C003F006E
:100340002D022E022F0230023102450032026402D9
:1003500001000100010001000100AB00AA00A9009A
:10036000AE0035001E001F002000210022004C00BE
:100370003A003B003C003D003E00010040004100CF
:10038000420043004400010001000100010001009F
:100390000100230024002500260027004C003F0018
:1003A0002D002E002F003000310045003200640087
:1003B00001000100005C01000100AB00AA00A900DF
:1003C000AE0000000000000000000000000000007F
:1003D000000000000000000000000000000000001D
:1003E000000000000000000000000000000000000D
:1003F00000000000000000000000000000000000FD
:1004000000000000000000000000000000000000EC
:1007E00000000100005C01000100010001000100A7
:1007F000010001001C5C1D5C135C01000100010094
:1008000001000100010001000100010001000100E0
:100810000100010001000100010001004C000A5C20
:10082000DA5CDB5CDC5C010001000100010001001E
:1008300001000100010001000100010001000100B0
:10084000C05C000000000001010101010101010183
:100850000202020202020202020303030303030371
:10086000030404040404040505050505060606063C
:100870000607070707080808080909090A0A0A0AF3
:100880000B0B0B0C0C0C0D0D0D0E0E0F0F0F101093
:100890001111111212131314141515161617171817
:1008A0001819191A1A1B1C1C1D1D1E1F1F20202180
:1008B00022222324252526272728292A2B2B2C2DC5
:1008C0002E2F2F30313233343536363738393A3BE4
:1008D0003C3D3E3F4041424344464748494A4B4CD9
:1008E0004D4F50515253555657585A5B5C5E5F609E
:1008F0006263646667696A6C6D6E70717374767832
:10090000797B7C7E8081838486888A8B8D8F91928F
:100910009496989A9B9D9FA1A3A5A7A9ABADAFB1B3
:10092000B3B5B7B9BBBDBFC1C4C6C8CACCCFD1D39C
:10093000D6D8DADCDFE1E4E6E8EBEDF0F2F5F7FA41
:10094000FCFF05010980A1018502160100260300B4
:100950001A81002A8300751095018100C0050C09D9
:1009600001A1018503160100269C021A01002A9CA0
:1009700002751095018100C005010902A10109015C
:10098000A100050919012905150025019505750125
:100990008102950175038101050109300931158135
:1009A000257F95027508810609381581257F9501F7
:1009B00075088106050C0A38021581257F95017599
:1009C000088106C0C005010906A101050719E02933
:1009D000E7150025019508750181029501750881CB
:1009E0000105081901290595057501910295017503
:1009F0000391010507190029FF150026FF00950640
:100A000075088100C009025400030100A0FA09041E
:100A10000000010301010009211101000122400031
:100A20000705810308000A0904010001030102000F
:100A3000092111010001224D000705820308000A67
:100A40000904020001030000000921110100012234
:100A500036000705830308000A1201100100000098
:100A600008E5BE3DF301000102030104033000006C
:100A7000004A034C006500740073002000530070AE
:100A8000006C0069007400200073006F0063006B4D
:100A90000065007400730020007600690074006136
:100AA000006D0069006E007300200069006E006335
:100AB000006C0075006400650064000000120344CF
:100AC00000750063006B006C0065003200390000A7
:100AD00000040309046801F000B40078005A001E05
:100AE000140A05783C1E6432146432147F3F1F00E0
:100AF000040011241FBECFEFDAE0DEBFCDBF04B685
:100B000003FE27C08091110590911205A091130555
:100B1000B09114058730904BA740B04BD1F41092A0
:100B2000110510921205109213051092140514BEAF
:100B300084B7877F84BF0FB6F894A8958091600032
:100B4000886180936000109260000FBEE0E0F8E3DF
:100B5000099513E0A0E0B1E0EEEEF9E602C00590E1
:100B60000D92A63AB107D9F725E0A6EAB3E001C095
:100B70001D92A131B207E1F70E94601C0C94F5347C
:100B80000C9400004F925F926F927F92AF92BF924F
:100B9000CF92DF92EF92FF920F931F93CF93DF9349
:100BA000CDB7DEB7A3970FB6F894DEBF0FBECDBFAB
:100BB000FC011081018183819481892B31F00F3FE9
:100BC00031F491E01F3F19F403C091E001C090E0BF
:100BD00090FF02C00C94F40E7F01808191810E94ED
:100BE0009F2620E3829FC0011124FC0136E0039F71
:100BF000E00DF11D1124E10FF11DEE0FFF1FEE516D
:100C0000FE4F059114910C3D4CE5140751F148F449
:100C10000A3D8CE5180779F00B3D9CE51907A9F012
:100C200050C00E3DACE51A0799F128F10F3DECE5F7
:100C30001E07C9F146C0D70112968C91882311F482
:100C40000C94F40E81E090E008C0F70182818823C3
:100C500011F40C94F40E82E090E00E94E3170C94DF
:100C6000F40ED70112968C91882311F40C94F40E93
:100C700084E090E0F2CFF7018281882311F083E0D5
:100C80000DC083E00E94F3260E947D280C94F40E90
:100C9000D70112968C91882321F084E00E942F279F
:100CA000F3CF84E0EFCFF7018281882329F080E140
:100CB0000E942F270C94F40E80E10E94F3260C94DE
:100CC000F40E0C31FCE51F0751F4D70112968C91FC
:100CD000882309F45CC00E9446100C94F40E0D3178
:100CE000BCE51B0749F4F7018281882309F44FC052
:100CF0000E9433140C94F40E0E31FCE51F0759F4D6
:100D0000D70112968C91882309F441C08091F20496
:100D100080FDEECFE0CFC80187529C45029758F482
:100D2000F7018281882399F11092A60364E070E0B4
:100D300080E091E023C003322CE5120719F1043260
:100D4000BCE51B0709F400C10532FCE51F0709F4E7
:100D5000EEC00932BCE51B0709F4FEC00A32FCE50F
:100D60001F0709F001C1D70112968C91882379F0F1
:100D70001092BE0368E070E080E291E00E94FB27E1
:100D80000C94F40ED70112968C918111DAC0209147
:100D9000BF03211105C08091BE03882309F413C14C
:100DA000F7013281332309F44DC0003E110569F487
:100DB0000E94231481E08093BD031092BC03109223
:100DC000BB031092BA030C94F40E023E110579F4A1
:100DD0000E9423148091BD03882319F081E0809341
:100DE000BC031092BD031092BB030C94F40E033E9F
:100DF000110591F48091BC03882321F10E942314F2
:100E00001092BD0381E08093BB031092B90310924E
:100E1000B8031092B703E8C70235110531F4809189
:100E20000102909102020A9708C00135110551F4A0
:100E300080910102909102020A969093020280939F
:100E40000102D2C78091000281110DC0D701119615
:100E50004C91119788E090E0841B91094C91405F80
:100E6000D42EBCE01DC0813069F4F701418188E0D7
:100E700090E0841B9109D82EDD0CDD0CD80E80810A
:100E80008D5C31C0823081F4D70111964C9111975D
:100E900088E090E0841B91094C914D5CD42EB7E022
:100EA0008B9FD00C112423C08330F9F483E2ECE54E
:100EB000F3E0DE01119601900D928A95E1F7F701BA
:100EC0008081FE01E80FF11DD70111964C9188E059
:100ED00090E0841B9109D084BCE08B9FD00C11243E
:100EE0008D2D59E0D52ED80E02C04CE0D42E3323E0
:100EF000A1F0222319F08D2D0E9405158091BD03CC
:100F0000882381F08091BA03E82FF0E0E955FC4F87
:100F1000D0828F5F8093BA0305C0222319F08D2DF4
:100F20000E944D140F3F110508F04DC05DC7D70159
:100F300012968C91882309F42ACF8091BF038111E6
:100F400008C00E943D1050C7F7018281882309F430
:100F50001ECF0E94291448C7F7018281882309F413
:100F600016CF0E94341040C70B32BCE51B0751F46A
:100F7000F7018281882309F40ACF8091BE03811191
:100F8000F7CEEFCF0632FCE51F0709F000CFD701FF
:100F900012968C91882309F4FACE0E942314209192
:100FA000000230E02F5F3F4F237033272093000271
:100FB00048E2429FC001439F900D112465E070E01C
:100FC000805A9E4FDBCE083C3CE5130751F4F701F5
:100FD0008281882309F408C78091C50390E00196B7
:100FE00027C0093C4CE51407B8F1003D5CE5150746
:100FF00009F4B0C508F012C6D70112968C910C3CCA
:10100000BCE51B0709F4AEC508F0CEC50A3CFCE5FB
:101010001F0709F405C508F0B6C5882309F4E4C61E
:101020008091C50390E0019797FF02C080E090E0B7
:101030008430910514F083E090E08093C5034091E3
:10104000C1035091C2036091C3037091C40388E04F
:1010500090E00E948E30C8C6003C5CE5150769F43C
:10106000D70112968C91882309F4BEC680918B0417
:101070008272F9F00E94770FB7C6013C8CE5180721
:10108000D8F0D70112968C91043CBCE51B0709F4FB
:10109000CEC408F021C5023CFCE51F0709F4E7C4F3
:1010A00008F003C5882309F49FC680918B048272DF
:1010B00009F30E94800F98C605319CE5190708F0D6
:1010C00056C40230ACE51A0708F468C0F701828103
:1010D000882309F471C00E944126811102C00E9438
:1010E0004C2684E090E00E94683090E090932204C7
:1010F00080932104F801E350FC45E231F10530F41E
:10110000EA5AFF4F809121040C94EF34809121041E
:10111000816039C0826037C0846035C0886033C068
:10112000806131C080622FC080642DC080682BC078
:10113000846088608093210464E070E08BE292E038
:1011400018C08E7F20C08D7F1EC08B7F1CC0877F04
:101150001AC08F7E18C08F7D16C08F7B14C08F770A
:1011600012C08B7F877F8093210462E070E08BE167
:1011700092E00E94FB2709C087FB222720F991E01B
:10118000922790FB87F9809321046091210484E0E9
:1011900090E00E947C300E94542126C60115BCE5D7
:1011A0001B0709F4B5C301301C4509F4D4C381E021
:1011B0008093CB038093CC03F701808191810E94BF
:1011C000DE26B82E192F782ED7011596AC901597DC
:1011D000A2949FE0A92212960C91011110928A0408
:1011E00080918704877079F0002369F080E28B0D8D
:1011F000883048F082E00E94182780918704877029
:10120000DD24D3948111D12CC12EC2948FE0C82249
:101210008C2D90E08C30910508F043C3FC01E85917
:10122000FF4F0C94EF34812F807F1F70882311F0C3
:101230001295107F0023B9F0112309F41DC380E239
:101240008B0D883010F0711006C080918B04182B24
:1012500010938B0405C080918A04182B10938A0484
:101260000E94722609C38B2D0E946D21112309F45F
:1012700018C380E28B0D1095883010F0711006C0F5
:1012800080918B04182310938B0405C080918A04ED
:10129000182310938A040E94722603C3912F907F13
:1012A000812F8F70903211F08295807F772021F00E
:1012B000B1E07B16C9F024C0002369F010918804C6
:1012C000A11002C0812B29C0E1E0812BAE1225C004
:1012D00080938804E6C2AA2021F0F1E0AF1609F459
:1012E000E0C21092880458C2002329F005E00A15D4
:1012F00008F4D7C212C014E01A1508F4D2C24CC2C6
:10130000002371F0AA2049F0D70115969C911597FA
:1013100090FFB2C29F7015969C930E946321C1C238
:10132000AA2009F439C2BAC2812F869586958370A6
:1013300019F0813061F0B5C2002321F08B2D912F7F
:10134000937002C080E090E00E94B92CB5C20023E7
:1013500021F08B2D912F937002C080E090E00E94CD
:10136000A32CAAC28B2D002309F496C0B5EF7B16DF
:1013700081F0E6EF7E16B9F0F4EF7F121EC0809187
:10138000CD039091CE0381609093CE038093CD03E3
:101390004FC08091CD039091CE0382609093CE0395
:1013A0008093CD034BC08091CD039091CE03846098
:1013B0009093CE038093CD0347C000EF701204C01A
:1013C0000E941525819505C011EF711205C00E947C
:1013D0001525809330045DC022EF721204C00E9474
:1013E0001525819505C033EF731205C00E941525A0
:1013F00080932F044EC049EF741203C00E94DC2476
:1014000005C08A3F31F40E94DC2481958093310429
:1014100040C08B3F21F40E94DC24819504C08C3FA6
:1014200029F40E94DC248093320433C0843F21F4E9
:1014300080912E04816017C0853F21F480912E0495
:10144000826011C0863F21F480912E0484600BC01D
:10145000873F21F480912E04886005C0883F31F4D5
:1014600080912E04806180932E0413C08D3F21F45F
:101470008091900481600BC08E3F21F48091900494
:10148000826005C08F3F29F480919004846080932E
:1014900090040E94DE2510C2853F71F0863FB1F0B6
:1014A000843FF1F48091CD039091CE038E7F909391
:1014B000CE038093CD0339C08091CD039091CE03AC
:1014C0008D7F9093CE038093CD0335C08091CD0363
:1014D0009091CE038B7F9093CE038093CD0331C048
:1014E000803F39F48091300487FF3AC01092300475
:1014F00037C0813F29F4809130041816BCF330C006
:1015000090912F04823F51F1833F09F433C4893F06
:1015100009F436C48A3F09F43BC48B3F09F43DC447
:101520008C3F09F441C4843F21F480912E048E7FC6
:1015300012C0853F21F480912E048D7F0CC0863F20
:1015400021F480912E048B7F06C0873F09F031C4BF
:1015500080912E04877F80932E0402C097FD0DC4D6
:1015600080912F04811195CF80913004811191CF0A
:101570008091310481118DCF80913204811189CF06
:101580001092330486CF812F837009F071C001114E
:1015900091C18B2D829586958770880F880F4B2D72
:1015A0004F7050E060E070E02A013B01082E04C05B
:1015B000440C551C661C771C0A94D2F7B4FE10C06C
:1015C0004FE050E060E070E004C0440F551F661F1C
:1015D000771F8A95D2F7409550956095709503C016
:1015E00040E050E0BA01812F869586958370009186
:1015F0008304109184042091850430918604823004
:1016000099F0E8F4813059F0442955296629772961
:10161000CB01BA01602371238223932326C0402A81
:10162000512A622A732A1BC0442955296629772921
:10163000CB01BA01602771278227932716C0CB01FF
:10164000BA0160237123822393230E945027409183
:101650008304509184046091850470918604CB01C9
:10166000BA0164297529862997290E94502722C129
:10167000002319F0812F817001C08695882309F419
:1016800019C18B2D829586958770880F880F4B2DF9
:101690004F7050E060E070E02A013B01082E04C06A
:1016A000440C551C661C771C0A94D2F7B4FE10C07B
:1016B0004FE050E060E070E004C0440F551F661F2B
:1016C000771F8A95D2F7409550956095709503C025
:1016D00040E050E0BA01812F869586958370009195
:1016E000A8041091A9042091AA043091AB0482307F
:1016F00099F0E8F4813059F0442955296629772971
:10170000CB01BA01602371238223932326C0402A90
:10171000512A622A732A1BC0442955296629772930
:10172000CB01BA01602771278227932716C0CB010E
:10173000BA0160237123822393230E94E9264091FA
:10174000A8045091A9046091AA047091AB04CB0144
:10175000BA0164297529862997290E94E926AAC019
:101760002B2D8B2D90E0FC01E05EF109E531F105B8
:1017700008F07DC0EC58FF4F0C94EF345B2D5F7088
:10178000B52E812F8F71002321F00E942F278B2DE2
:10179000C4CD0E94F3268B2D0E94582182C00023C5
:1017A00019F184E08A1508F47CC01F7181E090E093
:1017B000A0E0B0E0AC01BD0104C0440F551F661F9E
:1017C000771F1A95D2F78091A8049091A904A0914F
:1017D000AA04B091AB048A019B01082719272A2784
:1017E0003B27C901B80121C025E02A1508F459C0DA
:1017F000DCCF002329F0812F8F712CC00023D9F377
:10180000812F8F710E94F3264CC0002389F01F7135
:1018100081E090E0A0E0B0E0BC01CD0104C0660F23
:10182000771F881F991F1A95D2F70E94E92639C0A1
:1018300060E070E0CB01F9CF002379F01F71812FB8
:101840000E942F2738E0139FC001112483608093EA
:101850008704812F0E942F2724C081E00E9418272F
:1018600041E04A15F0F482E00E9418271AC00023D4
:1018700039F0AA2009F4BFCF8B2D0E94C92111C0D5
:10188000AA2009F4BDCF293349F45FEF87EE93E036
:10189000515080409040E1F700C000008B2D0E9425
:1018A0006D21A8E0CA1631F0CA1630F086EF8C0D13
:1018B000823010F40E94CF2CDD2009F495C2809173
:1018C000870480FD91C2F7011282859585958595E3
:1018D0000E942F27C7010E94C20580918704859529
:1018E00085958595A3960FB6F894DEBF0FBECDBF44
:1018F000DF91CF911F910F91FF90EF90DF90CF90EC
:10190000BF90AF907F906F905F904F900C94F326B4
:10191000F7018281882309F467C20E9454210E9442
:1019200023140E94D2258C0163E070E083E092E0F2
:101930000E94FB27C8010E94A8258A3F910538F420
:101940008FE99FE00197F1F700C00000F3CF0E94FC
:10195000F4130E945E25D70112968C91882309F416
:1019600043C2809137048160809337043DC20531C2
:10197000FCE51F0729F5D70112968C91882391F079
:1019800080918B048A7A91E009F490E09093C603E9
:10199000811102C069E201C065E383E494E00E9422
:1019A00027260BC08091C603811102C069E201C0E5
:1019B00065E383E494E00E941A260E94722614C212
:1019C0000F3B1C4509F0F3CBF7018281882309F412
:1019D0000BC28091C10380FF1DC08E7F8093C10325
:1019E0004091C1035091C2036091C3037091C4033D
:1019F00088E090E00E948E301092C003FFEF00E775
:101A000012E0F15000401040E1F700C000000E94D9
:101A1000DB2CEAC181608093C10386958F7304C07B
:101A2000882309F4E1C181E00E946530DDC188238B
:101A300009F4DAC16091C303862F90E08F3E9105CF
:101A400014F46F5E01C06FEF8091C103881F882777
:101A5000881F9091C203392F330F97FB992790F974
:101A600021E04091C403832B0E94AA2FBDC188238B
:101A700009F4BAC12091C103221F2227221F3091ED
:101A8000C203432F440F842F822B37FB992790F9F1
:101A90000A9601C00A9768E671E00E94DB3421E0F3
:101AA0004091C4036091C303DFCF882309F49CC134
:101AB0002091C103221F2227221F3091C203432FEE
:101AC000440F842F822B37FB992790F98A30910598
:101AD0000CF7825A9E4FE3CF063C3CE5130771F4A6
:101AE000882309F481C14091C403842F90E08F3E84
:101AF000910514F44F5E0FC04FEF0DC0073C1C451D
:101B0000D0F0882309F470C14091C403842F90E081
:101B10004197F4F041518091C103881F8827881FA5
:101B20009091C203392F330F97FB992790F921E049
:101B30006091C30398CF882309F456C16091C30311
:101B4000862F90E0419714F061517ECF60E07CCF0A
:101B500040E0E1CFD70112968C91882309F444C16B
:101B600088E162CF882309F43FC10E94690FDC013C
:101B7000CB010697A109B1090297A105B10508F4A7
:101B800098CA86E051CF882309F42EC10E94690FBC
:101B9000DC01CB010297A109B1090397A105B105A9
:101BA00008F487CA82E040CF0E3C3CE5130789F475
:101BB000882309F419C10E94690FDC01CB010F973A
:101BC000A109B1090597A105B10508F472CA8FE012
:101BD0002BCF0F3C1C4588F4882309F405C10E94D3
:101BE000690FDC01CB010997A109B1090597A1058E
:101BF000B10508F45ECA89E017CF882309F4F4C060
:101C00000E94690FDC01CB014597A109B109029738
:101C1000A105B10508F44DCA85E106CF043D5CE598
:101C2000150741F5D70112968C91882361F0109227
:101C3000CC030E94D2259093CA038093C90380E20B
:101C40000E946321D1C08091CC0381110FC080918B
:101C5000C9039091CA030E94A825883C910530F4DD
:101C600087E20E94C92187E20E946D2180E20E94E2
:101C70005821BAC0053D8CE5180708F041C0D701CE
:101C800012968C91023DBCE51B0729F4882309F4C8
:101C9000ABC083E2C9CE033D1C4588F4882309F418
:101CA000A3C00E94690FDC01CB014997A109B109CA
:101CB0000997A105B10508F4FCC989E1B5CE8823CF
:101CC00051F01092CB030E94D2259093C8038093C9
:101CD000C70382E0B5CF8091CB0381110FC0809103
:101CE000C7039091C8030E94A825883C910530F451
:101CF00086E20E94C92186E20E946D2182E0B7CF70
:101D0000083DFCE51F0741F4F7018281882309F4AF
:101D10006BC01092400468C0093D2CE5120751F4D5
:101D2000D70112968C91882309F45EC082E08093DB
:101D300040045AC0053D1C4509F039CAF7018281AB
:101D4000811175CF8091CC03811190CF8091C9030F
:101D50009091CA030E94A825883C910508F086CF7F
:101D600080E20E94582188E20E94C92188E20E94F4
:101D70006D213AC019160CF0F3CB10922F04F0CB62
:101D80008091310418160CF0EBCB10923104E8CBA3
:101D90008091310487FFE4CBF8CF8091320487FF34
:101DA000DFCB10923204DCCB809132041816CCF3D6
:101DB000D7CB883F21F480912E048F7ECCCB8D3FF2
:101DC00021F4809190048E7F0CC08E3F21F480918D
:101DD00090048D7F06C08F3F09F0C2CB80919004A4
:101DE0008B7F80939004BCCBA3960FB6F894DEBF94
:101DF0000FBECDBFDF91CF911F910F91FF90EF905C
:101E0000DF90CF90BF90AF907F906F905F904F909A
:101E10000895E1ECF3E083E080831092C2038FEF3A
:101E2000828383831482408151816281738188E03F
:101E300090E00C948E309091C10390FF49C091784E
:101E4000811102C0926007C0843210F0966403C012
:101E50008F73880F982B9093C103662361F0409194
:101E6000C1035091C2036091C3037091C40388E021
:101E700090E00E948E308091C103382F3E7732303F
:101E800019F41092C00312C0982F96959F732EE3F9
:101E9000290F2F73273110F0363421F491E09093FD
:101EA000C00304C0995D9F739A3058F3881F882738
:101EB000881F9091C203392F330F97FB992790F910
:101EC00020E04091C4036091C303832B0C94AA2F9C
:101ED00008956091C10360FF06C066956F7370E05E
:101EE00080E090E0089560E070E0CB01089580917B
:101EF000C10386958F73815009F483E20C94653099
:101F00008091C10386958F738F5F843208F081E0E2
:101F10000C946530809137048160809337040E946F
:101F20004126811104C00E944C260E94090F88E0BE
:101F300090E00E9470306093C1037093C20380935D
:101F4000C3039093C4036E7771F40E94090F88E075
:101F500090E00E9470306093C1037093C20380933D
:101F6000C3039093C40381E08093C0038091C103B5
:101F700080FF05C0869560E08F730C941B0F089559
:101F8000EF92FF920F931F93CF93DF93E9016623A4
:101F900009F44BC0242F30E0EFEFF0E0E61BF1092D
:101FA000B901E69F9001E79F300DF69F300D112497
:101FB000232F8B01031B11095CE3E52EF12CB701E4
:101FC0000E94C734FB01BC01069FC001079F900D12
:101FD000169F900D1124B7010E94C734E230F1051D
:101FE000B1F040F4309779F0319711F5832F242F19
:101FF000461B21C0E430F105A1F068F03597C1F42B
:10200000842F861B18C0832F262F230F14C0862FE2
:10201000830FE42F03C0E42FE61B842F432F2E2FC2
:102020000AC0842F462F430F06C0842F242F03C0DD
:1020300080E020E040E0E42FF0E0EE5BF74F4491D9
:10204000E22FF0E0EE5BF74F9491E82FF0E0EE5BCB
:10205000F74FE49149839883EA83DF91CF911F91F1
:102060000F91FF90EF90089581E08093BE0368E0A8
:1020700070E088E093E00C94FB2781E08093BF033D
:1020800068E070E088E892E00C94FB276091F2042D
:1020900061606093F20487E090E00E947C3062E02F
:1020A00070E088E692E00C94FB271F920F920FB627
:1020B0000F9211244F925F926F927F928F929F9214
:1020C000AF92BF92CF92DF92EF92FF922F933F9306
:1020D0004F935F936F937F938F939F93AF93BF9330
:1020E000CF93DF93EF93FF938091F104882309F45A
:1020F000C2C1C0911204D09113041C161D060CF02D
:10210000BAC140900E0450900F046090100470907B
:10211000110420E030E0A901C301B2010E94D632CF
:1021200018160CF065C0C130D10509F452C0809179
:102130000C0490910D04BE010E94DB347C0190934D
:102140000D0480930C048090E7049090E804A09024
:10215000E904B090EA0420E030E040E85FE3C50124
:10216000B4010E94B1306093E7047093E804809357
:10217000E9049093EA04F701EE0FFF1FEE0FFF1F33
:10218000E451FC4FA30192016081718182819381AE
:102190000E94223120E030E040E05EE30E945133B3
:1021A0009B01AC01C501B4010E94D63218168CF413
:1021B000C7010196BE010E94DB3490930D04809309
:1021C0000C041092E7041092E8041092E9041092B3
:1021D000EA04E0910C04F0910D04EE0FFF1FEE0FE6
:1021E000FF1FE451FC4FC080D180E280F380E0C04B
:1021F000809167022197882309F4BFC0C090E8034B
:10220000D090E903E090EA03F090EB0320E030E0A7
:10221000A901C701B6010E941D31882309F4A2C09B
:10222000FE01EE0FFF1FEE0FFF1FE451FC4F8080F9
:102230009180A280B380A5019401C701B6010E94DC
:102240001D3187FF31C0A501940160E070E08CED85
:1022500093EC0E94223120E030E040E451E40E94FF
:10226000223120E030E040E05FE30E9451339B01E7
:10227000AC0160E070E080E090E40E94BE339B011E
:10228000AC01C501B4010E9451339B01AC01C701EF
:10229000B6010E941D3187FF07C0A701960160E0CB
:1022A00070E08CED93E439C0A5019401C701B6013B
:1022B0000E94D63218160CF055C0A501940160E0BA
:1022C00070E08CED93E40E94223120E030E040E4A5
:1022D00051E40E94223120E030E040E05FE30E94C0
:1022E00051339B01AC0160E070E080E090E40E941B
:1022F000BE339B01AC01C501B4010E9451339B0167
:10230000AC01C701B6010E94D63218165CF5A701D0
:10231000960160E070E08CED93EC0E94223120E0A9
:1023200030E040E451E40E94223120E030E040E01F
:102330005FE30E9451339B01AC0160E070E080E0FC
:1023400090E40E94BE339B01AC01C701B6010E941C
:1023500051336093E8037093E9038093EA03909309
:10236000EB031EC0CC0FDD1FCC0FDD1FC451DC4FB3
:1023700088819981AA81BB810BC0FE01EE0FFF1FEE
:10238000EE0FFF1FE451FC4F80819181A281B38148
:102390008093E8039093E903A093EA03B093EB03DF
:1023A000C090E803D090E903E090EA03F090EB03DB
:1023B0008091E6039091E7038F3F2FEF920729F07A
:1023C00001969093E7038093E6038091A603811121
:1023D00016C01092670280E090E0A0E0BFE3809317
:1023E000630290936402A0936502B0936602109218
:1023F0000E0410920F04109210041092110420E0A9
:1024000034E244EF51E4C701B6010E941D3187FF59
:1024100008C086EFC82E88E2D82E84EFE82E81E42B
:10242000F82E20E030E040E051E4C701B6010E9400
:1024300051339B01AC0160E074E284E79BE40E94AD
:1024400022316B017C010E94CE3170939700609322
:102450009600209163023091640240916502509190
:102460006602C701B6010E9451330E94CE317093BB
:102470009900609398008091F004882309F449C181
:10248000C090E204D090E304E090E404F090E5040E
:1024900020E030E0A901C701B6010E94D63218162B
:1024A0000CF052C08091E6039091E7038F3F2FEF2D
:1024B000920729F001969093E7038093E6038091B9
:1024C000A603811116C01092670280E090E0A0E0A0
:1024D000BFE38093630290936402A0936502B0937C
:1024E000660210920E0410920F04109210041092C3
:1024F000110420E030E040E051E4C701B6010E9441
:1025000051339B01AC0160E074E284E79BE40E94DC
:1025100022316B017C010E94CE3170939700609351
:1025200096002091630230916402409165025091BF
:102530006602C701B6010E9451330E94CE317093EA
:1025400099006093980008C010929700109296002E
:1025500010929900109298006091DC047091DD0453
:102560006F5F7F4F7093DD046093DC0420919600D1
:102570003091970080E090E0232B71F12091E503EA
:1025800021112AC0C0919600D09197000E94FD3180
:102590006B017C01BE0180E090E00E94FD319B0157
:1025A000AC016091DE047091DF048091E0049091B1
:1025B000E1040E94223120E03FEF4FE757E40E9400
:1025C000513320E030E040E85FE30E94B0309B01EF
:1025D000AC01C701B6010AC00E94FD312091DE04A2
:1025E0003091DF044091E0045091E1040E94D63222
:1025F00087FD8FC08091E6048F5F8093E60490E0B2
:102600002091EC043091ED0482179307A0F08091A3
:10261000EB04882319F01092E6040DC0809171003C
:102620008D7F80937100809190008F7380939000D4
:102630001092F00476C09091E5038091E604E09159
:10264000EE04F091EF04911137C091E09093E5030F
:1026500081508093E60498E0899FE00DF11D1124DC
:10266000C080D180E280F38020853185428553850A
:10267000C701B6010E941D31811109C01092E20408
:102680001092E3041092E4041092E50408C0C09292
:10269000E204D092E304E092E404F092E50480E0E6
:1026A00090E0A0E8BFE38093DE049093DF04A09362
:1026B000E004B093E10429C01092E5031092E7030F
:1026C0001092E60328E0829FE00DF11D1124808125
:1026D0009181A281B3818093E2049093E304A0935B
:1026E000E404B093E50420E030E040E85EE3648178
:1026F0007581868197810E9451336093DE047093C7
:10270000DF048093E0049093E1041092DD041092C2
:10271000DC048091F20480FD04C01092F004109259
:10272000F104FF91EF91DF91CF91BF91AF919F9114
:102730008F917F916F915F914F913F912F91FF907A
:10274000EF90DF90CF90BF90AF909F908F907F9051
:102750006F905F904F900F900FBE0F901F90189545
:102760000E944126811102C00E944C2687E090E021
:102770000E9468308093F2048091F304811129C093
:102780003E9A809171008D7F8093710082E08093EA
:1027900090008AE18093910081EC91E19093970001
:1027A0008093960023EA3BE04EE855E46091630293
:1027B0007091640280916502909166020E9451338B
:1027C0000E94CE31709399006093980081E08093CD
:1027D000F3048091F20480FF06C063E070E08BE4B4
:1027E00092E00C94FB2708958091F304811102C0BC
:1027F0000E94B01310921304109212048091710081
:102800008D7F80937100809190008F7380939000F2
:102810001092F0041092F1041092E8031092E90370
:102820001092EA031092EB03ECEEF3E0A5EDB3E0B7
:1028300011921192119211921D921D9284E0EC302E
:10284000F807B1F708958091BF0381110C94F41338
:1028500008950E9423141092BF0368E070E088EC92
:1028600092E00C94FB2762E070E088E792E00E941F
:10287000FB272FEF81EE94E0215080409040E1F75C
:1028800000C000000E94F4136091F2046E7F609318
:10289000F20487E090E00C947C30CF92DF92EF92CC
:1028A000FF920F931F93CF93DF93682F70E06554CF
:1028B0007109072E000C880B990B0E94FF3120E054
:1028C00030E040E451E40E9422319B01AC0160E021
:1028D00070E080E090E40E94BE336B017C01809147
:1028E000F104882309F488C08091F304811102C0A7
:1028F0000E94B01320E030E04CED53E4C701B60174
:102900000E9451336B017C010CE014E0C7E0D0E081
:10291000A7019601F80192918291729162918F01C3
:102920000E941D31811131C0FE01EE0FFF1FEE0F1D
:10293000FF1FE451FC4F1082118212821382DE01CC
:10294000AA0FBB1FAB52BC4F11961C921E92C730F0
:10295000D105E9F0219644815581668177814083D4
:1029600051836283738314821582168217821296B2
:102970008D919C91139711969C938E9313961C9214
:102980001E92129734961296E2CF219708F6809104
:10299000120490911304019797FD05C090931304BE
:1029A0008093120404C010921304109212048091B8
:1029B00012049091130420910C0430910D042817F7
:1029C000390724F010920D0410920C04892BA1F405
:1029D000809171008D7F80937100809190008F7342
:1029E000809390001092E8031092E9031092EA039A
:1029F0001092EB031092F104DF91CF911F910F9190
:102A0000FF90EF90DF90CF900895CF92DF92EF92FA
:102A1000FF92682F70E065547109072E000C880B37
:102A2000990B0E94FF3120E030E040E451E40E9425
:102A300022319B01AC0160E070E080E090E40E94F4
:102A4000BE336B017C018091F304811102C00E94AE
:102A5000B0138091F20480FF52C0809112049091D3
:102A6000130408970CF04BC0809171008D7F809308
:102A700071008091F00481110E94F41320E030E095
:102A80004CED53E4C701B6010E9451336B017C0148
:102A900081E08093F1041092E7031092E60320E0B6
:102AA00030E0A901C701B6010E94D6321816ECF435
:102AB0008091120490911304FC01EE0FFF1FEE0FA2
:102AC000FF1FE451FC4FC082D182E282F382FC01FD
:102AD000EE0FFF1FEB52FC4F2FE030E031832083DD
:102AE0000196909313048093120480917100826088
:102AF0008093710080919000806880939000FF9097
:102B0000EF90DF90CF90089520E3829FC0011124C1
:102B1000FC0146E0749FE00DF11D1124E60FF11D4C
:102B2000EE0FFF1FEE51FE4F45915491CA014238FE
:102B3000510549F1B0F44133510509F460C048F43E
:102B40004932510509F456C04A32510509F45CC0B6
:102B500060C04533510509F448C04933510599F027
:102B600058C0433E510541F138F4403E510591F0C3
:102B7000423E5105B1F04DC0463E510521F1473E60
:102B8000510561F146C02091210420FD0DC221FDB7
:102B90000BC208952091210420FF14C289E390E024
:102BA00008952091210422FF0DC28091210484FD0B
:102BB000B3C183EE90E008958091210482FFF5CFA8
:102BC00082EE90E008952091210423FFFBC18091C3
:102BD000210484FDA1C187EE90E008958091210435
:102BE00083FFF5CF86EE90E008952091210425FD26
:102BF000DEC108952091210425FDDCC108952091B6
:102C0000210426FDDAC108952091210426FDD8C1B2
:102C10000895411520E5520708F04AC0411520E407
:102C2000520708F01EC1483E510528F5403E5105A7
:102C300008F0C8C1483A510578F4453A510508F002
:102C4000A3C04130510509F4BDC108F465C1443049
:102C5000510508F461C108954D3B510508F49FC02A
:102C6000403C510508F458C1CA01880F991F8E5382
:102C7000994FFC01EBC0411520E2520760F4411569
:102C800021E0520708F09EC1403F510508F444C1BD
:102C9000CA0190650895411580E3580708F0D9C02E
:102CA000CA019F70880F991FFC01EE5BF74FCEC0E1
:102CB000411525E5520708F046C0411584E558073F
:102CC00008F0E7C0411522E5520720F5411581E5DE
:102CD000580708F0CAC0CA01E4E096958795EA95BE
:102CE000E1F7282F2370342F337081E090E002C089
:102CF000880F991F3A95E2F79C68FC01F22B842F0C
:102D00008F708695869540E2849FC00111248E2B9A
:102D10009F2B0895BA0163707727242F2695269557
:102D20004115534508F0A6C081E090E002C0880F2D
:102D3000991F6A95E2F740E2249F90011124822BAB
:102D4000932B9C680895411529E5520788F4411595
:102D500088E5580708F0A2C0411526E5520708F09B
:102D6000DBC0CA018F719927982F88279062089538
:102D700041158AE5580708F496C0CA019056811596
:102D8000904208F49EC0C8C0453A510509F4C7C036
:102D9000463A510509F0C6C082E890E40895483AE1
:102DA000510509F4C2C0493A510509F4C1C04A3A73
:102DB000510509F4C0C04B3A510509F4BFC04C3A63
:102DC000510509F4BEC04B3B510509F4BDC04C3B55
:102DD000510509F4BCC04D3A510509F4BBC0403B54
:102DE000510509F4BAC04E3A510509F4B9C04F3A39
:102DF000510509F4B8C0413B510509F4B7C0423B45
:102E0000510509F4B6C0433B510509F4B5C0443B34
:102E1000510509F4B4C0453B510509F4B3C0463B24
:102E2000510509F4B2C0473B510509F4B1C0483B14
:102E3000510509F4B0C0493B510509F4AFC04A3B04
:102E4000510509F4AEC080E094E408958591949111
:102E50000895CA01992753FF02C0986C0895906C99
:102E60000895CA019F70906A0895942F8827816FF2
:102E7000906A089581E090E002C0880F991F6A95DA
:102E8000E2F740E2249F90011124822B932B9A6851
:102E90000895942F8827846F906A0895942F882727
:102EA000806F906A0895CA0124E0969587952A95C7
:102EB000E1F7282F2F70842F8F70806E90E0906A3A
:102EC00029C0252F2F719091210492FF0FC0352F1B
:102ED0003871383021F4252F2771246007C0352F31
:102EE0003471343019F4252F2B71286093FF0DC0F5
:102EF000822F8871883119F4277E246106C0822FC1
:102F00008471843111F42B7E286194FD277ECA01DF
:102F100099279062922B089580E090E0089581E8CF
:102F200090E4089583E890E4089582EE94E408958F
:102F300089EE94E408958AEE94E4089585EB94E490
:102F4000089586EB94E4089583EB94E4089584EB6C
:102F500094E4089587EB94E408958CEC94E4089548
:102F60008DEC94E4089583E895E408958AE895E467
:102F7000089582E995E4089584E995E4089581E24D
:102F800096E4089583E296E4089584E296E4089531
:102F900085E296E4089586E296E4089587E296E451
:102FA00008958AE296E4089580EE90E0089589E21B
:102FB00090E0089585E390E008958AE290E0089516
:102FC00081E390E00895CF93DF93EC01682F83E0D5
:102FD00090E00E947C30BE0180E090E0DF91CF91D4
:102FE0000C945027589A08955098589A08950E9422
:102FF000F41798E080E029B1880F2170822B20E837
:103000002A95F1F725E02A95F1F70000915099F7FC
:1030100008950E94F417489BFECF80E88A95F1F747
:103020000895509A08950F931F93CF93082F0E94ED
:103030001118C8E010E0C15088F0C8010C2E02C081
:10304000959587950A94E2F780FF03C00E94F217D6
:1030500001C0589880E88A95F1F7EDCFCF911F9184
:103060000F9108950E941118589880E88A95F1F7F9
:103070000C94F2171F920F920FB60F921124EF9239
:10308000FF921F932F933F934F935F936F937F9381
:103090008F939F93AF93BF93CF93DF93EF93FF9360
:1030A0000E943218C0E0D0E010E0CE018C5E9B4F51
:1030B0007C01FC0180810E9413180E943218F701E4
:1030C0008081180F2196C430D10579F7812F0E9495
:1030D00013180E943218F0E8FA95F1F780E48A9507
:1030E000F1F70E94F7178093D4030E943218C09121
:1030F000D4030E94F717D82F0E9432180E94F417A9
:103100008091D303DC1711F0816001C08E7F809322
:10311000D30381E080931804FF91EF91DF91CF9169
:10312000BF91AF919F918F917F916F915F914F91DF
:103130003F912F911F91FF90EF900F900FBE0F9036
:103140001F90189525982D982D9A83B12D9885FB61
:10315000882780F991E0892708952F923F924F9216
:103160005F926F927F928F929F92AF92BF92CF9217
:10317000DF92EF92FF920F931F93CF93DF9300D0D4
:1031800000D0CDB7DEB780914803811103C004E0C1
:1031900010E002C000E010E08FE7C82E83E0D82ED8
:1031A0009801275E3B4F790193E8892E93E0992E91
:1031B0003C832B83AA24A394B12C772473946B8132
:1031C0007C81DB015C901C92F60181916F01E82FFC
:1031D000E295EF70F0E021A18F70A50102C0440FCD
:1031E000551F8A95E2F7CA01242B21A322A1642E40
:1031F0006094262122A350EA5A95F1F7A7E8B3E09C
:10320000BA83A98320E030E0A981BA813D90BA83D6
:10321000A983432D42954F7050E0DA0190962C908F
:10322000AB81BC814C90432D4F70D50102C0AA0FD9
:10323000BB1F4A95E2F7AD01422141F45A2D022EFF
:1032400001C0550F0A94EAF7452F01C040E0442918
:10325000AB81BC814C932F5F3F4F26303105A1F6E7
:1032600091A1692261A292A1892B82A31196BC83AC
:10327000AB83FB018081581641F07092D1030E940C
:10328000D2259093D0038093CF038C149D0409F032
:1032900096CF8091D1038823A9F08091CF0390919C
:1032A000D0030E94A825069768F0F801EA5DFB4F5D
:1032B00080E0D7019D917D0191938F5F8430C9F7A4
:1032C0001092D10381E00F900F900F900F90DF913B
:1032D000CF911F910F91FF90EF90DF90CF90BF9013
:1032E000AF909F908F907F906F905F904F903F90A6
:1032F0002F900895CF92DF92EF92FF920F931F933A
:10330000CF93DF930E94AD18C82F8091480381119D
:1033100003C000E010E002C004E010E0F8940E9456
:103320001118589825E02A95F1F700000E94F4172B
:103330000E94F21730E83A95F1F7489936C00E949A
:103340000918D0E0E12CF12C0E94F717F701EC5E90
:10335000FB4F6F0180830E940918F6018081D80F0E
:10336000FFEFEF1AFF0A24E0E216F10469F70E946A
:10337000F717F82E0E940918DF1117C08091D403A7
:103380000E9413180E9409188091D4030E941318F8
:103390000E9409180E9411180E94F2177894F801EF
:1033A000EA5DFB4F80E090E00AC078945D988091E0
:1033B000D2038F5F8093D203863058F41DC0DC01A6
:1033C000AC5EBB4F2C912193019684309105B9F7E7
:1033D00010C080914803811103C0E0E0F0E002C01A
:1033E000E4E0F0E0EA5DFB4F10821182128213826A
:1033F00003C05D9A1092D2038091BB03882309F425
:1034000042C08091B7039091B803009781F40E9465
:10341000D2259093B8038093B7032091B90330E08D
:103420002115310571F48091BA0390E00BC00E9420
:10343000A82520910102309102022817390738F39C
:1034400022C0C9010197F901E955FC4FD0812091B3
:10345000BF03222331F0FC01E955FC4F80810E941B
:103460004D148091BF03882319F08D2F0E940515FC
:103470008091B90390E001966091BA0370E00E94D8
:10348000DB348093B9038C2FDF91CF911F910F9183
:10349000FF90EF90DF90CF900895E8EDF0E080810D
:1034A0008E7F80831092E2001092DA001092E10089
:1034B000A0EEB0E08C9181608C9380818F778083C7
:1034C00019BCA7EDB0E08C918E7F8C9380818F7EAC
:1034D0008083109241040895CF92DF92EF92FF9281
:1034E0000F931F93CF93DF93C8EDD0E088818F7E39
:1034F0008883E7EDF0E080818160808384E082BF93
:1035000081E08093410488818E7F888302EE10E001
:10351000F80110821092DA0081EEC82ED12CF6014B
:10352000108288818F7788838881806888838881EA
:103530008F7D888319BC10929E0410929F04109274
:103540009D0410929C0490EEE92EF12CF7018081ED
:103550008B7F808388818160888360E080E00E9427
:10356000C728F60180818E7F8083F8018081816089
:103570008083808188608083F70180818E7F808353
:10358000888180618883DF91CF911F910F91FF9097
:10359000EF90DF90CF9008951F920F920FB60F9289
:1035A00011242F933F934F935F936F937F938F9348
:1035B0009F93AF93BF93EF93FF938091E10082FFBE
:1035C00009C08091E20082FF05C08091E1008B7FFD
:1035D0008093E1008091DA0080FF2AC08091D800BA
:1035E00080FF26C08091DA008E7F8093DA00809180
:1035F000D90080FF18C080E189BD82E189BD09B48E
:1036000000FEFDCF81E080939E04809141048111F2
:103610000FC00E944D1A0E946C1A8091E2008460D3
:103620008093E20005C019BC10929E0410924104E0
:103630008091E10080FF17C08091E20080FF13C0FD
:103640008091E2008E7F8093E2008091E2008061B1
:103650008093E2008091D80080628093D80019BCEA
:1036600085E080939E048091E10084FF32C08091C8
:10367000E20084FF2EC080E189BD82E189BD09B4EA
:1036800000FEFDCF8091D8008F7D8093D80080917F
:10369000E1008F7E8093E1008091E2008F7E809335
:1036A000E2008091E20081608093E20080919F04BB
:1036B000882311F084E007C08091E30087FD02C0F9
:1036C00081E001C083E080939E040E9454210E9407
:1036D000CF2C8091E10083FF26C08091E20083FF20
:1036E00022C08091E100877F8093E10082E0809397
:1036F0009E0410929F048091E1008E7F8093E100F0
:103700008091E2008E7F8093E2008091E2008061F0
:103710008093E20060E080E00E94C7288091F00082
:1037200088608093F000FF91EF91BF91AF919F91DE
:103730008F917F916F915F914F913F912F910F905A
:103740000FBE0F901F9018952091E4003091E50076
:1037500095E64091EC00842F817040FF23C080915A
:10376000E80080FD1DC080919E04882399F085307B
:1037700099F08091EB0085FD11C04091E4005091DB
:10378000E5002417350729F3915011F09A01E1CF94
:1037900084E0089582E0089583E0089581E008952B
:1037A00080E008954091E80042FFDDCF08958091C8
:1037B000A00487FF11C08091E80082FD05C08091C0
:1037C0009E048111F8CF11C08091E8008B770BC067
:1037D00080919E04882349F08091E80080FFF8CF13
:1037E0008091E8008E778093E80008952091A604E8
:1037F0003091A7042617370748F06115710539F491
:103800002091E8002E772093E80001C0B901FC0167
:1038100020E06115710579F180919E048823F1F112
:103820008530F1F18091E80083FD3CC08091E80093
:1038300082FD2EC08091E80080FFEBCF2091F30045
:103840008091F20090E0922B6115710551F0883063
:10385000910538F421912093F1006150710901968E
:10386000F3CF21E0089709F020E08091E8008E77FF
:103870008093E800CECF2111CFCF0AC080919E0463
:10388000882361F0853061F08091E80083FD0AC0F3
:103890008091E80082FFF2CF80E0089582E00895F1
:1038A00083E0089581E0089580914004811107C06C
:1038B00080919E04843011F081E0089582E00895A3
:1038C000CF93DF93CDB7DEB72A970FB6F894DEBF5C
:1038D0000FBECDBF84B7877F84BF0FB6F894A8957D
:1038E00080916000886180936000109260000FBE3C
:1038F00080E880936100109261000E94A2188823E2
:1039000051F024982C982C9A83B1829581708093E1
:1039100048032C980AC08EE090E00E94683091E045
:10392000811101C090E0909348030E944D1A0E94BB
:103930006C1A8091E20084608093E2007894809118
:103940009E048823A1F01091E9001F709091EC0073
:10395000892F817090FD80E8182B1092E9008091EA
:10396000E80083FD0E94FC281F701093E90082E0AC
:1039700084BD93E095BD9AEF97BD80936E0085B7A7
:10398000806885BF85B7806885BFAFE7B3E041E059
:1039900050E08D91E82FE295EF70F0E021A18F705B
:1039A000BA0102C0660F771F8A95E2F7CB01962F06
:1039B0009095922391A392A1892B82A373E0A338BF
:1039C000B70739F7A7E8B3E041E050E08D91E82F61
:1039D000E295EF70F0E021A18F70BA0102C0660F8E
:1039E000771F8A95E2F7CB01962F9095922391A3AA
:1039F00092A1892B82A373E0AD38B70739F7559AA6
:103A0000209AA9E1B4E0E6E2F4E011921D9284E08C
:103A1000EE32F807D1F70E948A0F82E084BD93E06E
:103A200095BD9AEF97BD80936E000E94F417E89AB7
:103A3000809169008C7F8093690078940E94B01314
:103A40000E94A218882369F08091D8008061809339
:103A5000D8009AE19A95F1F700C08091D900817061
:103A600005C08091E300881F8827881F81111BC033
:103A70000E94202D0E94AD1880914803811103C03F
:103A8000E4E0F0E002C0E0E0F0E0EA5DFB4F80E05F
:103A900090E02191DC01AC5EBB4F2C930196843009
:103AA0009105B9F7CDCF809118048111E1CF0E9423
:103AB00011180E94F2170E944126811102C00E9433
:103AC0004C2682E090E00E9468308093370484E0C6
:103AD00090E00E94683090E090932204809321044B
:103AE00083E090E00E946830682F70E080E090E012
:103AF0000E9450270E948A0F8BE493E09093240445
:103B00008093230499249A94EE24E394F12C90E179
:103B1000692E22E1722E38E1C32ED12C40E4842E8E
:103B200080919E04853009F035C080919E048430D8
:103B300009F1109225040FB6F894A895C092600080
:103B40000FBE8092600083B7817F846083BF83B79C
:103B5000816083BF7894889583B78E7F83BF0FB6CB
:103B6000F894A8958091600088618093600010921D
:103B700060000FBE80919D04882391F20E947A1903
:103B8000E6E2F4E081918111F7C034E0EE32F30710
:103B9000C9F7C6CF0E947A19E8E3F4E0A6E2B4E0E0
:103BA00000E010E0702F6D9121912627B1F180E0A7
:103BB00090E030E0B82EA901082E02C05595479537
:103BC0000A94E2F740FF25C089837A83C70102C0C7
:103BD000880F991FBA94E2F75C01862F90E08A2142
:103BE0009B2121E0892B09F420E02B830E94D22520
:103BF0008160782F9D838C8349815A816B818D816F
:103C00000E94072CF801E85CFB4F8081A826A08267
:103C100019C001968630910569F60F5F1F4F083075
:103C2000110509F0BFCF9E829F8218860E94D2257F
:103C30008160782F9A8789874E815F8168858A8520
:103C40000E94072C80913404909135040E94A8258D
:103C5000AC0190913304992321F020914A0330E084
:103C600006C0209149036AE0269F90011124421763
:103C7000530708F474C080912F041091300481110F
:103C80000BC011118DC020913104211189C02091E8
:103C90003204211185C063C09F3F19F09F5F90934C
:103CA0003304181624F40E94152580932F04809164
:103CB0002F0487FF05C00E941525819580932F044E
:103CC000111624F40E94152580933004809130044D
:103CD00087FF05C00E94152581958093300430919F
:103CE0002F043323C1F0209130042223A1F075EB7F
:103CF0003703C0011124892F911101C081E0809305
:103D00002F0435EB2303C0011124892F911101C029
:103D100081E08093300480913104181624F40E94CD
:103D2000DC24809331048091310487FF05C00E9418
:103D3000DC2481958093310480913204181624F498
:103D40000E94DC24809332048091320487FF05C0F6
:103D50000E94DC248195809332040E94DE250E941B
:103D6000CF2C90913604891721F00E94CF2C80939C
:103D700036040E94202DD4CE69BC79BC09B400FE63
:103D8000FDCF8091D8008F7D8093D8008091E00096
:103D900082608093E0008091E00081FDFCCFC0CE86
:103DA0009F3F09F07BCF8CCFCF93809150048295B9
:103DB0008F7009F05FC080914D04882309F45AC0C8
:103DC00080918204B091510470914B04A0914C04F5
:103DD00040914E0450914F0491E07F3F09F090E0F4
:103DE000692FC6E08B1709F445C04115510521F034
:103DF000AF3F21F020E003C021E001C0262F90E07A
:103E000020FD35C0C89FF001C99FF00D1124EE5A66
:103E1000FB4F21812A132BC02081271328C0228128
:103E2000211125C0238134812417350710F4215036
:103E30003109241B350B283C3105C8F4209150046E
:103E40002F7020612093500426E0289FF001299FC5
:103E5000F00D1124E95AFB4F80818F7080618083BF
:103E60008BE494E00E94C205CF910C94F127019657
:103E70008770B8CFCF9108950E94DE26E92FE29592
:103E8000EF704E2F50E0FA013297EE30F105B0F4AA
:103E9000E757FF4F0C94EF34803F91F018F4803EC9
:103EA00068F40EC0843F51F40BC0803E48F0813F5F
:103EB00029F406C093FB882780F9089580E00895CF
:103EC00081E00895AF92BF92CF92DF92EF92FF927E
:103ED0000F931F93CF93DF93CDB7DEB761970FB6E4
:103EE000F894DEBF0FBECDBF8C0185E0F801DE0186
:103EF0001D9601900D928A95E1F7D8013C9111969B
:103F00002C9111971296EC9050914B0460914C04B7
:103F100080914E0490914F04009731F06F3F31F43F
:103F200041E05F3F19F403C041E001C040E0B42F1D
:103F3000B170BB2E40FD43C1F801C380D480A09076
:103F40004D04AA2009F4E2C040915004C816D906D5
:103F500028F0D601A81BB90BCD0104C0809590951F
:103F60008C0D9D1DFF24F394883C910548F0F12CA5
:103F7000407F09F090C08BE494E00E94C20517C115
:103F8000842F807F09F052C0621312C0531310C0F7
:103F9000FE2CE1100DC04F704061409350048BE443
:103FA00094E00E94C20580915004F801858348C1C5
:103FB000CD2831F02F3F31F481E03F3F19F403C0A9
:103FC00081E001C080E080FD03C081E08E2502C059
:103FD00080E090E0F82FF170FF2E80FF1CC08091F0
:103FE00082044091510456E0841709F406C190E020
:103FF000589FF001599FF00D1124EE5AFB4F61813B
:10400000261306C06081361303C06281E61203C026
:1040100001968770E9CFFE2CEE2009F411C1809142
:104020005004816080935004F12C0AC1621308C0CF
:10403000531306C0E11004C080915004F80199C0E8
:104040003D872E878D859E850E943C1F882369F1C0
:10405000EE2059F120915004822F82958F7090E0CC
:10406000029774F080914B0490914C0498878F8351
:104070001986DB86CA862C87CE0107960E94C20568
:1040800086E0F801ABE4B4E001900D928A95E1F787
:104090000E94D41E0DC0621771F03D872E878D855A
:1040A0009E850E943C1F81111AC0C8010E94C20552
:1040B000FF24F394C5C05313F0CFE110EECF8091ED
:1040C0005004F8018583C8010E94C20586E0EBE434
:1040D000F4E0DF011D928A95E9F7FA2CB1C0EE20D9
:1040E00021F320915004822F82958F7090E00297E7
:1040F0003CF280914B0490914C049A8389831B82FB
:10410000DD82CC822E83CE010196B8CFC816D906A7
:1041100038F0C81AD90AB8ECCB16D10450F007C051
:10412000809590958C0D9D1D883C910510F0F12C8B
:104130003EC0FE2CEE2009F4B8CF621327C0531303
:1041400025C02091500420FD18C0822F82958F70C9
:10415000482F50E04115510581F0F80125834F307B
:10416000510541F08F5F982F9295907F822F8F702D
:10417000892B8583C8010E94C20586E0F801ABE463
:10418000B4E001900D928A95E1F75AC03D872E87E1
:104190008D859E850E943C1F811172CF80915004B5
:1041A000816080935004C8010E94C20549C0EBE4BD
:1041B000F4E086E0DF011D928A95E9F741C0EE2028
:1041C00009F473CF3D872E878D859E850E943C1F05
:1041D000F82E882309F469CF86E0F801ABE4B4E057
:1041E00001900D928A95E1F780914B0490914C04D7
:1041F0000E94DE260E94D41E23C03D872E878D8517
:104200009E850E94DE26292F22952F70223028F4C9
:104210009F7039F0811105C00BC0243028F49F70C5
:1042200049F4805E883020F0C8010E94C205BF2C8E
:10423000FB2C06C0D80115969C91907F91F7F8CF82
:104240008F2D61960FB6F894DEBF0FBECDBFDF9104
:10425000CF911F910F91FF90EF90DF90CF90BF9083
:10426000AF90089510928A0410928904E4E4F4E077
:10427000119284E0EB34F807D9F70E947226EEE23F
:10428000F4E085E0DF011D928A95E9F7109233048E
:10429000109290040E94DE2580E090E00E94B92CEC
:1042A00080E090E00C94A32C10928B040C943221AB
:1042B000882341F0809590918B04892380938B040F
:1042C0000C9472260895882339F090918B04892BE1
:1042D00080938B040C9472260895882309F458C0A7
:1042E000682F823869F40E94CF2C81FF51C069E3A6
:1042F00083E494E00E9427260E94722669E30EC0A0
:10430000833891F40E94CF2C80FF42C063E583E4A0
:1043100094E00E9427260E94722663E583E494E0DD
:104320000E941A260C947226843869F40E94CF2CBD
:1043300082FF2EC067E483E494E00E9427260E9457
:10434000722667E4EBCF8CEF860F813A38F380E278
:10435000860F883070F4677081E090E001C0880FAC
:104360006A95EAF7809590918B04892380938B045A
:10437000D9CF8BE5860F833020F480E090E00C9459
:10438000B92C685A653120F480E090E00C94A32C9D
:104390000895CF93882309F476C1C82F8238B1F4E9
:1043A0000E94CF2C81FD6FC169E383E494E00E94F9
:1043B00027260E9472262FEF81EE94E02150804044
:1043C0009040E1F700C0000069E317C08338D1F4E2
:1043D0000E94CF2C80FD57C163E583E494E00E94E6
:1043E00027260E9472262FEF81EE94E02150804014
:1043F0009040E1F700C0000063E583E494E00E9490
:104400001A263EC18438B1F40E94CF2C82FD3BC1F4
:1044100067E483E494E00E9427260E9472262FEF2F
:1044200081EE94E0215080409040E1F700C0000010
:1044300067E4E3CF8CEF8C0F813A08F082C0809163
:104440009104813069F018F0823021F172C08091BE
:104450004304823209F00FC18C2F0E9471276EC075
:10446000809143048232C1F3C43189F050F4CB30DF
:1044700009F4FFC0C03109F05FC082E0809391046D
:10448000F8C0C93221F0C83309F4F3C055C0109206
:10449000910452C0C932A9F128F5C43191F1B0F4A8
:1044A000C73009F0F0C08EE18093490382E3809326
:1044B0004A038AE08093580384E18093570388E09D
:1044C0008093560388E280935503DDC0CE51C630F9
:1044D00008F0D9C0EC2FF0E0E357FC4F80818093C7
:1044E0004204D1C0CE34F9F028F4CB3409F0CBC06B
:1044F0006AE014C0C13581F0C23509F0C4C061E082
:104500000DC080914204882319F010924204BBC070
:1045100081E080939104B7C061E006C080914204BD
:10452000CF910C9466246AE080914204CF910C9460
:104530001624109291049FC080E081708111A3C065
:104540009AC080E28C0F883068F4C77081E090E0F8
:1045500001C0880FCA95EAF790918B04892B80934C
:104560008B048EC08BE58C0F833078F4C53A29F02C
:10457000C63A31F083E890E005C081E890E002C0DF
:1045800082E890E0CF910C94B92C88E58C0F8531AE
:1045900008F079C0C83A61F1C93A69F1CA3A71F1D3
:1045A000CB3A79F1CC3A81F1CB3B89F1CC3B91F11B
:1045B000CD3A99F1C03BA1F1CE3AA9F1CF3AB1F190
:1045C000C13BB9F1C23BC1F1C33BC9F1C43BD1F11D
:1045D000C53BD9F1C63BE1F1C73BE9F1C83BF1F17D
:1045E000C93BF9F1CA3B09F43FC080E090E03EC00E
:1045F00082EE90E03BC089EE90E038C08AEE90E019
:1046000035C085EB90E032C086EB90E02FC083EBA5
:1046100090E02CC084EB90E029C087EB90E026C0AE
:104620008CEC90E023C08DEC90E020C083E891E01A
:104630001DC08AE891E01AC082E991E017C084E9C0
:1046400091E014C081E292E011C083E292E00EC0DA
:1046500084E292E00BC085E292E008C086E292E03C
:1046600005C087E292E002C08AE292E0CF910C940A
:10467000A32C81E062CF6C2F83E494E00E94272674
:10468000CF910C947226CF91089580919304089550
:10469000CF93DF9300D01F92CDB7DEB720919E0459
:1046A000243031F522E02983805891099B838A8345
:1046B00083E08093E9008FEF9091E800815095FDB1
:1046C00006C095ED9A95F1F700008111F5CF809124
:1046D000E80085FF0DC040E050E063E070E0CE01EF
:1046E00001960E949B288091E8008E778093E800D5
:1046F0000F900F900F90DF91CF9108950F931F931C
:10470000CF93DF9300D01F92CDB7DEB78C010E940C
:10471000541C823011F0843019F583E089831B83A7
:104720000A838093E9008FEF9091E800815095FD16
:1047300006C095ED9A95F1F700008111F5CF8091B3
:10474000E80085FF0DC040E050E063E070E0CE017E
:1047500001960E949B288091E8008E778093E80064
:104760000F900F900F90DF91CF911F910F910895AF
:10477000CF93DF93EC010E94541C823011F08430FF
:10478000F9F482E08093E9008FEF9091E800815086
:1047900095FD06C095ED9A95F1F700008111F5CFD2
:1047A0008091E80085FF0CC040E050E065E070E0DB
:1047B000CE010E949B288091E8008E778093E800CC
:1047C000DF91CF910895CF93DF93EC010E94541CA9
:1047D000823011F0843039F581E08093E9008FEF69
:1047E0009091E800815095FD06C095ED9A95F1F7FE
:1047F00000008111F5CF8091E80085FF14C040E0F2
:1048000050E068E070E0CE010E949B288091E800B3
:104810008E778093E80088E0FE01A4E9B4E001907F
:104820000D928A95E1F7DF91CF910895833011F1D0
:1048300028F4813049F0823091F00895853081F17B
:1048400020F18630C1F1089580914903681720F462
:10485000861B80934903089510924903089580911F
:104860004A03681720F4861B80934A030895109228
:104870004A03089580915803681720F4861B80939B
:1048800058030895109258030895809157036817AC
:1048900020F4861B809357030895109257030895C0
:1048A00080915603681720F4861B80935603089561
:1048B00010925603089580915503681720F4861BC3
:1048C000809355030895109255030895833081F124
:1048D00028F4813059F08230D1F00895853009F400
:1048E00049C0B8F1863009F456C008958091490353
:1048F000262F30E0280F311D2F3F310524F4680F9B
:104900006093490308958FEF809349030895809140
:104910004A03262F30E0280F311D2F3F310524F4A4
:10492000680F60934A0308958FEF80934A030895B8
:1049300080915803262F30E0280F311D2F3F31057D
:1049400024F4680F6093580308958FEF8093580301
:10495000089580915703262F30E0280F311D2F3FF7
:10496000310524F4680F6093570308958FEF809307
:104970005703089580915603262F30E0280F311DEC
:104980002F3F310524F4680F6093560308958FEF8D
:1049900080935603089580915503262F30E0280F09
:1049A000311D2F3F310524F4680F6093550308959E
:1049B0008FEF8093550308958091900480FF08C085
:1049C0006091560370E0759567957595679521C060
:1049D00081FF06C06091560370E07595679519C018
:1049E00082FF04C06091560370E010C090913304C0
:1049F000992399F0609155039617A0F7809156037B
:104A0000899FC001112470E00E94DB346038710579
:104A100040F46115710519F406C061E070E0862F5D
:104A200008958FE7089581E008958091900480FFB4
:104A30000BC06091580385E0689FB0011124759503
:104A40006795759567952BC081FF09C060915803E4
:104A500085E0689FB00111247595679520C082FF9D
:104A600007C06091580385E0689FB001112417C00A
:104A7000909133049923D1F060915703961788F7EA
:104A80002091580385E0289F90011124929FA00156
:104A9000939F500D112470E0CA010E94DB346038EE
:104AA000710540F46115710519F406C065E070E008
:104AB000862F08958FE7089581E0089581E080931F
:104AC000E00080E28093D8001092C9008FE19EE45C
:104AD0000197F1F700C0000087E090EBDC018093C4
:104AE000110590931205A0931305B09314059CE053
:104AF00088E10FB6F894A895809360000FBE90935C
:104B00006000FFCF78941F920F920FB60F9211247E
:104B10008F939F93AF93BF9380918C0490918D045A
:104B2000A0918E04B0918F040196A11DB11D8093B8
:104B30008C0490938D04A0938E04B0938F04BF9146
:104B4000AF919F918F910F900FBE0F901F9018956E
:104B5000CF92DF92EF92FF920F931F932FB7F894AB
:104B600040918C0450918D0460918E0470918F045B
:104B70002FBF6A017B01EE24FF248C0120E030E08E
:104B8000C016D106E206F30610F4415051099A010D
:104B9000281B390BC9011F910F91FF90EF90DF90F7
:104BA000CF9008952FB7F89480918C0490918D0444
:104BB000A0918E04B0918F042FBF0895E09123043B
:104BC000F0912404309731F00480F581E02D8EE2DD
:104BD00094E009950E94D225909335048093340483
:104BE00008951F920F920FB60F9211248F939F93E7
:104BF000AF93BF9380912504811113C080918C04E1
:104C000090918D04A0918E04B0918F044196A11DC6
:104C1000B11D80938C0490938D04A0938E04B09367
:104C20008F04BF91AF919F918F910F900FBE0F9006
:104C30001F9018959C012A5F3F4FFC01428146134B
:104C400001C01282019682179307B9F708959C015B
:104C5000FC0132969FEF80E04191461789F09F3F1B
:104C600019F4411101C0982F8F5F8630A9F79F3F3B
:104C700039F0F901E90FF11D97FDFA956283089566
:104C8000089580E090E00E94763021E08D3E9E4FB6
:104C900009F020E0822F08956DEE7EEF80E090E035
:104CA0000E949A3060E082E090E00E947C3060E0F8
:104CB00083E090E00E947C3060E084E090E00E941D
:104CC0007C3060E085E090E00E947C306FEF87E010
:104CD00090E00E947C3040E050E0BA0188E090E033
:104CE0000C948E3090918B0480918A04892B2091B2
:104CF0008904982F922B90934304809188048823F1
:104D000089F0892B80934304E4E4F4E02BE434E05D
:104D100080E0919191118F5F2E173F07D1F781119C
:104D200010928804E0912304F0912404309731F02C
:104D30000280F381E02D83E494E009940895CF92FA
:104D4000DF92EF92FF920F931F93CF93DF938C012B
:104D5000C090A804D090A904E090AA04F090AB04FD
:104D60008091830490918404A0918504B09186047D
:104D7000C82AD92AEA2AFB2ACFE1D0E0D701C60106
:104D80000C2E04C0B695A795979587950A94D2F7EF
:104D900080FD04C0219790F780E007C0B8018C2FF8
:104DA0000E9484150197B1F38C2FDF91CF911F9151
:104DB0000F91FF90EF90DF90CF900895CF93DF9306
:104DC000EC010E949F26BE010E948415DF91CF91C5
:104DD00008956093A8047093A9048093AA04909303
:104DE000AB040C9432210F931F9341E050E060E03C
:104DF00070E004C0440F551F661F771F8A95D2F7D5
:104E000040955095609570958091A8049091A90463
:104E1000A091AA04B091AB048A019B010823192335
:104E20002A233B23C901B8011F910F910C94E92655
:104E3000209187048095822380938704982F977010
:104E400069F430E0482F082E000C550B2417350765
:104E500029F08595859585950C94F32608950F93F3
:104E60001F9341E050E060E070E004C0440F551F24
:104E7000661F771F8A95D2F78091A8049091A904A4
:104E8000A091AA04B091AB048A019B01082B192BB5
:104E90002A2B3B2BC901B8011F910F910C94E926D5
:104EA00060938304709384048093850490938604B4
:104EB0000C9432210F931F9341E050E060E070E0CA
:104EC0008A019B0104C0000F111F221F331F8A9506
:104ED000D2F7C901B8010E9450271F910F910C947D
:104EE00054218732D8F58E3108F072C08E3009F423
:104EF0005CC098F4873009F44AC08B3009F46BC069
:104F0000863009F06CC080913704817F8E7F80935A
:104F1000370481E0809391040895863109F45BC0E1
:104F200068F4803109F05BC08091370483FB22274D
:104F300020F991E0922790FB83F940C0893109F470
:104F40004AC08B3109F04BC08091370481FB222786
:104F500020F991E0922790FB81F930C08833D9F194
:104F600038F48932D1F18533C1F18732B1F137C0DC
:104F7000833499F120F48A3390F189532AC088341C
:104F800071F50E9454210E94F4130E945E258091C5
:104F90003704982F9095917090FB80F98093370497
:104FA000911119C0897F877F10C08091370482FBDF
:104FB000222720F991E0922790FB82F98093370411
:104FC000992349F08091370481608093370403C0AE
:104FD0008D510E945A2781E0089580E0FACF80E049
:104FE00008958091820490915104891719F08F5F80
:104FF0008770FBCF08950F931F93CF93DF93EC013E
:105000008B018091F304811102C00E94B013809142
:10501000F20480FF4DC0809171008D7F80937100FC
:105020008091F10481110E94F41381E08093F004D7
:10503000D093EF04C093EE041093ED040093EC04BE
:105040001092EB041092E7041092E8041092E90425
:105050001092EA041092E60488819981AA81BB81AA
:105060008093E2049093E304A093E404B093E504F6
:1050700020E030E040E85EE36C817D818E819F819D
:105080000E9451336093DE047093DF048093E00448
:105090009093E1041092DD041092DC048091710081
:1050A000826080937100809190008068809390006E
:1050B000DF91CF911F910F91089521B32E7F31B3CE
:1050C00031604FB7F894ECEAF4E084559B4FE81751
:1050D000F90789F0519168E031BB000000C057FF2B
:1050E00021BB550F000000C000C000C021BB00C0A4
:1050F0006A9591F7ECCF4FBF08950F931F9380915E
:10510000A8049091A904A091AA04B091AB048C01C9
:105110009D010871112722273327BC01CD010831D9
:1051200011052105310511F4816001C08E7F1F91A9
:105130000F910C94E926EF92FF920F931F93CF9358
:10514000DF937C018B010E94A41B811119C0E70130
:1051500001151105A1F08091E80085FD0AC080913C
:10516000E8008E778093E8000E94A41B882381F3D7
:1051700007C089918093F10001501109E9CF80E0C7
:10518000DF91CF911F910F91FF90EF900895982F8D
:10519000973068F59093E900981739F05091EC003A
:1051A0002091ED004091F00003C0562F40E022E036
:1051B00021FD02C09F5FECCF3091EB003E7F30932A
:1051C000EB003091ED003D7F3093ED003091EB002E
:1051D00031603093EB005093EC002093ED0040934E
:1051E000F0002091EE0027FDE5CF80E008958F705C
:1051F0008093E90081E008951F93CF93DF93CDB7AB
:10520000DEB7AA970FB6F894DEBF0FBECDBFE0EAB7
:10521000F4E08091F100819344E0E83AF407C9F7A3
:105220008091A104833009F453C030F4813071F0CF
:10523000823009F48DC0A4C08A3009F479C08B3063
:1052400009F45EC0893009F09BC020C08091A004A1
:10525000813A09F095C08091E800877F8093E8004B
:105260008091A4049091A504892B21F468E084E93D
:1052700094E003C060E080E090E070E00E94F61BE4
:105280008091E8008B778093E8007AC08091A00439
:10529000813209F075C08091A4049091A504892BF6
:1052A00009F06EC08091E800877F8093E8008091CC
:1052B000E80082FD05C080919E048111F8CF60C096
:1052C0008091F100809393048091E8008B7754C023
:1052D0008091A004813A09F053C08091A404909178
:1052E000A504892B09F04CC08091E800877F80934A
:1052F000E8008091E80080FFFCCF8091590337C01F
:105300008091A0048132E1F58091A4049091A504DC
:10531000892BB1F58091E800877F8093E8000E9497
:10532000D71B8091A204809359030E94542128C066
:105330008091A004813221F58091E800877F8093DD
:10534000E8000E94D71B8091A3048093920418C0A8
:105350008091A004813AA1F48091E800877F809336
:10536000E8008091E80080FFFCCF80919204809358
:10537000F1008091E8008E778093E8000E94D71BAF
:105380008091E80083FFE1C18091A0049091A10485
:10539000492F50E04A30510508F0D7C1FA01E956CB
:1053A000FF4F0C94EF34803821F0823809F0CDC1E2
:1053B00008C080919C0490919D04992389F082609B
:1053C0000FC08091A4048F70873008F0BEC1809315
:1053D000E9008091EB0085FB882780F91092E900B5
:1053E0009091E800977F9093E8008093F1001092ED
:1053F000F1007CC1282F2D7F09F0A7C1882319F067
:10540000823061F0A2C18091A204813009F09DC177
:10541000933009F080E080939D042EC08091A20417
:1054200081112AC08091A4048F702FEF280F26309D
:1054300008F08BC18093E9002091EB0020FF1CC095
:10544000933021F48091EB00806214C09091EB00C6
:1054500090619093EB0021E030E0A90102C0440F7D
:10546000551F8A95E2F74093EA001092EA00809176
:10547000EB0088608093EB001092E9008091E800D7
:10548000877F8093E8000E94D71B5FC181115DC1B7
:105490001091A2041F778091E3008078812B809384
:1054A000E3008091E800877F8093E8000E94D71B8B
:1054B0008091E80080FFFCCF8091E30080688093BA
:1054C000E300111102C082E001C083E080939E04DA
:1054D0003CC18058823008F038C12091A20430913C
:1054E000A3042C3D53E0350779F583E08A838AE2F3
:1054F00089834FB7F894DE01139620E03EE051E235
:10550000E32FF0E050935700E49120FF03C0E295B1
:10551000EF703F5FEF708E2F90E0EA3010F0C7968B
:1055200001C0C0968D939D932F5F243149F74FBFE3
:105530008091E800877F8093E8006AE270E0CE0106
:1055400001960E94F61BC1C08091A4049091A5040D
:10555000432F552743305105B1F068F441305105D0
:1055600009F402C14230510509F0EFC084E590E032
:10557000E5E0FAE057C04132510589F14232510568
:1055800009F43CC0E2C0C901992781309105B9F006
:1055900070F082309105D9F0039709F0D6C0EBE6A0
:1055A000FAE0E4918E2F90E0EBE6FAE038C0E1ED0E
:1055B000FAE0E4918E2F90E0E1EDFAE030C0EDEBFF
:1055C000FAE0E4918E2F90E0EDEBFAE028C0E1E7FD
:1055D000FAE0E4918E2F90E0E1E7FAE020C083301A
:1055E000910508F0B2C0880F991FFC01E056FC4FEE
:1055F0000190F081E02D89E090E014C083309105A6
:1056000008F0A3C0FC01EE0FFF1FE656FC4F01900F
:10561000F081E02DDC01A956BC4F8C9190E0009701
:1056200009F493C02091E800277F2093E80020919F
:10563000A6043091A7048217930708F49C0140E068
:105640002115310589F180919E04882309F43DC01C
:105650008530D9F18091E80083FD37C08091E80062
:1056600082FD2FC08091E80080FFEACF4091F300D7
:105670008091F20090E0942B2115310559F088308B
:10568000910540F444914093F10031962150310945
:105690000196F2CF41E0089709F040E08091E800E0
:1056A0008E778093E800CCCF4111CDCF0AC0809196
:1056B0009E04882351F0853041F08091E80083FDFD
:1056C00004C08091E80082FFF2CF8091E8008B77E0
:1056D0008093E8003AC08038C1F58091E800877F68
:1056E0008093E80080919F048093F1008091E8000E
:1056F0008E77C7CE811129C08091A2049091A30416
:105700009927029714F58091E800877F8093E8003D
:105710001091A20410939F040E94D71B111106C080
:105720008091E30087FD02C081E001C084E08093A6
:105730009E0461EC81E00E94C72861EC82E00E9437
:10574000C72861EC83E00E94C7288091E80083FFAE
:1057500010C08091E800877F8093E8008091EB0083
:1057600080628093EB0005C082E190E0E9E5FAE019
:1057700059CFAA960FB6F894DEBF0FBECDBFDF910A
:10578000CF911F9108951F920F920FB60F9211247F
:105790002F933F934F935F936F937F938F939F9339
:1057A000AF93BF93CF93DF93EF93FF93C091E90043
:1057B000CF708091EC00D82FD17080FDD0E810928E
:1057C000E9008091F000877F8093F00078940E9438
:1057D000FC281092E9008091F00088608093F0002E
:1057E000CD2BCF70C093E900FF91EF91DF91CF9166
:1057F000BF91AF919F918F917F916F915F914F91E9
:105800003F912F910F900FBE0F901F9018951F93EF
:10581000CF93DF93CDB7DEB767970FB6F894DEBFAF
:105820000FBECDBF4B8B5C8B6D8B7E8B8F8B86E0E1
:105830009E01235F3F4FD901E82F1D92EA95E9F7BA
:1058400095E0FE017396D90101900D929A95E1F7CA
:10585000F901DE01179601900D928A95E1F7CE01CC
:1058600007960E94621F81113EC086E0FE013796B6
:10587000DE01119601900D928A95E1F7FF81E8858E
:105880006A857B856115710531F0EF3F31F481E068
:10589000FF3F19F403C081E001C080E080FD23C018
:1058A0002091510430E0C9010196877099274091F9
:1058B000820450E08417950779F1F983EA837D83A8
:1058C0006C8396E0929FD001939FB00D1124AE5A45
:1058D000BB4FFE01319601900D929A95E1F78093AE
:1058E00051040E94F12716E08091820490915104A6
:1058F0008917F9F0189FC00111248E5A9B4F0E94FE
:10590000621F8823B1F08091820490E00196877035
:10591000992780938204E8CF0E9454211092510469
:1059200010928204EBE4F4E086E0DF011D928A9598
:10593000E9F767960FB6F894DEBF0FBECDBFDF91D3
:10594000CF911F91089520910F05309110052817D0
:10595000390771F09093100580930F05E0912304AF
:10596000F0912404309721F00084F185E02D099412
:10597000089520910D0530910E052817390771F013
:1059800090930E0580930D05E0912304F09124047B
:10599000309721F00680F781E02D09940895E09179
:1059A0002304F0912404309721F00190F081E02D40
:1059B000099480E008958091C10380FD0AC0ECEA5B
:1059C000F4E0118210821282339694E0EC3DF907E4
:1059D000C1F7809A80E390E00E945D2887EC90E018
:1059E0000197F1F700C0000008959091C10390FF66
:1059F0000CC0ECEAF4E0818360834283339694E048
:105A0000EC3DF907C1F70C94DB2C0895CF93DF939D
:105A100000D01F92CDB7DEB72091C10320FF0AC08E
:105A20009E012F5F3F4F0E94C00F4B8169818A8189
:105A30000E94F52C0F900F900F90DF91CF91089559
:105A4000AF92BF92CF92DF92EF92FF920F931F938C
:105A5000CF93DF9300D01F92CDB7DEB78091C00304
:105A6000882309F469C28091C103182F16951F730A
:105A70009EE3910F9F73943008F055C08091F50418
:105A80009091F6040E94A825EEEFE10FF0E0E152BC
:105A9000F54FE491F0E08E179F0708F44DC20E9485
:105AA000D2259093F6048093F5046091F40470E09D
:105AB00080E090E00E94FF3120E030E04FE753E4C7
:105AC0000E9422312BED3FE049E450E40E94513323
:105AD0000E940E340E949C312BE43AE34EE25FE3D5
:105AE0000E94B03020EF3BEF48ED52E40E9451336A
:105AF0000E94CE31462F8091C103881F8827881FBE
:105B00009091C203292F220F97FB992790F960915A
:105B1000C303822B0E94062D8091F40490E001962D
:105B20008093F40409C29AE3910F9F73933078F540
:105B30008091F9049091FA040E94A825EAEFE10F00
:105B4000F0E0ED51F54FE491F0E08E179F0708F477
:105B5000F3C10E94D2259093FA048093F9044091F6
:105B6000C4036091C3038091F7049091F8040E94EC
:105B7000062D8091F7049091F804019668E671E093
:105B80000E94C7349093F8048093F704D5C197E33B
:105B9000910F9F73963008F051C019508091FD0409
:105BA0009091FE040E94A825E12FE695F0E0EA51CD
:105BB000F54F249130E08217930708F4BDC10E948D
:105BC000D2259093FE048093FD044CEAE42E44E039
:105BD000F42EC12CD12C58E6A52EBB24B394809171
:105BE000FB049091FC048C0D9D1DB5010E94C734EF
:105BF00097014091C4036091C3030E94C00F26E146
:105C0000C20ED11C33E0E30EF11C80E6C81681E021
:105C1000D80629F70E94DB2C8091FB049091FC04AC
:105C200010FF06C0019668E671E00E94C73401C00B
:105C300001979093FC048093FB047EC191E3910F44
:105C40009F73963008F076C01F5010FF03C0FF24EA
:105C5000FA9402C0FF24F39480910005909101050D
:105C60000E94A825E12FE695F0E0E751F54FE49179
:105C7000F0E08E179F0708F45FC10E94D225909331
:105C80000105809300050CEA14E0C12CD12CF80129
:105C900011821082128234E0A32EB12CE12C80916B
:105CA000FF048E0D87FD805F082E000C990BC8162F
:105CB000D906E9F48091C4038A9DA0018B9D500D03
:105CC000112455954795559547958091C103881F97
:105CD0008827881F9091C203592F550F97FB99274A
:105CE00090F998016091C303852B0E94C00FEF0CBF
:105CF000F1E0AF1AB10899F62FEFC21AD20A0D5F80
:105D00001F4F30E1C316D10409F0C1CF0E94DB2C34
:105D10008091FF0491E0F91208C0811102C08FE068
:105D200001C081508093FF0407C190E001968F70FD
:105D30009927F8CF9BE2910F9F73933008F06EC0C4
:105D400080910305909104050E94A825EBEEE10FD8
:105D5000F0E0E451F54FE491F0E08E179F0708F46E
:105D6000EBC00E94D22590930405809303050CEAB2
:105D700014E08CED94E0F8011182108212823396C7
:105D80008E179F07C9F7C12CD12C80910205082ED0
:105D9000000C990BC816D906ECF080915B03082E15
:105DA000000C990B8C159D05ACF08091C103881FE8
:105DB0008827881F9091C203592F550F97FB992769
:105DC00090F998014091C4036091C303852B0E9410
:105DD000C00F04C0F801118210821282FFEFCF1AA7
:105DE000DF0A0D5F1F4F20E1C216D10471F60E9439
:105DF000DB2C80915A0390910205980F9093020535
:105E000020915B03280F20935B0312161CF49F3034
:105E10000CF492C0819580935A038EC08E778033A4
:105E200009F042C080910705909108050E94A825BD
:105E3000883E934008F480C00E94D22590930805C4
:105E40008093070500910505109106050F5F1F4F10
:105E50000170112710930605009305058CEAC82EE2
:105E600084E0D82EF12C98E7E92E8F2D8695F80145
:105E7000E80FF11DCF018170992796014091C4036D
:105E80006091C303FC01EE9EC001EF9E900D1124B2
:105E90000E94C00FF394F3E0CF0ED11C20E1F21268
:105EA000E4CF0E94DB2C48C0863409F045C08091C5
